{
  "contractName": "AddressVotes",
  "abi": [
    {
      "constant": true,
      "inputs": [],
      "name": "version",
      "outputs": [
        {
          "name": "",
          "type": "uint8"
        }
      ],
      "payable": false,
      "stateMutability": "view",
      "type": "function"
    },
    {
      "inputs": [
        {
          "name": "_demoStorageAddress",
          "type": "address"
        }
      ],
      "payable": false,
      "stateMutability": "nonpayable",
      "type": "constructor"
    },
    {
      "constant": true,
      "inputs": [
        {
          "name": "_voter",
          "type": "address"
        }
      ],
      "name": "contains",
      "outputs": [
        {
          "name": "",
          "type": "bool"
        }
      ],
      "payable": false,
      "stateMutability": "view",
      "type": "function"
    },
    {
      "constant": false,
      "inputs": [
        {
          "name": "_addr",
          "type": "address"
        },
        {
          "name": "_voter",
          "type": "address"
        }
      ],
      "name": "insert",
      "outputs": [
        {
          "name": "",
          "type": "bool"
        }
      ],
      "payable": false,
      "stateMutability": "nonpayable",
      "type": "function"
    },
    {
      "constant": false,
      "inputs": [
        {
          "name": "_addr",
          "type": "address"
        },
        {
          "name": "_voter",
          "type": "address"
        }
      ],
      "name": "remove",
      "outputs": [
        {
          "name": "",
          "type": "bool"
        }
      ],
      "payable": false,
      "stateMutability": "nonpayable",
      "type": "function"
    },
    {
      "constant": true,
      "inputs": [
        {
          "name": "_addr",
          "type": "address"
        }
      ],
      "name": "getCount",
      "outputs": [
        {
          "name": "",
          "type": "uint256"
        }
      ],
      "payable": false,
      "stateMutability": "view",
      "type": "function"
    },
    {
      "constant": true,
      "inputs": [
        {
          "name": "_addr",
          "type": "address"
        },
        {
          "name": "_voter",
          "type": "address"
        }
      ],
      "name": "getInserted",
      "outputs": [
        {
          "name": "",
          "type": "bool"
        }
      ],
      "payable": false,
      "stateMutability": "view",
      "type": "function"
    },
    {
      "constant": false,
      "inputs": [
        {
          "name": "_addr",
          "type": "address"
        },
        {
          "name": "_count",
          "type": "uint256"
        }
      ],
      "name": "setCount",
      "outputs": [],
      "payable": false,
      "stateMutability": "nonpayable",
      "type": "function"
    },
    {
      "constant": false,
      "inputs": [
        {
          "name": "_addr",
          "type": "address"
        },
        {
          "name": "_voter",
          "type": "address"
        },
        {
          "name": "_is",
          "type": "bool"
        }
      ],
      "name": "setInserted",
      "outputs": [],
      "payable": false,
      "stateMutability": "nonpayable",
      "type": "function"
    }
  ],
  "bytecode": "0x608060405260008060016101000a81548173ffffffffffffffffffffffffffffffffffffffff021916908373ffffffffffffffffffffffffffffffffffffffff16021790555034801561005157600080fd5b50604051602080610e48833981018060405281019080805190602001909291905050508080600060016101000a81548173ffffffffffffffffffffffffffffffffffffffff021916908373ffffffffffffffffffffffffffffffffffffffff1602179055505060016000806101000a81548160ff021916908360ff16021790555050610d66806100e26000396000f30060806040526004361061008e576000357c0100000000000000000000000000000000000000000000000000000000900463ffffffff1680634f0cd27b1461009357806354fd4d50146100ea5780635dbe47e81461011b5780637f7c149114610176578063a4341ab0146101f1578063b751127f1461023e578063c0a2203e146102b9578063eb7bb85414610334575b600080fd5b34801561009f57600080fd5b506100d4600480360381019080803573ffffffffffffffffffffffffffffffffffffffff1690602001909291905050506103a3565b6040518082815260200191505060405180910390f35b3480156100f657600080fd5b506100ff610563565b604051808260ff1660ff16815260200191505060405180910390f35b34801561012757600080fd5b5061015c600480360381019080803573ffffffffffffffffffffffffffffffffffffffff169060200190929190505050610575565b604051808215151515815260200191505060405180910390f35b34801561018257600080fd5b506101d7600480360381019080803573ffffffffffffffffffffffffffffffffffffffff169060200190929190803573ffffffffffffffffffffffffffffffffffffffff1690602001909291905050506106c9565b604051808215151515815260200191505060405180910390f35b3480156101fd57600080fd5b5061023c600480360381019080803573ffffffffffffffffffffffffffffffffffffffff1690602001909291908035906020019092919050505061071f565b005b34801561024a57600080fd5b5061029f600480360381019080803573ffffffffffffffffffffffffffffffffffffffff169060200190929190803573ffffffffffffffffffffffffffffffffffffffff1690602001909291905050506108c0565b604051808215151515815260200191505060405180910390f35b3480156102c557600080fd5b5061031a600480360381019080803573ffffffffffffffffffffffffffffffffffffffff169060200190929190803573ffffffffffffffffffffffffffffffffffffffff169060200190929190505050610ac4565b604051808215151515815260200191505060405180910390f35b34801561034057600080fd5b506103a1600480360381019080803573ffffffffffffffffffffffffffffffffffffffff169060200190929190803573ffffffffffffffffffffffffffffffffffffffff169060200190929190803515159060200190929190505050610b1a565b005b60008060019054906101000a900473ffffffffffffffffffffffffffffffffffffffff1673ffffffffffffffffffffffffffffffffffffffff1663bd02d0f58360405160200180807f61646472657373766f74652e636f756e740000000000000000000000000000008152506011018273ffffffffffffffffffffffffffffffffffffffff1673ffffffffffffffffffffffffffffffffffffffff166c010000000000000000000000000281526014019150506040516020818303038152906040526040518082805190602001908083835b60208310151561049a5780518252602082019150602081019050602083039250610475565b6001836020036101000a03801982511681845116808217855250505050505090500191505060405180910390206040518263ffffffff167c0100000000000000000000000000000000000000000000000000000000028152600401808260001916600019168152602001915050602060405180830381600087803b15801561052157600080fd5b505af1158015610535573d6000803e3d6000fd5b505050506040513d602081101561054b57600080fd5b81019080805190602001909291905050509050919050565b6000809054906101000a900460ff1681565b60008060019054906101000a900473ffffffffffffffffffffffffffffffffffffffff1673ffffffffffffffffffffffffffffffffffffffff16637ae1cfca8360405180807f61646472657373766f74652e696e7365727465640000000000000000000000008152506014018273ffffffffffffffffffffffffffffffffffffffff1673ffffffffffffffffffffffffffffffffffffffff166c0100000000000000000000000002815260140191505060405180910390206040518263ffffffff167c0100000000000000000000000000000000000000000000000000000000028152600401808260001916600019168152602001915050602060405180830381600087803b15801561068757600080fd5b505af115801561069b573d6000803e3d6000fd5b505050506040513d60208110156106b157600080fd5b81019080805190602001909291905050509050919050565b60006106d583836108c0565b156106e35760009050610719565b6107088261070360016106f5866103a3565b610d0390919063ffffffff16565b61071f565b61071483836000610b1a565b600190505b92915050565b600060019054906101000a900473ffffffffffffffffffffffffffffffffffffffff1673ffffffffffffffffffffffffffffffffffffffff1663e2a4853a8360405160200180807f61646472657373766f74652e636f756e740000000000000000000000000000008152506011018273ffffffffffffffffffffffffffffffffffffffff1673ffffffffffffffffffffffffffffffffffffffff166c010000000000000000000000000281526014019150506040516020818303038152906040526040518082805190602001908083835b60208310151561081557805182526020820191506020810190506020830392506107f0565b6001836020036101000a0380198251168184511680821785525050505050509050019150506040518091039020836040518363ffffffff167c010000000000000000000000000000000000000000000000000000000002815260040180836000191660001916815260200182815260200192505050600060405180830381600087803b1580156108a457600080fd5b505af11580156108b8573d6000803e3d6000fd5b505050505050565b60008060019054906101000a900473ffffffffffffffffffffffffffffffffffffffff1673ffffffffffffffffffffffffffffffffffffffff16637ae1cfca848460405160200180807f61646472657373766f74652e696e7365727465640000000000000000000000008152506014018373ffffffffffffffffffffffffffffffffffffffff1673ffffffffffffffffffffffffffffffffffffffff166c010000000000000000000000000281526014018273ffffffffffffffffffffffffffffffffffffffff1673ffffffffffffffffffffffffffffffffffffffff166c01000000000000000000000000028152601401925050506040516020818303038152906040526040518082805190602001908083835b6020831015156109fa57805182526020820191506020810190506020830392506109d5565b6001836020036101000a03801982511681845116808217855250505050505090500191505060405180910390206040518263ffffffff167c0100000000000000000000000000000000000000000000000000000000028152600401808260001916600019168152602001915050602060405180830381600087803b158015610a8157600080fd5b505af1158015610a95573d6000803e3d6000fd5b505050506040513d6020811015610aab57600080fd5b8101908080519060200190929190505050905092915050565b6000610ad083836108c0565b15610ade5760009050610b14565b610b0382610afe6001610af0866103a3565b610d1c90919063ffffffff16565b61071f565b610b0f83836001610b1a565b600190505b92915050565b600060019054906101000a900473ffffffffffffffffffffffffffffffffffffffff1673ffffffffffffffffffffffffffffffffffffffff1663abfdcced848460405160200180807f61646472657373766f74652e696e7365727465640000000000000000000000008152506014018373ffffffffffffffffffffffffffffffffffffffff1673ffffffffffffffffffffffffffffffffffffffff166c010000000000000000000000000281526014018273ffffffffffffffffffffffffffffffffffffffff1673ffffffffffffffffffffffffffffffffffffffff166c01000000000000000000000000028152601401925050506040516020818303038152906040526040518082805190602001908083835b602083101515610c535780518252602082019150602081019050602083039250610c2e565b6001836020036101000a0380198251168184511680821785525050505050509050019150506040518091039020836040518363ffffffff167c01000000000000000000000000000000000000000000000000000000000281526004018083600019166000191681526020018215151515815260200192505050600060405180830381600087803b158015610ce657600080fd5b505af1158015610cfa573d6000803e3d6000fd5b50505050505050565b6000828211151515610d1157fe5b818303905092915050565b6000808284019050838110151515610d3057fe5b80915050929150505600a165627a7a72305820fdc67f10979f05dcbd5ea9b6f9f17294639f29b5d9e87459ea99e5395602a8720029",
  "source": "pragma solidity ^0.4.15;\n\nimport \"./DemoBase.sol\";\nimport \"../lib/safemath.sol\";\n\ncontract AddressVotes is DemoBase{\n\n    using SafeMath for uint;\n\n    constructor (address _demoStorageAddress) DemoBase (_demoStorageAddress) public {\n        version = 1;\n    }\n\n    // 是否已经投票\n    function contains(address _voter) public view returns(bool){\n        return demoStorage.getBool(keccak256(\"addressvote.inserted\",_voter));\n    }\n\n\t// _voter对地址_addr投票\n    function insert(address _addr,address _voter) public returns (bool) {\n        if(getInserted(_addr,_voter)) {return false;}\n        setCount(_voter,getCount(_voter).add(1));\n        setInserted(_addr,_voter,true);\n        return true;\n    }\n\n\t// _voter撤回对_addr的投票\n    function remove(address _addr,address _voter) public returns (bool){\n        if(getInserted(_addr,_voter)){return false;}\n        setCount(_voter,getCount(_voter).sub(1));\n        setInserted(_addr,_voter,false);\n        return true;\n    }\n\n    // getter\n    // 地址得票数\n    function getCount(address _addr) public view returns(uint256){\n        return demoStorage.getUint(keccak256(abi.encodePacked(\"addressvote.count\",_addr)));\n    }\n\n    function getInserted(address _addr,address _voter) public view returns(bool){\n        // return demoStorage.getBool(keccak256(\"addressvote.inserted\",_addr));\n        return demoStorage.getBool(keccak256(abi.encodePacked(\"addressvote.inserted\",_addr,_voter)));\n    }\n\n    // setter\n    // 地址得票数\n    function setCount(address _addr,uint256 _count) public {\n        demoStorage.setUint(keccak256(abi.encodePacked(\"addressvote.count\",_addr)),_count);\n    }\n\n// 是否投过票\n    function setInserted(address _addr,address _voter,bool _is) public {\n        demoStorage.setBool(keccak256(abi.encodePacked(\"addressvote.inserted\",_addr,_voter)),_is);\n    }\n}",
  "sourcePath": "/home/a186r/develop/truffled/scdemo/contracts/AddressVotes.sol",
  "compiler": {
    "name": "solc",
    "version": "0.4.23+commit.124ca40d.Emscripten.clang"
  },
  "schemaVersion": "2.0.0",
  "updatedAt": "2018-06-11T07:41:33.291Z"
}