{
  "contractName": "DemoStorage",
  "abi": [
    {
      "inputs": [],
      "payable": false,
      "stateMutability": "nonpayable",
      "type": "constructor"
    },
    {
      "constant": true,
      "inputs": [
        {
          "name": "_key",
          "type": "bytes32"
        }
      ],
      "name": "getAddress",
      "outputs": [
        {
          "name": "",
          "type": "address"
        }
      ],
      "payable": false,
      "stateMutability": "view",
      "type": "function"
    },
    {
      "constant": true,
      "inputs": [
        {
          "name": "_key",
          "type": "bytes32"
        }
      ],
      "name": "getUint",
      "outputs": [
        {
          "name": "",
          "type": "uint256"
        }
      ],
      "payable": false,
      "stateMutability": "view",
      "type": "function"
    },
    {
      "constant": true,
      "inputs": [
        {
          "name": "_key",
          "type": "bytes32"
        }
      ],
      "name": "getString",
      "outputs": [
        {
          "name": "",
          "type": "string"
        }
      ],
      "payable": false,
      "stateMutability": "view",
      "type": "function"
    },
    {
      "constant": true,
      "inputs": [
        {
          "name": "_key",
          "type": "bytes32"
        }
      ],
      "name": "getBytes",
      "outputs": [
        {
          "name": "",
          "type": "bytes"
        }
      ],
      "payable": false,
      "stateMutability": "view",
      "type": "function"
    },
    {
      "constant": true,
      "inputs": [
        {
          "name": "_key",
          "type": "bytes32"
        }
      ],
      "name": "getBool",
      "outputs": [
        {
          "name": "",
          "type": "bool"
        }
      ],
      "payable": false,
      "stateMutability": "view",
      "type": "function"
    },
    {
      "constant": true,
      "inputs": [
        {
          "name": "_key",
          "type": "bytes32"
        }
      ],
      "name": "getInt",
      "outputs": [
        {
          "name": "",
          "type": "int256"
        }
      ],
      "payable": false,
      "stateMutability": "view",
      "type": "function"
    },
    {
      "constant": false,
      "inputs": [
        {
          "name": "_key",
          "type": "bytes32"
        },
        {
          "name": "_value",
          "type": "address"
        }
      ],
      "name": "setAddress",
      "outputs": [],
      "payable": false,
      "stateMutability": "nonpayable",
      "type": "function"
    },
    {
      "constant": false,
      "inputs": [
        {
          "name": "_key",
          "type": "bytes32"
        },
        {
          "name": "_value",
          "type": "uint256"
        }
      ],
      "name": "setUint",
      "outputs": [],
      "payable": false,
      "stateMutability": "nonpayable",
      "type": "function"
    },
    {
      "constant": false,
      "inputs": [
        {
          "name": "_key",
          "type": "bytes32"
        },
        {
          "name": "_value",
          "type": "string"
        }
      ],
      "name": "setString",
      "outputs": [],
      "payable": false,
      "stateMutability": "nonpayable",
      "type": "function"
    },
    {
      "constant": false,
      "inputs": [
        {
          "name": "_key",
          "type": "bytes32"
        },
        {
          "name": "_value",
          "type": "bytes"
        }
      ],
      "name": "setBytes",
      "outputs": [],
      "payable": false,
      "stateMutability": "nonpayable",
      "type": "function"
    },
    {
      "constant": false,
      "inputs": [
        {
          "name": "_key",
          "type": "bytes32"
        },
        {
          "name": "_value",
          "type": "bool"
        }
      ],
      "name": "setBool",
      "outputs": [],
      "payable": false,
      "stateMutability": "nonpayable",
      "type": "function"
    },
    {
      "constant": false,
      "inputs": [
        {
          "name": "_key",
          "type": "bytes32"
        },
        {
          "name": "_value",
          "type": "int256"
        }
      ],
      "name": "setInt",
      "outputs": [],
      "payable": false,
      "stateMutability": "nonpayable",
      "type": "function"
    },
    {
      "constant": false,
      "inputs": [
        {
          "name": "_key",
          "type": "bytes32"
        }
      ],
      "name": "deleteAddress",
      "outputs": [],
      "payable": false,
      "stateMutability": "nonpayable",
      "type": "function"
    },
    {
      "constant": false,
      "inputs": [
        {
          "name": "_key",
          "type": "bytes32"
        }
      ],
      "name": "deleteUint",
      "outputs": [],
      "payable": false,
      "stateMutability": "nonpayable",
      "type": "function"
    },
    {
      "constant": false,
      "inputs": [
        {
          "name": "_key",
          "type": "bytes32"
        }
      ],
      "name": "deleteString",
      "outputs": [],
      "payable": false,
      "stateMutability": "nonpayable",
      "type": "function"
    },
    {
      "constant": false,
      "inputs": [
        {
          "name": "_key",
          "type": "bytes32"
        }
      ],
      "name": "deleteBytes",
      "outputs": [],
      "payable": false,
      "stateMutability": "nonpayable",
      "type": "function"
    },
    {
      "constant": false,
      "inputs": [
        {
          "name": "_key",
          "type": "bytes32"
        }
      ],
      "name": "deleteBool",
      "outputs": [],
      "payable": false,
      "stateMutability": "nonpayable",
      "type": "function"
    },
    {
      "constant": false,
      "inputs": [
        {
          "name": "_key",
          "type": "bytes32"
        }
      ],
      "name": "deleteInt",
      "outputs": [],
      "payable": false,
      "stateMutability": "nonpayable",
      "type": "function"
    }
  ],
  "bytecode": "0x608060405234801561001057600080fd5b506001600360003360405180807f6163636573732e726f6c65000000000000000000000000000000000000000000815250600b01807f6f776e65720000000000000000000000000000000000000000000000000000008152506005018273ffffffffffffffffffffffffffffffffffffffff1673ffffffffffffffffffffffffffffffffffffffff166c0100000000000000000000000002815260140191505060405180910390206000191660001916815260200190815260200160002060006101000a81548160ff021916908315150217905550611be2806100f46000396000f3006080604052600436106100fc576000357c0100000000000000000000000000000000000000000000000000000000900463ffffffff1680630e14a3761461010157806321f8a721146101325780632c62ff2d146101a35780632e28d084146101d45780633e49bed01461021d578063616b59f6146102585780636e899550146102895780637ae1cfca146102d25780638c1600951461031b578063986e791a1461034c578063abfdcced146103f6578063bd02d0f514610433578063c031a18014610478578063ca446dd914610522578063dc97d96214610573578063e2a4853a146105b8578063e2b202bf146105f3578063f6bb3cc414610624575b600080fd5b34801561010d57600080fd5b506101306004803603810190808035600019169060200190929190505050610655565b005b34801561013e57600080fd5b5061016160048036038101908080356000191690602001909291905050506107da565b604051808273ffffffffffffffffffffffffffffffffffffffff1673ffffffffffffffffffffffffffffffffffffffff16815260200191505060405180910390f35b3480156101af57600080fd5b506101d2600480360381019080803560001916906020019092919050505061081f565b005b3480156101e057600080fd5b5061021b6004803603810190808035600019169060200190929190803590602001908201803590602001919091929391929390505050610991565b005b34801561022957600080fd5b50610256600480360381019080803560001916906020019092919080359060200190929190505050610b05565b005b34801561026457600080fd5b506102876004803603810190808035600019169060200190929190505050610c6d565b005b34801561029557600080fd5b506102d06004803603810190808035600019169060200190929190803590602001908201803590602001919091929391929390505050610ddb565b005b3480156102de57600080fd5b506103016004803603810190808035600019169060200190929190505050610f4f565b604051808215151515815260200191505060405180910390f35b34801561032757600080fd5b5061034a6004803603810190808035600019169060200190929190505050610f81565b005b34801561035857600080fd5b5061037b60048036038101908080356000191690602001909291905050506110e7565b6040518080602001828103825283818151815260200191508051906020019080838360005b838110156103bb5780820151818401526020810190506103a0565b50505050905090810190601f1680156103e85780820380516001836020036101000a031916815260200191505b509250505060405180910390f35b34801561040257600080fd5b5061043160048036038101908080356000191690602001909291908035151590602001909291905050506111a4565b005b34801561043f57600080fd5b50610462600480360381019080803560001916906020019092919050505061131f565b6040518082815260200191505060405180910390f35b34801561048457600080fd5b506104a76004803603810190808035600019169060200190929190505050611343565b6040518080602001828103825283818151815260200191508051906020019080838360005b838110156104e75780820151818401526020810190506104cc565b50505050905090810190601f1680156105145780820380516001836020036101000a031916815260200191505b509250505060405180910390f35b34801561052e57600080fd5b506105716004803603810190808035600019169060200190929190803573ffffffffffffffffffffffffffffffffffffffff169060200190929190505050611400565b005b34801561057f57600080fd5b506105a260048036038101908080356000191690602001909291905050506115a2565b6040518082815260200191505060405180910390f35b3480156105c457600080fd5b506105f16004803603810190808035600019169060200190929190803590602001909291905050506115c7565b005b3480156105ff57600080fd5b50610622600480360381019080803560001916906020019092919050505061172e565b005b34801561063057600080fd5b506106536004803603810190808035600019169060200190929190505050611893565b005b600115156003600060405180807f636f6e74726163742e73746f726167652e696e697469616c6973656400000000815250601c01905060405180910390206000191660001916815260200190815260200160002060009054906101000a900460ff1615151415610799576000600260003360405180807f636f6e74726163742e61646472657373000000000000000000000000000000008152506010018273ffffffffffffffffffffffffffffffffffffffff1673ffffffffffffffffffffffffffffffffffffffff166c0100000000000000000000000002815260140191505060405180910390206000191660001916815260200190815260200160002060009054906101000a900473ffffffffffffffffffffffffffffffffffffffff1673ffffffffffffffffffffffffffffffffffffffff161415151561079857600080fd5b5b60026000826000191660001916815260200190815260200160002060006101000a81549073ffffffffffffffffffffffffffffffffffffffff021916905550565b600060026000836000191660001916815260200190815260200160002060009054906101000a900473ffffffffffffffffffffffffffffffffffffffff169050919050565b600115156003600060405180807f636f6e74726163742e73746f726167652e696e697469616c6973656400000000815250601c01905060405180910390206000191660001916815260200190815260200160002060009054906101000a900460ff1615151415610963576000600260003360405180807f636f6e74726163742e61646472657373000000000000000000000000000000008152506010018273ffffffffffffffffffffffffffffffffffffffff1673ffffffffffffffffffffffffffffffffffffffff166c0100000000000000000000000002815260140191505060405180910390206000191660001916815260200190815260200160002060009054906101000a900473ffffffffffffffffffffffffffffffffffffffff1673ffffffffffffffffffffffffffffffffffffffff161415151561096257600080fd5b5b60036000826000191660001916815260200190815260200160002060006101000a81549060ff021916905550565b600115156003600060405180807f636f6e74726163742e73746f726167652e696e697469616c6973656400000000815250601c01905060405180910390206000191660001916815260200190815260200160002060009054906101000a900460ff1615151415610ad5576000600260003360405180807f636f6e74726163742e61646472657373000000000000000000000000000000008152506010018273ffffffffffffffffffffffffffffffffffffffff1673ffffffffffffffffffffffffffffffffffffffff166c0100000000000000000000000002815260140191505060405180910390206000191660001916815260200190815260200160002060009054906101000a900473ffffffffffffffffffffffffffffffffffffffff1673ffffffffffffffffffffffffffffffffffffffff1614151515610ad457600080fd5b5b81816004600086600019166000191681526020019081526020016000209190610aff929190611a01565b50505050565b600115156003600060405180807f636f6e74726163742e73746f726167652e696e697469616c6973656400000000815250601c01905060405180910390206000191660001916815260200190815260200160002060009054906101000a900460ff1615151415610c49576000600260003360405180807f636f6e74726163742e61646472657373000000000000000000000000000000008152506010018273ffffffffffffffffffffffffffffffffffffffff1673ffffffffffffffffffffffffffffffffffffffff166c0100000000000000000000000002815260140191505060405180910390206000191660001916815260200190815260200160002060009054906101000a900473ffffffffffffffffffffffffffffffffffffffff1673ffffffffffffffffffffffffffffffffffffffff1614151515610c4857600080fd5b5b80600560008460001916600019168152602001908152602001600020819055505050565b600115156003600060405180807f636f6e74726163742e73746f726167652e696e697469616c6973656400000000815250601c01905060405180910390206000191660001916815260200190815260200160002060009054906101000a900460ff1615151415610db1576000600260003360405180807f636f6e74726163742e61646472657373000000000000000000000000000000008152506010018273ffffffffffffffffffffffffffffffffffffffff1673ffffffffffffffffffffffffffffffffffffffff166c0100000000000000000000000002815260140191505060405180910390206000191660001916815260200190815260200160002060009054906101000a900473ffffffffffffffffffffffffffffffffffffffff1673ffffffffffffffffffffffffffffffffffffffff1614151515610db057600080fd5b5b6004600082600019166000191681526020019081526020016000206000610dd89190611a81565b50565b600115156003600060405180807f636f6e74726163742e73746f726167652e696e697469616c6973656400000000815250601c01905060405180910390206000191660001916815260200190815260200160002060009054906101000a900460ff1615151415610f1f576000600260003360405180807f636f6e74726163742e61646472657373000000000000000000000000000000008152506010018273ffffffffffffffffffffffffffffffffffffffff1673ffffffffffffffffffffffffffffffffffffffff166c0100000000000000000000000002815260140191505060405180910390206000191660001916815260200190815260200160002060009054906101000a900473ffffffffffffffffffffffffffffffffffffffff1673ffffffffffffffffffffffffffffffffffffffff1614151515610f1e57600080fd5b5b81816001600086600019166000191681526020019081526020016000209190610f49929190611ac9565b50505050565b600060036000836000191660001916815260200190815260200160002060009054906101000a900460ff169050919050565b600115156003600060405180807f636f6e74726163742e73746f726167652e696e697469616c6973656400000000815250601c01905060405180910390206000191660001916815260200190815260200160002060009054906101000a900460ff16151514156110c5576000600260003360405180807f636f6e74726163742e61646472657373000000000000000000000000000000008152506010018273ffffffffffffffffffffffffffffffffffffffff1673ffffffffffffffffffffffffffffffffffffffff166c0100000000000000000000000002815260140191505060405180910390206000191660001916815260200190815260200160002060009054906101000a900473ffffffffffffffffffffffffffffffffffffffff1673ffffffffffffffffffffffffffffffffffffffff16141515156110c457600080fd5b5b6005600082600019166000191681526020019081526020016000206000905550565b60606001600083600019166000191681526020019081526020016000208054600181600116156101000203166002900480601f0160208091040260200160405190810160405280929190818152602001828054600181600116156101000203166002900480156111985780601f1061116d57610100808354040283529160200191611198565b820191906000526020600020905b81548152906001019060200180831161117b57829003601f168201915b50505050509050919050565b600115156003600060405180807f636f6e74726163742e73746f726167652e696e697469616c6973656400000000815250601c01905060405180910390206000191660001916815260200190815260200160002060009054906101000a900460ff16151514156112e8576000600260003360405180807f636f6e74726163742e61646472657373000000000000000000000000000000008152506010018273ffffffffffffffffffffffffffffffffffffffff1673ffffffffffffffffffffffffffffffffffffffff166c0100000000000000000000000002815260140191505060405180910390206000191660001916815260200190815260200160002060009054906101000a900473ffffffffffffffffffffffffffffffffffffffff1673ffffffffffffffffffffffffffffffffffffffff16141515156112e757600080fd5b5b8060036000846000191660001916815260200190815260200160002060006101000a81548160ff0219169083151502179055505050565b60008060008360001916600019168152602001908152602001600020549050919050565b60606004600083600019166000191681526020019081526020016000208054600181600116156101000203166002900480601f0160208091040260200160405190810160405280929190818152602001828054600181600116156101000203166002900480156113f45780601f106113c9576101008083540402835291602001916113f4565b820191906000526020600020905b8154815290600101906020018083116113d757829003601f168201915b50505050509050919050565b600115156003600060405180807f636f6e74726163742e73746f726167652e696e697469616c6973656400000000815250601c01905060405180910390206000191660001916815260200190815260200160002060009054906101000a900460ff1615151415611544576000600260003360405180807f636f6e74726163742e61646472657373000000000000000000000000000000008152506010018273ffffffffffffffffffffffffffffffffffffffff1673ffffffffffffffffffffffffffffffffffffffff166c0100000000000000000000000002815260140191505060405180910390206000191660001916815260200190815260200160002060009054906101000a900473ffffffffffffffffffffffffffffffffffffffff1673ffffffffffffffffffffffffffffffffffffffff161415151561154357600080fd5b5b8060026000846000191660001916815260200190815260200160002060006101000a81548173ffffffffffffffffffffffffffffffffffffffff021916908373ffffffffffffffffffffffffffffffffffffffff1602179055505050565b6000600560008360001916600019168152602001908152602001600020549050919050565b600115156003600060405180807f636f6e74726163742e73746f726167652e696e697469616c6973656400000000815250601c01905060405180910390206000191660001916815260200190815260200160002060009054906101000a900460ff161515141561170b576000600260003360405180807f636f6e74726163742e61646472657373000000000000000000000000000000008152506010018273ffffffffffffffffffffffffffffffffffffffff1673ffffffffffffffffffffffffffffffffffffffff166c0100000000000000000000000002815260140191505060405180910390206000191660001916815260200190815260200160002060009054906101000a900473ffffffffffffffffffffffffffffffffffffffff1673ffffffffffffffffffffffffffffffffffffffff161415151561170a57600080fd5b5b806000808460001916600019168152602001908152602001600020819055505050565b600115156003600060405180807f636f6e74726163742e73746f726167652e696e697469616c6973656400000000815250601c01905060405180910390206000191660001916815260200190815260200160002060009054906101000a900460ff1615151415611872576000600260003360405180807f636f6e74726163742e61646472657373000000000000000000000000000000008152506010018273ffffffffffffffffffffffffffffffffffffffff1673ffffffffffffffffffffffffffffffffffffffff166c0100000000000000000000000002815260140191505060405180910390206000191660001916815260200190815260200160002060009054906101000a900473ffffffffffffffffffffffffffffffffffffffff1673ffffffffffffffffffffffffffffffffffffffff161415151561187157600080fd5b5b60008082600019166000191681526020019081526020016000206000905550565b600115156003600060405180807f636f6e74726163742e73746f726167652e696e697469616c6973656400000000815250601c01905060405180910390206000191660001916815260200190815260200160002060009054906101000a900460ff16151514156119d7576000600260003360405180807f636f6e74726163742e61646472657373000000000000000000000000000000008152506010018273ffffffffffffffffffffffffffffffffffffffff1673ffffffffffffffffffffffffffffffffffffffff166c0100000000000000000000000002815260140191505060405180910390206000191660001916815260200190815260200160002060009054906101000a900473ffffffffffffffffffffffffffffffffffffffff1673ffffffffffffffffffffffffffffffffffffffff16141515156119d657600080fd5b5b60016000826000191660001916815260200190815260200160002060006119fe9190611b49565b50565b828054600181600116156101000203166002900490600052602060002090601f016020900481019282601f10611a4257803560ff1916838001178555611a70565b82800160010185558215611a70579182015b82811115611a6f578235825591602001919060010190611a54565b5b509050611a7d9190611b91565b5090565b50805460018160011615610100020316600290046000825580601f10611aa75750611ac6565b601f016020900490600052602060002090810190611ac59190611b91565b5b50565b828054600181600116156101000203166002900490600052602060002090601f016020900481019282601f10611b0a57803560ff1916838001178555611b38565b82800160010185558215611b38579182015b82811115611b37578235825591602001919060010190611b1c565b5b509050611b459190611b91565b5090565b50805460018160011615610100020316600290046000825580601f10611b6f5750611b8e565b601f016020900490600052602060002090810190611b8d9190611b91565b5b50565b611bb391905b80821115611baf576000816000905550600101611b97565b5090565b905600a165627a7a72305820b8dd46cbf27f1a5c4c8d33ba832a8dbea4a3854810ad0f8f9ea85a9a7d72fb720029",
  "source": "pragma solidity ^0.4.23;\n\n//永久性存储\ncontract DemoStorage {\n\n    mapping (bytes32=>uint256) private uIntStorage;\n    mapping (bytes32=>string) private stringStorage;\n    mapping (bytes32=>address) private addressStorage;\n    mapping (bytes32=>bool) private boolStorage;\n    mapping (bytes32=>bytes) private bytesStorage;\n    mapping (bytes32=>int256) private intStorage;\n\n    // Modifiers\n\n// 确保只有最新的合约可以调用\n    modifier onlyLatestNetworkContract(){\n\n        if(boolStorage[keccak256(\"contract.storage.initialised\")] == true){\n            require(addressStorage[keccak256(\"contract.address\",msg.sender)] != 0x0);\n        }\n        _;\n    }\n\n    //设置owner\n    constructor () public {\n        boolStorage[keccak256(\"access.role\",\"owner\",msg.sender)] = true;\n    }\n\n    function getAddress(bytes32 _key) external view returns (address) {\n        return addressStorage[_key];\n    }\n\n    function getUint(bytes32 _key) external view returns (uint) {\n        return uIntStorage[_key];\n    }\n\n    function getString(bytes32 _key) external view returns (string) {\n        return stringStorage[_key];\n    }\n\n    function getBytes(bytes32 _key) external view returns (bytes) {\n        return bytesStorage[_key];\n    }\n\n    function getBool(bytes32 _key) external view returns (bool) {\n        return boolStorage[_key];\n    }\n\n    function getInt(bytes32 _key) external view returns (int) {\n        return intStorage[_key];\n    }\n    \n    /**** Set Methods ***********/\n\n    function setAddress(bytes32 _key, address _value) onlyLatestNetworkContract external {\n        addressStorage[_key] = _value;\n    }\n\n    function setUint(bytes32 _key, uint _value) onlyLatestNetworkContract external {\n        uIntStorage[_key] = _value;\n    }\n\n    function setString(bytes32 _key, string _value) onlyLatestNetworkContract external {\n        stringStorage[_key] = _value;\n    }\n\n    function setBytes(bytes32 _key, bytes _value) onlyLatestNetworkContract external {\n        bytesStorage[_key] = _value;\n    }\n    \n    function setBool(bytes32 _key, bool _value) onlyLatestNetworkContract external {\n        boolStorage[_key] = _value;\n    }\n    \n    function setInt(bytes32 _key, int _value) onlyLatestNetworkContract external {\n        intStorage[_key] = _value;\n    }\n\n    /**** Delete Methods ***********/\n    \n    function deleteAddress(bytes32 _key) onlyLatestNetworkContract external {\n        delete addressStorage[_key];\n    }\n\n    function deleteUint(bytes32 _key) onlyLatestNetworkContract external {\n        delete uIntStorage[_key];\n    }\n\n    function deleteString(bytes32 _key) onlyLatestNetworkContract external {\n        delete stringStorage[_key];\n    }\n\n    function deleteBytes(bytes32 _key) onlyLatestNetworkContract external {\n        delete bytesStorage[_key];\n    }\n    \n    function deleteBool(bytes32 _key) onlyLatestNetworkContract external {\n        delete boolStorage[_key];\n    }\n    \n    function deleteInt(bytes32 _key) onlyLatestNetworkContract external {\n        delete intStorage[_key];\n    }\n}",
  "sourcePath": "/home/a186r/develop/truffled/demo/contracts/DemoStorage.sol",
  "compiler": {
    "name": "solc",
    "version": "0.4.23+commit.124ca40d.Emscripten.clang"
  },
  "schemaVersion": "2.0.0",
  "updatedAt": "2018-05-25T09:05:01.276Z"
}