{
  "contractName": "DemoUpgrade",
  "abi": [
    {
      "constant": true,
      "inputs": [],
      "name": "version",
      "outputs": [
        {
          "name": "",
          "type": "uint8"
        }
      ],
      "payable": false,
      "stateMutability": "view",
      "type": "function"
    },
    {
      "inputs": [
        {
          "name": "_demoStorageAddress",
          "type": "address"
        }
      ],
      "payable": false,
      "stateMutability": "nonpayable",
      "type": "constructor"
    },
    {
      "anonymous": false,
      "inputs": [
        {
          "indexed": true,
          "name": "_oldContractAddress",
          "type": "address"
        },
        {
          "indexed": true,
          "name": "_newContractAddress",
          "type": "address"
        },
        {
          "indexed": false,
          "name": "created",
          "type": "uint256"
        }
      ],
      "name": "ContractUpgraded",
      "type": "event"
    },
    {
      "anonymous": false,
      "inputs": [
        {
          "indexed": true,
          "name": "_contractAddress",
          "type": "address"
        },
        {
          "indexed": false,
          "name": "created",
          "type": "uint256"
        }
      ],
      "name": "ContractAdded",
      "type": "event"
    },
    {
      "constant": false,
      "inputs": [
        {
          "name": "_name",
          "type": "string"
        },
        {
          "name": "_upgradedContractAddress",
          "type": "address"
        },
        {
          "name": "_forceEther",
          "type": "bool"
        },
        {
          "name": "_forceTokens",
          "type": "bool"
        }
      ],
      "name": "upgradeContract",
      "outputs": [],
      "payable": false,
      "stateMutability": "nonpayable",
      "type": "function"
    },
    {
      "constant": false,
      "inputs": [
        {
          "name": "_name",
          "type": "string"
        },
        {
          "name": "_contractAddress",
          "type": "address"
        }
      ],
      "name": "addContract",
      "outputs": [],
      "payable": false,
      "stateMutability": "nonpayable",
      "type": "function"
    }
  ],
  "bytecode": "0x608060405260008060016101000a81548173ffffffffffffffffffffffffffffffffffffffff021916908373ffffffffffffffffffffffffffffffffffffffff1602179055506000600160006101000a81548173ffffffffffffffffffffffffffffffffffffffff021916908373ffffffffffffffffffffffffffffffffffffffff16021790555034801561009357600080fd5b50604051602080611578833981018060405281019080805190602001909291905050508080600060016101000a81548173ffffffffffffffffffffffffffffffffffffffff021916908373ffffffffffffffffffffffffffffffffffffffff1602179055505060016000806101000a81548160ff021916908360ff16021790555050611454806101246000396000f300608060405260043610610057576000357c0100000000000000000000000000000000000000000000000000000000900463ffffffff1680630f969ac11461005c57806354fd4d50146100cf578063bf5b601614610100575b600080fd5b34801561006857600080fd5b506100cd600480360381019080803590602001908201803590602001919091929391929390803573ffffffffffffffffffffffffffffffffffffffff16906020019092919080351515906020019092919080351515906020019092919050505061015b565b005b3480156100db57600080fd5b506100e4610c57565b604051808260ff1660ff16815260200191505060405180910390f35b34801561010c57600080fd5b50610159600480360381019080803590602001908201803590602001919091929391929390803573ffffffffffffffffffffffffffffffffffffffff169060200190929190505050610c69565b005b600061019c6040805190810160405280600581526020017f6f776e65720000000000000000000000000000000000000000000000000000008152503361125e565b600060019054906101000a900473ffffffffffffffffffffffffffffffffffffffff1673ffffffffffffffffffffffffffffffffffffffff166321f8a721878760405180807f636f6e74726163742e6e616d6500000000000000000000000000000000000000815250600d0183838082843782019150509250505060405180910390206040518263ffffffff167c0100000000000000000000000000000000000000000000000000000000028152600401808260001916600019168152602001915050602060405180830381600087803b15801561027957600080fd5b505af115801561028d573d6000803e3d6000fd5b505050506040513d60208110156102a357600080fd5b8101908080519060200190929190505050905060008173ffffffffffffffffffffffffffffffffffffffff16141515156102dc57600080fd5b8373ffffffffffffffffffffffffffffffffffffffff168173ffffffffffffffffffffffffffffffffffffffff161415151561031757600080fd5b8215156103455760008173ffffffffffffffffffffffffffffffffffffffff163114151561034457600080fd5b5b81151561083b57600060019054906101000a900473ffffffffffffffffffffffffffffffffffffffff1673ffffffffffffffffffffffffffffffffffffffff166321f8a72160405180807f636f6e74726163742e6e616d6500000000000000000000000000000000000000815250600d01807f64656d6f546f6b656e3100000000000000000000000000000000000000000000815250600a01905060405180910390206040518263ffffffff167c0100000000000000000000000000000000000000000000000000000000028152600401808260001916600019168152602001915050602060405180830381600087803b15801561044257600080fd5b505af1158015610456573d6000803e3d6000fd5b505050506040513d602081101561046c57600080fd5b8101908080519060200190929190505050600160006101000a81548173ffffffffffffffffffffffffffffffffffffffff021916908373ffffffffffffffffffffffffffffffffffffffff1602179055506000600160009054906101000a900473ffffffffffffffffffffffffffffffffffffffff1673ffffffffffffffffffffffffffffffffffffffff166370a08231836040518263ffffffff167c0100000000000000000000000000000000000000000000000000000000028152600401808273ffffffffffffffffffffffffffffffffffffffff1673ffffffffffffffffffffffffffffffffffffffff168152602001915050602060405180830381600087803b15801561057c57600080fd5b505af1158015610590573d6000803e3d6000fd5b505050506040513d60208110156105a657600080fd5b81019080805190602001909291905050501415156105c357600080fd5b600060019054906101000a900473ffffffffffffffffffffffffffffffffffffffff1673ffffffffffffffffffffffffffffffffffffffff166321f8a72160405180807f636f6e74726163742e6e616d6500000000000000000000000000000000000000815250600d01807f64656d6f546f6b656e3200000000000000000000000000000000000000000000815250600a01905060405180910390206040518263ffffffff167c0100000000000000000000000000000000000000000000000000000000028152600401808260001916600019168152602001915050602060405180830381600087803b1580156106b957600080fd5b505af11580156106cd573d6000803e3d6000fd5b505050506040513d60208110156106e357600080fd5b8101908080519060200190929190505050600160006101000a81548173ffffffffffffffffffffffffffffffffffffffff021916908373ffffffffffffffffffffffffffffffffffffffff1602179055506000600160009054906101000a900473ffffffffffffffffffffffffffffffffffffffff1673ffffffffffffffffffffffffffffffffffffffff166370a08231836040518263ffffffff167c0100000000000000000000000000000000000000000000000000000000028152600401808273ffffffffffffffffffffffffffffffffffffffff1673ffffffffffffffffffffffffffffffffffffffff168152602001915050602060405180830381600087803b1580156107f357600080fd5b505af1158015610807573d6000803e3d6000fd5b505050506040513d602081101561081d57600080fd5b810190808051906020019092919050505014151561083a57600080fd5b5b600060019054906101000a900473ffffffffffffffffffffffffffffffffffffffff1673ffffffffffffffffffffffffffffffffffffffff1663ca446dd9878760405180807f636f6e74726163742e6e616d6500000000000000000000000000000000000000815250600d018383808284378201915050925050506040518091039020866040518363ffffffff167c01000000000000000000000000000000000000000000000000000000000281526004018083600019166000191681526020018273ffffffffffffffffffffffffffffffffffffffff1673ffffffffffffffffffffffffffffffffffffffff16815260200192505050600060405180830381600087803b15801561094c57600080fd5b505af1158015610960573d6000803e3d6000fd5b50505050600060019054906101000a900473ffffffffffffffffffffffffffffffffffffffff1673ffffffffffffffffffffffffffffffffffffffff1663ca446dd98560405180807f636f6e74726163742e61646472657373000000000000000000000000000000008152506010018273ffffffffffffffffffffffffffffffffffffffff1673ffffffffffffffffffffffffffffffffffffffff166c010000000000000000000000000281526014019150506040518091039020866040518363ffffffff167c01000000000000000000000000000000000000000000000000000000000281526004018083600019166000191681526020018273ffffffffffffffffffffffffffffffffffffffff1673ffffffffffffffffffffffffffffffffffffffff16815260200192505050600060405180830381600087803b158015610aa957600080fd5b505af1158015610abd573d6000803e3d6000fd5b50505050600060019054906101000a900473ffffffffffffffffffffffffffffffffffffffff1673ffffffffffffffffffffffffffffffffffffffff16630e14a3768260405180807f636f6e74726163742e61646472657373000000000000000000000000000000008152506010018273ffffffffffffffffffffffffffffffffffffffff1673ffffffffffffffffffffffffffffffffffffffff166c0100000000000000000000000002815260140191505060405180910390206040518263ffffffff167c0100000000000000000000000000000000000000000000000000000000028152600401808260001916600019168152602001915050600060405180830381600087803b158015610bd257600080fd5b505af1158015610be6573d6000803e3d6000fd5b505050508373ffffffffffffffffffffffffffffffffffffffff168173ffffffffffffffffffffffffffffffffffffffff167f81daf9335a6378204a43cc5467ad9282348d3864c1e3788e40b879f41b187aa5426040518082815260200191505060405180910390a3505050505050565b6000809054906101000a900460ff1681565b600080610cab6040805190810160405280600581526020017f6f776e65720000000000000000000000000000000000000000000000000000008152503361125e565b60008373ffffffffffffffffffffffffffffffffffffffff1614151515610cd157600080fd5b600060019054906101000a900473ffffffffffffffffffffffffffffffffffffffff1673ffffffffffffffffffffffffffffffffffffffff166321f8a721868660405180807f636f6e74726163742e6e616d6500000000000000000000000000000000000000815250600d0183838082843782019150509250505060405180910390206040518263ffffffff167c0100000000000000000000000000000000000000000000000000000000028152600401808260001916600019168152602001915050602060405180830381600087803b158015610dae57600080fd5b505af1158015610dc2573d6000803e3d6000fd5b505050506040513d6020811015610dd857600080fd5b8101908080519060200190929190505050915060008273ffffffffffffffffffffffffffffffffffffffff16141515610e1057600080fd5b600060019054906101000a900473ffffffffffffffffffffffffffffffffffffffff1673ffffffffffffffffffffffffffffffffffffffff166321f8a7218460405180807f636f6e74726163742e61646472657373000000000000000000000000000000008152506010018273ffffffffffffffffffffffffffffffffffffffff1673ffffffffffffffffffffffffffffffffffffffff166c0100000000000000000000000002815260140191505060405180910390206040518263ffffffff167c0100000000000000000000000000000000000000000000000000000000028152600401808260001916600019168152602001915050602060405180830381600087803b158015610f2157600080fd5b505af1158015610f35573d6000803e3d6000fd5b505050506040513d6020811015610f4b57600080fd5b8101908080519060200190929190505050905060008173ffffffffffffffffffffffffffffffffffffffff16141515610f8357600080fd5b600060019054906101000a900473ffffffffffffffffffffffffffffffffffffffff1673ffffffffffffffffffffffffffffffffffffffff1663ca446dd9868660405180807f636f6e74726163742e6e616d6500000000000000000000000000000000000000815250600d018383808284378201915050925050506040518091039020856040518363ffffffff167c01000000000000000000000000000000000000000000000000000000000281526004018083600019166000191681526020018273ffffffffffffffffffffffffffffffffffffffff1673ffffffffffffffffffffffffffffffffffffffff16815260200192505050600060405180830381600087803b15801561109457600080fd5b505af11580156110a8573d6000803e3d6000fd5b50505050600060019054906101000a900473ffffffffffffffffffffffffffffffffffffffff1673ffffffffffffffffffffffffffffffffffffffff1663ca446dd98460405180807f636f6e74726163742e61646472657373000000000000000000000000000000008152506010018273ffffffffffffffffffffffffffffffffffffffff1673ffffffffffffffffffffffffffffffffffffffff166c010000000000000000000000000281526014019150506040518091039020856040518363ffffffff167c01000000000000000000000000000000000000000000000000000000000281526004018083600019166000191681526020018273ffffffffffffffffffffffffffffffffffffffff1673ffffffffffffffffffffffffffffffffffffffff16815260200192505050600060405180830381600087803b1580156111f157600080fd5b505af1158015611205573d6000803e3d6000fd5b505050508273ffffffffffffffffffffffffffffffffffffffff167ff5258aee5f005d2bd983df8c969cd8db92fce883ceeab8c8a3f1e2f71aecb7ac426040518082815260200191505060405180910390a25050505050565b6001151561126c838361127e565b151514151561127a57600080fd5b5050565b60008060019054906101000a900473ffffffffffffffffffffffffffffffffffffffff1673ffffffffffffffffffffffffffffffffffffffff16637ae1cfca848460405180807f6163636573732e726f6c65000000000000000000000000000000000000000000815250600b0183805190602001908083835b60208310151561131c57805182526020820191506020810190506020830392506112f7565b6001836020036101000a0380198251168184511680821785525050505050509050018273ffffffffffffffffffffffffffffffffffffffff1673ffffffffffffffffffffffffffffffffffffffff166c010000000000000000000000000281526014019250505060405180910390206040518263ffffffff167c0100000000000000000000000000000000000000000000000000000000028152600401808260001916600019168152602001915050602060405180830381600087803b1580156113e557600080fd5b505af11580156113f9573d6000803e3d6000fd5b505050506040513d602081101561140f57600080fd5b81019080805190602001909291905050509050929150505600a165627a7a723058203ff5ef5ce5e8227344c0430fb04b44751eb559211d27dbb642850fa02ffb431a0029",
  "source": "pragma solidity ^0.4.23;\n\nimport \"./DemoBase.sol\";\nimport \"./DemoStorage.sol\";\nimport \"../interface/ERC20.sol\";\n\n// 合约更新\ncontract DemoUpgrade is DemoBase{\n    \n    ERC20 tokenContract = ERC20(0);\n\n    event ContractUpgraded(\n        address indexed _oldContractAddress,\n        address indexed _newContractAddress,\n        uint256 created\n    );\n\n    event ContractAdded( \n        address indexed _contractAddress,\n        uint256 created\n    );\n\n    constructor (address _demoStorageAddress) DemoBase (_demoStorageAddress) public {\n        version = 1;\n    }\n\n    // 合约升级方法\n\n    // _name 合约名\n    // _upgradedContractAddress 新的合约地址\n    // _forceEther`\n    function upgradeContract(string _name,address _upgradedContractAddress,bool _forceEther,bool _forceTokens) onlyOwner external {\n        // 获取到要替换的合约\n        address oldContractAddress = demoStorage.getAddress(keccak256(\"contract.name\",_name));\n        //检查是否存在\n        require(oldContractAddress != 0x0);\n\n        require(oldContractAddress != _upgradedContractAddress);\n\n        // 非强制升级需要检查旧合约有没有余额\n        if(!_forceEther){\n            require(oldContractAddress.balance == 0);\n        }\n\n        if(!_forceTokens){\n            tokenContract = ERC20(demoStorage.getAddress(keccak256(\"contract.name\",\"demoToken1\")));\n            require(tokenContract.balanceOf(oldContractAddress) == 0);\n\n            tokenContract = ERC20(demoStorage.getAddress(keccak256(\"contract.name\",\"demoToken2\")));\n            require(tokenContract.balanceOf(oldContractAddress) == 0);\n        }\n\n        demoStorage.setAddress(keccak256(\"contract.name\",_name),_upgradedContractAddress);\n\n        demoStorage.setAddress(keccak256(\"contract.address\",_upgradedContractAddress),_upgradedContractAddress);\n\n        demoStorage.deleteAddress(keccak256(\"contract.address\",oldContractAddress));\n\n        emit ContractUpgraded(oldContractAddress,_upgradedContractAddress,now);\n\n    }\n\n    function addContract(string _name,address _contractAddress) onlyOwner external{\n        require(_contractAddress != 0x0);\n\n        // 检查名称没有被占用\n        address existingContractName = demoStorage.getAddress(keccak256(\"contract.name\",_name));\n        require(existingContractName == 0x0);\n\n        //检查地址，确保新合约地址没有出现过\n        address existingContractAddress = demoStorage.getAddress(keccak256(\"contract.address\",_contractAddress));\n        require(existingContractAddress == 0x0);\n\n        // 将合约名称和地址存储到storage\n        demoStorage.setAddress(keccak256(\"contract.name\",_name),_contractAddress);\n        demoStorage.setAddress(keccak256(\"contract.address\",_contractAddress),_contractAddress);\n\n        emit ContractAdded(_contractAddress,now);\n    }\n}",
  "sourcePath": "/home/a186r/develop/truffled/demo/contracts/DemoUpgrade.sol",
  "compiler": {
    "name": "solc",
    "version": "0.4.23+commit.124ca40d.Emscripten.clang"
  },
  "schemaVersion": "2.0.0",
  "updatedAt": "2018-05-25T09:05:01.283Z"
}