{
  "contractName": "DemoBase",
  "abi": [
    {
      "constant": true,
      "inputs": [],
      "name": "version",
      "outputs": [
        {
          "name": "",
          "type": "uint8"
        }
      ],
      "payable": false,
      "stateMutability": "view",
      "type": "function"
    },
    {
      "inputs": [
        {
          "name": "_demoStorageAddress",
          "type": "address"
        }
      ],
      "payable": false,
      "stateMutability": "nonpayable",
      "type": "constructor"
    }
  ],
  "bytecode": "0x608060405260008060016101000a81548173ffffffffffffffffffffffffffffffffffffffff021916908373ffffffffffffffffffffffffffffffffffffffff16021790555034801561005157600080fd5b506040516020806101748339810180604052810190808051906020019092919050505080600060016101000a81548173ffffffffffffffffffffffffffffffffffffffff021916908373ffffffffffffffffffffffffffffffffffffffff1602179055505060b0806100c46000396000f300608060405260043610603f576000357c0100000000000000000000000000000000000000000000000000000000900463ffffffff16806354fd4d50146044575b600080fd5b348015604f57600080fd5b5060566072565b604051808260ff1660ff16815260200191505060405180910390f35b6000809054906101000a900460ff16815600a165627a7a723058204852c610f56b00602e2d47f59f4f7e62fc23ae4c041c74a4ac2cebc7a0075d7e0029",
  "source": "pragma solidity ^0.4.23;\n\nimport \"../interface/DemoStorageInterface.sol\";\n\ncontract DemoBase {\n    uint8 public version;   //版本号\n\n    DemoStorageInterface demoStorage = DemoStorageInterface(0); \n\n    modifier onlyOwner(){\n        roleCheck(\"owner\",msg.sender);\n        _;\n    }\n\n    modifier onlyAdmin(){\n        roleCheck(\"admin\",msg.sender);\n        _;\n    }\n\n    modifier onlySuperUser(){\n        require(roleHas(\"owner\",msg.sender) || roleHas(\"admin\",msg.sender));\n        _;\n    }\n\n    modifier onlyRole(string _role){\n        roleCheck(_role,msg.sender);\n        _;\n    }\n\n    constructor (address _demoStorageAddress) public {\n        demoStorage = DemoStorageInterface(_demoStorageAddress);\n    }\n\n    // 工具方法\n    function roleHas(string _role,address _address) internal view returns (bool){\n        return demoStorage.getBool(keccak256(\"access.role\",_role,_address));\n    }\n\n    function roleCheck(string _role,address _address)view internal {\n        require(roleHas(_role,_address) == true);\n    }\n\n}",
  "sourcePath": "/home/a186r/develop/truffled/demo/contracts/DemoBase.sol",
  "compiler": {
    "name": "solc",
    "version": "0.4.23+commit.124ca40d.Emscripten.clang"
  },
  "schemaVersion": "2.0.0",
  "updatedAt": "2018-05-25T10:42:16.213Z"
}