{
  "contractName": "DemoStorage",
  "abi": [
    {
      "inputs": [],
      "payable": false,
      "stateMutability": "nonpayable",
      "type": "constructor"
    },
    {
      "constant": true,
      "inputs": [
        {
          "name": "_key",
          "type": "bytes32"
        }
      ],
      "name": "getAddress",
      "outputs": [
        {
          "name": "",
          "type": "address"
        }
      ],
      "payable": false,
      "stateMutability": "view",
      "type": "function"
    },
    {
      "constant": true,
      "inputs": [
        {
          "name": "_key",
          "type": "bytes32"
        }
      ],
      "name": "getUint",
      "outputs": [
        {
          "name": "",
          "type": "uint256"
        }
      ],
      "payable": false,
      "stateMutability": "view",
      "type": "function"
    },
    {
      "constant": true,
      "inputs": [
        {
          "name": "_key",
          "type": "bytes32"
        }
      ],
      "name": "getString",
      "outputs": [
        {
          "name": "",
          "type": "string"
        }
      ],
      "payable": false,
      "stateMutability": "view",
      "type": "function"
    },
    {
      "constant": true,
      "inputs": [
        {
          "name": "_key",
          "type": "bytes32"
        }
      ],
      "name": "getBytes",
      "outputs": [
        {
          "name": "",
          "type": "bytes"
        }
      ],
      "payable": false,
      "stateMutability": "view",
      "type": "function"
    },
    {
      "constant": true,
      "inputs": [
        {
          "name": "_key",
          "type": "bytes32"
        }
      ],
      "name": "getBool",
      "outputs": [
        {
          "name": "",
          "type": "bool"
        }
      ],
      "payable": false,
      "stateMutability": "view",
      "type": "function"
    },
    {
      "constant": true,
      "inputs": [
        {
          "name": "_key",
          "type": "bytes32"
        }
      ],
      "name": "getInt",
      "outputs": [
        {
          "name": "",
          "type": "int256"
        }
      ],
      "payable": false,
      "stateMutability": "view",
      "type": "function"
    },
    {
      "constant": false,
      "inputs": [
        {
          "name": "_key",
          "type": "bytes32"
        },
        {
          "name": "_value",
          "type": "address"
        }
      ],
      "name": "setAddress",
      "outputs": [],
      "payable": false,
      "stateMutability": "nonpayable",
      "type": "function"
    },
    {
      "constant": false,
      "inputs": [
        {
          "name": "_key",
          "type": "bytes32"
        },
        {
          "name": "_value",
          "type": "uint256"
        }
      ],
      "name": "setUint",
      "outputs": [],
      "payable": false,
      "stateMutability": "nonpayable",
      "type": "function"
    },
    {
      "constant": false,
      "inputs": [
        {
          "name": "_key",
          "type": "bytes32"
        },
        {
          "name": "_value",
          "type": "string"
        }
      ],
      "name": "setString",
      "outputs": [],
      "payable": false,
      "stateMutability": "nonpayable",
      "type": "function"
    },
    {
      "constant": false,
      "inputs": [
        {
          "name": "_key",
          "type": "bytes32"
        },
        {
          "name": "_value",
          "type": "bytes"
        }
      ],
      "name": "setBytes",
      "outputs": [],
      "payable": false,
      "stateMutability": "nonpayable",
      "type": "function"
    },
    {
      "constant": false,
      "inputs": [
        {
          "name": "_key",
          "type": "bytes32"
        },
        {
          "name": "_value",
          "type": "bool"
        }
      ],
      "name": "setBool",
      "outputs": [],
      "payable": false,
      "stateMutability": "nonpayable",
      "type": "function"
    },
    {
      "constant": false,
      "inputs": [
        {
          "name": "_key",
          "type": "bytes32"
        },
        {
          "name": "_value",
          "type": "int256"
        }
      ],
      "name": "setInt",
      "outputs": [],
      "payable": false,
      "stateMutability": "nonpayable",
      "type": "function"
    },
    {
      "constant": false,
      "inputs": [
        {
          "name": "_key",
          "type": "bytes32"
        }
      ],
      "name": "deleteAddress",
      "outputs": [],
      "payable": false,
      "stateMutability": "nonpayable",
      "type": "function"
    },
    {
      "constant": false,
      "inputs": [
        {
          "name": "_key",
          "type": "bytes32"
        }
      ],
      "name": "deleteUint",
      "outputs": [],
      "payable": false,
      "stateMutability": "nonpayable",
      "type": "function"
    },
    {
      "constant": false,
      "inputs": [
        {
          "name": "_key",
          "type": "bytes32"
        }
      ],
      "name": "deleteString",
      "outputs": [],
      "payable": false,
      "stateMutability": "nonpayable",
      "type": "function"
    },
    {
      "constant": false,
      "inputs": [
        {
          "name": "_key",
          "type": "bytes32"
        }
      ],
      "name": "deleteBytes",
      "outputs": [],
      "payable": false,
      "stateMutability": "nonpayable",
      "type": "function"
    },
    {
      "constant": false,
      "inputs": [
        {
          "name": "_key",
          "type": "bytes32"
        }
      ],
      "name": "deleteBool",
      "outputs": [],
      "payable": false,
      "stateMutability": "nonpayable",
      "type": "function"
    },
    {
      "constant": false,
      "inputs": [
        {
          "name": "_key",
          "type": "bytes32"
        }
      ],
      "name": "deleteInt",
      "outputs": [],
      "payable": false,
      "stateMutability": "nonpayable",
      "type": "function"
    }
  ],
  "bytecode": "0x608060405234801561001057600080fd5b506001600360003360405160200180807f6163636573732e726f6c65000000000000000000000000000000000000000000815250600b01807f6f776e65720000000000000000000000000000000000000000000000000000008152506005018273ffffffffffffffffffffffffffffffffffffffff1673ffffffffffffffffffffffffffffffffffffffff166c010000000000000000000000000281526014019150506040516020818303038152906040526040518082805190602001908083835b6020831015156100f757805182526020820191506020810190506020830392506100d2565b6001836020036101000a03801982511681845116808217855250505050505090500191505060405180910390206000191660001916815260200190815260200160002060006101000a81548160ff021916908315150217905550612602806101606000396000f3006080604052600436106100fc576000357c0100000000000000000000000000000000000000000000000000000000900463ffffffff1680630e14a3761461010157806321f8a721146101325780632c62ff2d146101a35780632e28d084146101d45780633e49bed01461021d578063616b59f6146102585780636e899550146102895780637ae1cfca146102d25780638c1600951461031b578063986e791a1461034c578063abfdcced146103f6578063bd02d0f514610433578063c031a18014610478578063ca446dd914610522578063dc97d96214610573578063e2a4853a146105b8578063e2b202bf146105f3578063f6bb3cc414610624575b600080fd5b34801561010d57600080fd5b506101306004803603810190808035600019169060200190929190505050610655565b005b34801561013e57600080fd5b5061016160048036038101908080356000191690602001909291905050506108b2565b604051808273ffffffffffffffffffffffffffffffffffffffff1673ffffffffffffffffffffffffffffffffffffffff16815260200191505060405180910390f35b3480156101af57600080fd5b506101d260048036038101908080356000191690602001909291905050506108f7565b005b3480156101e057600080fd5b5061021b6004803603810190808035600019169060200190929190803590602001908201803590602001919091929391929390505050610b41565b005b34801561022957600080fd5b50610256600480360381019080803560001916906020019092919080359060200190929190505050610d8d565b005b34801561026457600080fd5b506102876004803603810190808035600019169060200190929190505050610fcd565b005b34801561029557600080fd5b506102d06004803603810190808035600019169060200190929190803590602001908201803590602001919091929391929390505050611213565b005b3480156102de57600080fd5b50610301600480360381019080803560001916906020019092919050505061145f565b604051808215151515815260200191505060405180910390f35b34801561032757600080fd5b5061034a6004803603810190808035600019169060200190929190505050611491565b005b34801561035857600080fd5b5061037b60048036038101908080356000191690602001909291905050506116cf565b6040518080602001828103825283818151815260200191508051906020019080838360005b838110156103bb5780820151818401526020810190506103a0565b50505050905090810190601f1680156103e85780820380516001836020036101000a031916815260200191505b509250505060405180910390f35b34801561040257600080fd5b50610431600480360381019080803560001916906020019092919080351515906020019092919050505061178c565b005b34801561043f57600080fd5b5061046260048036038101908080356000191690602001909291905050506119df565b6040518082815260200191505060405180910390f35b34801561048457600080fd5b506104a76004803603810190808035600019169060200190929190505050611a03565b6040518080602001828103825283818151815260200191508051906020019080838360005b838110156104e75780820151818401526020810190506104cc565b50505050905090810190601f1680156105145780820380516001836020036101000a031916815260200191505b509250505060405180910390f35b34801561052e57600080fd5b506105716004803603810190808035600019169060200190929190803573ffffffffffffffffffffffffffffffffffffffff169060200190929190505050611ac0565b005b34801561057f57600080fd5b506105a26004803603810190808035600019169060200190929190505050611d3a565b6040518082815260200191505060405180910390f35b3480156105c457600080fd5b506105f1600480360381019080803560001916906020019092919080359060200190929190505050611d5f565b005b3480156105ff57600080fd5b506106226004803603810190808035600019169060200190929190505050611f9e565b005b34801561063057600080fd5b5061065360048036038101908080356000191690602001909291905050506121db565b005b600115156003600060405160200180807f636f6e74726163742e73746f726167652e696e697469616c6973656400000000815250601c0190506040516020818303038152906040526040518082805190602001908083835b6020831015156106d257805182526020820191506020810190506020830392506106ad565b6001836020036101000a03801982511681845116808217855250505050505090500191505060405180910390206000191660001916815260200190815260200160002060009054906101000a900460ff1615151415610871576000600260003360405160200180807f636f6e74726163742e61646472657373000000000000000000000000000000008152506010018273ffffffffffffffffffffffffffffffffffffffff1673ffffffffffffffffffffffffffffffffffffffff166c010000000000000000000000000281526014019150506040516020818303038152906040526040518082805190602001908083835b6020831015156107e957805182526020820191506020810190506020830392506107c4565b6001836020036101000a03801982511681845116808217855250505050505090500191505060405180910390206000191660001916815260200190815260200160002060009054906101000a900473ffffffffffffffffffffffffffffffffffffffff1673ffffffffffffffffffffffffffffffffffffffff161415151561087057600080fd5b5b60026000826000191660001916815260200190815260200160002060006101000a81549073ffffffffffffffffffffffffffffffffffffffff021916905550565b600060026000836000191660001916815260200190815260200160002060009054906101000a900473ffffffffffffffffffffffffffffffffffffffff169050919050565b600115156003600060405160200180807f636f6e74726163742e73746f726167652e696e697469616c6973656400000000815250601c0190506040516020818303038152906040526040518082805190602001908083835b602083101515610974578051825260208201915060208101905060208303925061094f565b6001836020036101000a03801982511681845116808217855250505050505090500191505060405180910390206000191660001916815260200190815260200160002060009054906101000a900460ff1615151415610b13576000600260003360405160200180807f636f6e74726163742e61646472657373000000000000000000000000000000008152506010018273ffffffffffffffffffffffffffffffffffffffff1673ffffffffffffffffffffffffffffffffffffffff166c010000000000000000000000000281526014019150506040516020818303038152906040526040518082805190602001908083835b602083101515610a8b5780518252602082019150602081019050602083039250610a66565b6001836020036101000a03801982511681845116808217855250505050505090500191505060405180910390206000191660001916815260200190815260200160002060009054906101000a900473ffffffffffffffffffffffffffffffffffffffff1673ffffffffffffffffffffffffffffffffffffffff1614151515610b1257600080fd5b5b60036000826000191660001916815260200190815260200160002060006101000a81549060ff021916905550565b600115156003600060405160200180807f636f6e74726163742e73746f726167652e696e697469616c6973656400000000815250601c0190506040516020818303038152906040526040518082805190602001908083835b602083101515610bbe5780518252602082019150602081019050602083039250610b99565b6001836020036101000a03801982511681845116808217855250505050505090500191505060405180910390206000191660001916815260200190815260200160002060009054906101000a900460ff1615151415610d5d576000600260003360405160200180807f636f6e74726163742e61646472657373000000000000000000000000000000008152506010018273ffffffffffffffffffffffffffffffffffffffff1673ffffffffffffffffffffffffffffffffffffffff166c010000000000000000000000000281526014019150506040516020818303038152906040526040518082805190602001908083835b602083101515610cd55780518252602082019150602081019050602083039250610cb0565b6001836020036101000a03801982511681845116808217855250505050505090500191505060405180910390206000191660001916815260200190815260200160002060009054906101000a900473ffffffffffffffffffffffffffffffffffffffff1673ffffffffffffffffffffffffffffffffffffffff1614151515610d5c57600080fd5b5b81816004600086600019166000191681526020019081526020016000209190610d87929190612421565b50505050565b600115156003600060405160200180807f636f6e74726163742e73746f726167652e696e697469616c6973656400000000815250601c0190506040516020818303038152906040526040518082805190602001908083835b602083101515610e0a5780518252602082019150602081019050602083039250610de5565b6001836020036101000a03801982511681845116808217855250505050505090500191505060405180910390206000191660001916815260200190815260200160002060009054906101000a900460ff1615151415610fa9576000600260003360405160200180807f636f6e74726163742e61646472657373000000000000000000000000000000008152506010018273ffffffffffffffffffffffffffffffffffffffff1673ffffffffffffffffffffffffffffffffffffffff166c010000000000000000000000000281526014019150506040516020818303038152906040526040518082805190602001908083835b602083101515610f215780518252602082019150602081019050602083039250610efc565b6001836020036101000a03801982511681845116808217855250505050505090500191505060405180910390206000191660001916815260200190815260200160002060009054906101000a900473ffffffffffffffffffffffffffffffffffffffff1673ffffffffffffffffffffffffffffffffffffffff1614151515610fa857600080fd5b5b80600560008460001916600019168152602001908152602001600020819055505050565b600115156003600060405160200180807f636f6e74726163742e73746f726167652e696e697469616c6973656400000000815250601c0190506040516020818303038152906040526040518082805190602001908083835b60208310151561104a5780518252602082019150602081019050602083039250611025565b6001836020036101000a03801982511681845116808217855250505050505090500191505060405180910390206000191660001916815260200190815260200160002060009054906101000a900460ff16151514156111e9576000600260003360405160200180807f636f6e74726163742e61646472657373000000000000000000000000000000008152506010018273ffffffffffffffffffffffffffffffffffffffff1673ffffffffffffffffffffffffffffffffffffffff166c010000000000000000000000000281526014019150506040516020818303038152906040526040518082805190602001908083835b602083101515611161578051825260208201915060208101905060208303925061113c565b6001836020036101000a03801982511681845116808217855250505050505090500191505060405180910390206000191660001916815260200190815260200160002060009054906101000a900473ffffffffffffffffffffffffffffffffffffffff1673ffffffffffffffffffffffffffffffffffffffff16141515156111e857600080fd5b5b600460008260001916600019168152602001908152602001600020600061121091906124a1565b50565b600115156003600060405160200180807f636f6e74726163742e73746f726167652e696e697469616c6973656400000000815250601c0190506040516020818303038152906040526040518082805190602001908083835b602083101515611290578051825260208201915060208101905060208303925061126b565b6001836020036101000a03801982511681845116808217855250505050505090500191505060405180910390206000191660001916815260200190815260200160002060009054906101000a900460ff161515141561142f576000600260003360405160200180807f636f6e74726163742e61646472657373000000000000000000000000000000008152506010018273ffffffffffffffffffffffffffffffffffffffff1673ffffffffffffffffffffffffffffffffffffffff166c010000000000000000000000000281526014019150506040516020818303038152906040526040518082805190602001908083835b6020831015156113a75780518252602082019150602081019050602083039250611382565b6001836020036101000a03801982511681845116808217855250505050505090500191505060405180910390206000191660001916815260200190815260200160002060009054906101000a900473ffffffffffffffffffffffffffffffffffffffff1673ffffffffffffffffffffffffffffffffffffffff161415151561142e57600080fd5b5b818160016000866000191660001916815260200190815260200160002091906114599291906124e9565b50505050565b600060036000836000191660001916815260200190815260200160002060009054906101000a900460ff169050919050565b600115156003600060405160200180807f636f6e74726163742e73746f726167652e696e697469616c6973656400000000815250601c0190506040516020818303038152906040526040518082805190602001908083835b60208310151561150e57805182526020820191506020810190506020830392506114e9565b6001836020036101000a03801982511681845116808217855250505050505090500191505060405180910390206000191660001916815260200190815260200160002060009054906101000a900460ff16151514156116ad576000600260003360405160200180807f636f6e74726163742e61646472657373000000000000000000000000000000008152506010018273ffffffffffffffffffffffffffffffffffffffff1673ffffffffffffffffffffffffffffffffffffffff166c010000000000000000000000000281526014019150506040516020818303038152906040526040518082805190602001908083835b6020831015156116255780518252602082019150602081019050602083039250611600565b6001836020036101000a03801982511681845116808217855250505050505090500191505060405180910390206000191660001916815260200190815260200160002060009054906101000a900473ffffffffffffffffffffffffffffffffffffffff1673ffffffffffffffffffffffffffffffffffffffff16141515156116ac57600080fd5b5b6005600082600019166000191681526020019081526020016000206000905550565b60606001600083600019166000191681526020019081526020016000208054600181600116156101000203166002900480601f0160208091040260200160405190810160405280929190818152602001828054600181600116156101000203166002900480156117805780601f1061175557610100808354040283529160200191611780565b820191906000526020600020905b81548152906001019060200180831161176357829003601f168201915b50505050509050919050565b600115156003600060405160200180807f636f6e74726163742e73746f726167652e696e697469616c6973656400000000815250601c0190506040516020818303038152906040526040518082805190602001908083835b60208310151561180957805182526020820191506020810190506020830392506117e4565b6001836020036101000a03801982511681845116808217855250505050505090500191505060405180910390206000191660001916815260200190815260200160002060009054906101000a900460ff16151514156119a8576000600260003360405160200180807f636f6e74726163742e61646472657373000000000000000000000000000000008152506010018273ffffffffffffffffffffffffffffffffffffffff1673ffffffffffffffffffffffffffffffffffffffff166c010000000000000000000000000281526014019150506040516020818303038152906040526040518082805190602001908083835b60208310151561192057805182526020820191506020810190506020830392506118fb565b6001836020036101000a03801982511681845116808217855250505050505090500191505060405180910390206000191660001916815260200190815260200160002060009054906101000a900473ffffffffffffffffffffffffffffffffffffffff1673ffffffffffffffffffffffffffffffffffffffff16141515156119a757600080fd5b5b8060036000846000191660001916815260200190815260200160002060006101000a81548160ff0219169083151502179055505050565b60008060008360001916600019168152602001908152602001600020549050919050565b60606004600083600019166000191681526020019081526020016000208054600181600116156101000203166002900480601f016020809104026020016040519081016040528092919081815260200182805460018160011615610100020316600290048015611ab45780601f10611a8957610100808354040283529160200191611ab4565b820191906000526020600020905b815481529060010190602001808311611a9757829003601f168201915b50505050509050919050565b600115156003600060405160200180807f636f6e74726163742e73746f726167652e696e697469616c6973656400000000815250601c0190506040516020818303038152906040526040518082805190602001908083835b602083101515611b3d5780518252602082019150602081019050602083039250611b18565b6001836020036101000a03801982511681845116808217855250505050505090500191505060405180910390206000191660001916815260200190815260200160002060009054906101000a900460ff1615151415611cdc576000600260003360405160200180807f636f6e74726163742e61646472657373000000000000000000000000000000008152506010018273ffffffffffffffffffffffffffffffffffffffff1673ffffffffffffffffffffffffffffffffffffffff166c010000000000000000000000000281526014019150506040516020818303038152906040526040518082805190602001908083835b602083101515611c545780518252602082019150602081019050602083039250611c2f565b6001836020036101000a03801982511681845116808217855250505050505090500191505060405180910390206000191660001916815260200190815260200160002060009054906101000a900473ffffffffffffffffffffffffffffffffffffffff1673ffffffffffffffffffffffffffffffffffffffff1614151515611cdb57600080fd5b5b8060026000846000191660001916815260200190815260200160002060006101000a81548173ffffffffffffffffffffffffffffffffffffffff021916908373ffffffffffffffffffffffffffffffffffffffff1602179055505050565b6000600560008360001916600019168152602001908152602001600020549050919050565b600115156003600060405160200180807f636f6e74726163742e73746f726167652e696e697469616c6973656400000000815250601c0190506040516020818303038152906040526040518082805190602001908083835b602083101515611ddc5780518252602082019150602081019050602083039250611db7565b6001836020036101000a03801982511681845116808217855250505050505090500191505060405180910390206000191660001916815260200190815260200160002060009054906101000a900460ff1615151415611f7b576000600260003360405160200180807f636f6e74726163742e61646472657373000000000000000000000000000000008152506010018273ffffffffffffffffffffffffffffffffffffffff1673ffffffffffffffffffffffffffffffffffffffff166c010000000000000000000000000281526014019150506040516020818303038152906040526040518082805190602001908083835b602083101515611ef35780518252602082019150602081019050602083039250611ece565b6001836020036101000a03801982511681845116808217855250505050505090500191505060405180910390206000191660001916815260200190815260200160002060009054906101000a900473ffffffffffffffffffffffffffffffffffffffff1673ffffffffffffffffffffffffffffffffffffffff1614151515611f7a57600080fd5b5b806000808460001916600019168152602001908152602001600020819055505050565b600115156003600060405160200180807f636f6e74726163742e73746f726167652e696e697469616c6973656400000000815250601c0190506040516020818303038152906040526040518082805190602001908083835b60208310151561201b5780518252602082019150602081019050602083039250611ff6565b6001836020036101000a03801982511681845116808217855250505050505090500191505060405180910390206000191660001916815260200190815260200160002060009054906101000a900460ff16151514156121ba576000600260003360405160200180807f636f6e74726163742e61646472657373000000000000000000000000000000008152506010018273ffffffffffffffffffffffffffffffffffffffff1673ffffffffffffffffffffffffffffffffffffffff166c010000000000000000000000000281526014019150506040516020818303038152906040526040518082805190602001908083835b602083101515612132578051825260208201915060208101905060208303925061210d565b6001836020036101000a03801982511681845116808217855250505050505090500191505060405180910390206000191660001916815260200190815260200160002060009054906101000a900473ffffffffffffffffffffffffffffffffffffffff1673ffffffffffffffffffffffffffffffffffffffff16141515156121b957600080fd5b5b60008082600019166000191681526020019081526020016000206000905550565b600115156003600060405160200180807f636f6e74726163742e73746f726167652e696e697469616c6973656400000000815250601c0190506040516020818303038152906040526040518082805190602001908083835b6020831015156122585780518252602082019150602081019050602083039250612233565b6001836020036101000a03801982511681845116808217855250505050505090500191505060405180910390206000191660001916815260200190815260200160002060009054906101000a900460ff16151514156123f7576000600260003360405160200180807f636f6e74726163742e61646472657373000000000000000000000000000000008152506010018273ffffffffffffffffffffffffffffffffffffffff1673ffffffffffffffffffffffffffffffffffffffff166c010000000000000000000000000281526014019150506040516020818303038152906040526040518082805190602001908083835b60208310151561236f578051825260208201915060208101905060208303925061234a565b6001836020036101000a03801982511681845116808217855250505050505090500191505060405180910390206000191660001916815260200190815260200160002060009054906101000a900473ffffffffffffffffffffffffffffffffffffffff1673ffffffffffffffffffffffffffffffffffffffff16141515156123f657600080fd5b5b600160008260001916600019168152602001908152602001600020600061241e9190612569565b50565b828054600181600116156101000203166002900490600052602060002090601f016020900481019282601f1061246257803560ff1916838001178555612490565b82800160010185558215612490579182015b8281111561248f578235825591602001919060010190612474565b5b50905061249d91906125b1565b5090565b50805460018160011615610100020316600290046000825580601f106124c757506124e6565b601f0160209004906000526020600020908101906124e591906125b1565b5b50565b828054600181600116156101000203166002900490600052602060002090601f016020900481019282601f1061252a57803560ff1916838001178555612558565b82800160010185558215612558579182015b8281111561255757823582559160200191906001019061253c565b5b50905061256591906125b1565b5090565b50805460018160011615610100020316600290046000825580601f1061258f57506125ae565b601f0160209004906000526020600020908101906125ad91906125b1565b5b50565b6125d391905b808211156125cf5760008160009055506001016125b7565b5090565b905600a165627a7a723058208f14e035904fd80c9fe2f6596e0a1522eaaa133e36955ceb8164ab3364a11ec70029",
  "source": "pragma solidity ^0.4.23;\n\n//\ncontract DemoStorage {\n\n    mapping (bytes32=>uint256) private uIntStorage;\n    mapping (bytes32=>string) private stringStorage;\n    mapping (bytes32=>address) private addressStorage;\n    mapping (bytes32=>bool) private boolStorage;\n    mapping (bytes32=>bytes) private bytesStorage;\n    mapping (bytes32=>int256) private intStorage;\n\n\n    // Modifiers\n\n// \n    modifier onlyLatestNetworkContract(){\n\n        if(boolStorage[keccak256(abi.encodePacked(\"contract.storage.initialised\"))] == true){\n            require(addressStorage[keccak256(abi.encodePacked(\"contract.address\",msg.sender))] != 0x0);\n        }\n        _;\n    }\n\n    //owner\n    constructor () public {\n        boolStorage[keccak256(abi.encodePacked(\"access.role\",\"owner\",msg.sender))] = true;\n    }\n\n    function getAddress(bytes32 _key) external view returns (address) {\n        return addressStorage[_key];\n    }\n\n    function getUint(bytes32 _key) external view returns (uint) {\n        return uIntStorage[_key];\n    }\n\n    function getString(bytes32 _key) external view returns (string) {\n        return stringStorage[_key];\n    }\n\n    function getBytes(bytes32 _key) external view returns (bytes) {\n        return bytesStorage[_key];\n    }\n\n    function getBool(bytes32 _key) external view returns (bool) {\n        return boolStorage[_key];\n    }\n\n    function getInt(bytes32 _key) external view returns (int) {\n        return intStorage[_key];\n    }\n    \n    /**** Set Methods ***********/\n\n    function setAddress(bytes32 _key, address _value) onlyLatestNetworkContract external {\n        addressStorage[_key] = _value;\n    }\n\n    function setUint(bytes32 _key, uint _value) onlyLatestNetworkContract external {\n        uIntStorage[_key] = _value;\n    }\n\n    function setString(bytes32 _key, string _value) onlyLatestNetworkContract external {\n        stringStorage[_key] = _value;\n    }\n\n    function setBytes(bytes32 _key, bytes _value) onlyLatestNetworkContract external {\n        bytesStorage[_key] = _value;\n    }\n    \n    function setBool(bytes32 _key, bool _value) onlyLatestNetworkContract external {\n        boolStorage[_key] = _value;\n    }\n    \n    function setInt(bytes32 _key, int _value) onlyLatestNetworkContract external {\n        intStorage[_key] = _value;\n    }\n\n    /**** Delete Methods ***********/\n    \n    function deleteAddress(bytes32 _key) onlyLatestNetworkContract external {\n        delete addressStorage[_key];\n    }\n\n    function deleteUint(bytes32 _key) onlyLatestNetworkContract external {\n        delete uIntStorage[_key];\n    }\n\n    function deleteString(bytes32 _key) onlyLatestNetworkContract external {\n        delete stringStorage[_key];\n    }\n\n    function deleteBytes(bytes32 _key) onlyLatestNetworkContract external {\n        delete bytesStorage[_key];\n    }\n    \n    function deleteBool(bytes32 _key) onlyLatestNetworkContract external {\n        delete boolStorage[_key];\n    }\n    \n    function deleteInt(bytes32 _key) onlyLatestNetworkContract external {\n        delete intStorage[_key];\n    }\n}",
  "sourcePath": "/home/a186r/develop/truffled/scdemo/contracts/DemoStorage.sol",
  "compiler": {
    "name": "solc",
    "version": "0.4.23+commit.124ca40d.Emscripten.clang"
  },
  "schemaVersion": "2.0.0",
  "updatedAt": "2018-06-11T09:11:15.785Z"
}