{
  "contractName": "Test3Contract",
  "abi": [
    {
      "constant": true,
      "inputs": [],
      "name": "version",
      "outputs": [
        {
          "name": "",
          "type": "uint8"
        }
      ],
      "payable": false,
      "stateMutability": "view",
      "type": "function"
    },
    {
      "inputs": [
        {
          "name": "_demoStorageAddress",
          "type": "address"
        }
      ],
      "payable": false,
      "stateMutability": "nonpayable",
      "type": "constructor"
    },
    {
      "constant": false,
      "inputs": [
        {
          "name": "_num",
          "type": "uint256"
        }
      ],
      "name": "setTest2Num1",
      "outputs": [],
      "payable": false,
      "stateMutability": "nonpayable",
      "type": "function"
    },
    {
      "constant": true,
      "inputs": [],
      "name": "getTest2Num1",
      "outputs": [
        {
          "name": "",
          "type": "uint256"
        }
      ],
      "payable": false,
      "stateMutability": "view",
      "type": "function"
    },
    {
      "constant": false,
      "inputs": [
        {
          "name": "_num",
          "type": "uint256"
        }
      ],
      "name": "setTestNum1",
      "outputs": [],
      "payable": false,
      "stateMutability": "nonpayable",
      "type": "function"
    },
    {
      "constant": true,
      "inputs": [],
      "name": "getTestNum1",
      "outputs": [
        {
          "name": "",
          "type": "uint256"
        }
      ],
      "payable": false,
      "stateMutability": "view",
      "type": "function"
    },
    {
      "constant": true,
      "inputs": [],
      "name": "getTest1Num1",
      "outputs": [
        {
          "name": "",
          "type": "uint256"
        }
      ],
      "payable": false,
      "stateMutability": "view",
      "type": "function"
    },
    {
      "constant": true,
      "inputs": [],
      "name": "getTest1Num2",
      "outputs": [
        {
          "name": "",
          "type": "uint256"
        }
      ],
      "payable": false,
      "stateMutability": "view",
      "type": "function"
    }
  ],
  "bytecode": "0x608060405260008060016101000a81548173ffffffffffffffffffffffffffffffffffffffff021916908373ffffffffffffffffffffffffffffffffffffffff16021790555034801561005157600080fd5b50604051602080610bc7833981018060405281019080805190602001909291905050508080600060016101000a81548173ffffffffffffffffffffffffffffffffffffffff021916908373ffffffffffffffffffffffffffffffffffffffff1602179055505060016000806101000a81548160ff021916908360ff16021790555050610ae5806100e26000396000f300608060405260043610610083576000357c0100000000000000000000000000000000000000000000000000000000900463ffffffff16806326c96b551461008857806354fd4d50146100b35780636fe1aa71146100e45780637440e8f51461010f57806391fe87c71461013a578063f8d5638b14610167578063f8e98d5314610194575b600080fd5b34801561009457600080fd5b5061009d6101bf565b6040518082815260200191505060405180910390f35b3480156100bf57600080fd5b506100c86102ce565b604051808260ff1660ff16815260200191505060405180910390f35b3480156100f057600080fd5b506100f96102e0565b6040518082815260200191505060405180910390f35b34801561011b57600080fd5b506101246103ef565b6040518082815260200191505060405180910390f35b34801561014657600080fd5b50610165600480360381019080803590602001909291905050506104fe565b005b34801561017357600080fd5b506101926004803603810190808035906020019092919050505061067f565b005b3480156101a057600080fd5b506101a9610800565b6040518082815260200191505060405180910390f35b60008060019054906101000a900473ffffffffffffffffffffffffffffffffffffffff1673ffffffffffffffffffffffffffffffffffffffff1663bd02d0f560405180807f746573742e6e756d2e3100000000000000000000000000000000000000000000815250600a01905060405180910390206040518263ffffffff167c0100000000000000000000000000000000000000000000000000000000028152600401808260001916600019168152602001915050602060405180830381600087803b15801561028e57600080fd5b505af11580156102a2573d6000803e3d6000fd5b505050506040513d60208110156102b857600080fd5b8101908080519060200190929190505050905090565b6000809054906101000a900460ff1681565b60008060019054906101000a900473ffffffffffffffffffffffffffffffffffffffff1673ffffffffffffffffffffffffffffffffffffffff1663bd02d0f560405180807f74657374312e6e756d2e32000000000000000000000000000000000000000000815250600b01905060405180910390206040518263ffffffff167c0100000000000000000000000000000000000000000000000000000000028152600401808260001916600019168152602001915050602060405180830381600087803b1580156103af57600080fd5b505af11580156103c3573d6000803e3d6000fd5b505050506040513d60208110156103d957600080fd5b8101908080519060200190929190505050905090565b60008060019054906101000a900473ffffffffffffffffffffffffffffffffffffffff1673ffffffffffffffffffffffffffffffffffffffff1663bd02d0f560405180807f74657374312e6e756d2e31000000000000000000000000000000000000000000815250600b01905060405180910390206040518263ffffffff167c0100000000000000000000000000000000000000000000000000000000028152600401808260001916600019168152602001915050602060405180830381600087803b1580156104be57600080fd5b505af11580156104d2573d6000803e3d6000fd5b505050506040513d60208110156104e857600080fd5b8101908080519060200190929190505050905090565b61053d6040805190810160405280600581526020017f6f776e65720000000000000000000000000000000000000000000000000000008152503361090f565b8061058357506105826040805190810160405280600581526020017f61646d696e0000000000000000000000000000000000000000000000000000008152503361090f565b5b151561058e57600080fd5b600060019054906101000a900473ffffffffffffffffffffffffffffffffffffffff1673ffffffffffffffffffffffffffffffffffffffff1663e2a4853a60405180807f74657374332e6e756d2e31000000000000000000000000000000000000000000815250600b0190506040518091039020836040518363ffffffff167c010000000000000000000000000000000000000000000000000000000002815260040180836000191660001916815260200182815260200192505050600060405180830381600087803b15801561066457600080fd5b505af1158015610678573d6000803e3d6000fd5b5050505050565b6106be6040805190810160405280600581526020017f6f776e65720000000000000000000000000000000000000000000000000000008152503361090f565b8061070457506107036040805190810160405280600581526020017f61646d696e0000000000000000000000000000000000000000000000000000008152503361090f565b5b151561070f57600080fd5b600060019054906101000a900473ffffffffffffffffffffffffffffffffffffffff1673ffffffffffffffffffffffffffffffffffffffff1663e2a4853a60405180807f746573742e6e756d2e3100000000000000000000000000000000000000000000815250600a0190506040518091039020836040518363ffffffff167c010000000000000000000000000000000000000000000000000000000002815260040180836000191660001916815260200182815260200192505050600060405180830381600087803b1580156107e557600080fd5b505af11580156107f9573d6000803e3d6000fd5b5050505050565b60008060019054906101000a900473ffffffffffffffffffffffffffffffffffffffff1673ffffffffffffffffffffffffffffffffffffffff1663bd02d0f560405180807f74657374332e6e756d2e31000000000000000000000000000000000000000000815250600b01905060405180910390206040518263ffffffff167c0100000000000000000000000000000000000000000000000000000000028152600401808260001916600019168152602001915050602060405180830381600087803b1580156108cf57600080fd5b505af11580156108e3573d6000803e3d6000fd5b505050506040513d60208110156108f957600080fd5b8101908080519060200190929190505050905090565b60008060019054906101000a900473ffffffffffffffffffffffffffffffffffffffff1673ffffffffffffffffffffffffffffffffffffffff16637ae1cfca848460405180807f6163636573732e726f6c65000000000000000000000000000000000000000000815250600b0183805190602001908083835b6020831015156109ad5780518252602082019150602081019050602083039250610988565b6001836020036101000a0380198251168184511680821785525050505050509050018273ffffffffffffffffffffffffffffffffffffffff1673ffffffffffffffffffffffffffffffffffffffff166c010000000000000000000000000281526014019250505060405180910390206040518263ffffffff167c0100000000000000000000000000000000000000000000000000000000028152600401808260001916600019168152602001915050602060405180830381600087803b158015610a7657600080fd5b505af1158015610a8a573d6000803e3d6000fd5b505050506040513d6020811015610aa057600080fd5b81019080805190602001909291905050509050929150505600a165627a7a72305820850f87e27548f4902ed6f51ca22b8a6a4e43859822abc5dd86e54737f5c5aa9b0029",
  "source": "pragma solidity ^0.4.23;\n\nimport \"../lib/SafeMath.sol\";\nimport \"./DemoBase.sol\";\n\ncontract Test3Contract is DemoBase{\n\n    using SafeMath for uint;\n\n    constructor(address _demoStorageAddress) DemoBase(_demoStorageAddress) public {\n        version = 1;\n    }\n\n    function setTest2Num1(uint _num) public onlySuperUser{\n        demoStorage.setUint(keccak256(\"test3.num.1\"),_num);\n    }\n\n    function getTest2Num1() public view returns (uint256){\n        return demoStorage.getUint(keccak256(\"test3.num.1\"));\n    }\n\n    function setTestNum1(uint _num) public onlySuperUser{\n        demoStorage.setUint(keccak256(\"test.num.1\"),_num);\n    }\n\n    function getTestNum1() public view returns (uint256){\n        return demoStorage.getUint(keccak256(\"test.num.1\"));\n    }\n\n    function getTest1Num1() public view returns (uint256){\n        return demoStorage.getUint(keccak256(\"test1.num.1\"));\n    }\n\n    function getTest1Num2() public view returns (uint256){\n        return demoStorage.getUint(keccak256(\"test1.num.2\"));\n    }\n\n}",
  "sourcePath": "/home/a186r/develop/truffled/scdemo/contracts/Test3Contract.sol",
  "compiler": {
    "name": "solc",
    "version": "0.4.23+commit.124ca40d.Emscripten.clang"
  },
  "schemaVersion": "2.0.0",
  "updatedAt": "2018-05-29T03:21:04.796Z"
}