{
  "contractName": "Test1Contract",
  "abi": [
    {
      "constant": true,
      "inputs": [],
      "name": "version",
      "outputs": [
        {
          "name": "",
          "type": "uint8"
        }
      ],
      "payable": false,
      "stateMutability": "view",
      "type": "function"
    },
    {
      "inputs": [
        {
          "name": "_demoStorageAddress",
          "type": "address"
        }
      ],
      "payable": false,
      "stateMutability": "nonpayable",
      "type": "constructor"
    },
    {
      "constant": false,
      "inputs": [
        {
          "name": "_num",
          "type": "uint256"
        }
      ],
      "name": "setTest1Num1",
      "outputs": [],
      "payable": false,
      "stateMutability": "nonpayable",
      "type": "function"
    },
    {
      "constant": false,
      "inputs": [
        {
          "name": "_num",
          "type": "uint256"
        }
      ],
      "name": "setTest1Num2",
      "outputs": [],
      "payable": false,
      "stateMutability": "nonpayable",
      "type": "function"
    }
  ],
  "bytecode": "0x608060405260008060016101000a81548173ffffffffffffffffffffffffffffffffffffffff021916908373ffffffffffffffffffffffffffffffffffffffff16021790555034801561005157600080fd5b506040516020806106b3833981018060405281019080805190602001909291905050508080600060016101000a81548173ffffffffffffffffffffffffffffffffffffffff021916908373ffffffffffffffffffffffffffffffffffffffff1602179055505060016000806101000a81548160ff021916908360ff160217905550506105d1806100e26000396000f300608060405260043610610057576000357c0100000000000000000000000000000000000000000000000000000000900463ffffffff16806305e73c121461005c57806351b6b6821461008957806354fd4d50146100b6575b600080fd5b34801561006857600080fd5b50610087600480360381019080803590602001909291905050506100e7565b005b34801561009557600080fd5b506100b460048036038101908080359060200190929190505050610268565b005b3480156100c257600080fd5b506100cb6103e9565b604051808260ff1660ff16815260200191505060405180910390f35b6101266040805190810160405280600581526020017f6f776e6572000000000000000000000000000000000000000000000000000000815250336103fb565b8061016c575061016b6040805190810160405280600581526020017f61646d696e000000000000000000000000000000000000000000000000000000815250336103fb565b5b151561017757600080fd5b600060019054906101000a900473ffffffffffffffffffffffffffffffffffffffff1673ffffffffffffffffffffffffffffffffffffffff1663e2a4853a60405180807f74657374312e6e756d2e31000000000000000000000000000000000000000000815250600b0190506040518091039020836040518363ffffffff167c010000000000000000000000000000000000000000000000000000000002815260040180836000191660001916815260200182815260200192505050600060405180830381600087803b15801561024d57600080fd5b505af1158015610261573d6000803e3d6000fd5b5050505050565b6102a76040805190810160405280600581526020017f6f776e6572000000000000000000000000000000000000000000000000000000815250336103fb565b806102ed57506102ec6040805190810160405280600581526020017f61646d696e000000000000000000000000000000000000000000000000000000815250336103fb565b5b15156102f857600080fd5b600060019054906101000a900473ffffffffffffffffffffffffffffffffffffffff1673ffffffffffffffffffffffffffffffffffffffff1663e2a4853a60405180807f74657374312e6e756d2e32000000000000000000000000000000000000000000815250600b0190506040518091039020836040518363ffffffff167c010000000000000000000000000000000000000000000000000000000002815260040180836000191660001916815260200182815260200192505050600060405180830381600087803b1580156103ce57600080fd5b505af11580156103e2573d6000803e3d6000fd5b5050505050565b6000809054906101000a900460ff1681565b60008060019054906101000a900473ffffffffffffffffffffffffffffffffffffffff1673ffffffffffffffffffffffffffffffffffffffff16637ae1cfca848460405180807f6163636573732e726f6c65000000000000000000000000000000000000000000815250600b0183805190602001908083835b6020831015156104995780518252602082019150602081019050602083039250610474565b6001836020036101000a0380198251168184511680821785525050505050509050018273ffffffffffffffffffffffffffffffffffffffff1673ffffffffffffffffffffffffffffffffffffffff166c010000000000000000000000000281526014019250505060405180910390206040518263ffffffff167c0100000000000000000000000000000000000000000000000000000000028152600401808260001916600019168152602001915050602060405180830381600087803b15801561056257600080fd5b505af1158015610576573d6000803e3d6000fd5b505050506040513d602081101561058c57600080fd5b81019080805190602001909291905050509050929150505600a165627a7a72305820218eb28f764fb79c3943efbed0ace396ce280650512a6e0c0726da359a639ffd0029",
  "source": "pragma solidity ^0.4.23;\n\nimport \"../lib/SafeMath.sol\";\nimport \"./DemoBase.sol\";\n\ncontract Test1Contract is DemoBase{\n    \n    constructor(address _demoStorageAddress) DemoBase(_demoStorageAddress) public {\n        version = 1;\n    }\n\n    function setTest1Num1(uint _num) public onlySuperUser{\n        demoStorage.setUint(keccak256(\"test1.num.1\"),_num);\n    }\n\n    function setTest1Num2(uint _num) public onlySuperUser{\n        demoStorage.setUint(keccak256(\"test1.num.2\"),_num);\n    }\n\n}",
  "sourcePath": "/home/a186r/develop/truffled/scdemo/contracts/Test1Contract.sol",
  "compiler": {
    "name": "solc",
    "version": "0.4.23+commit.124ca40d.Emscripten.clang"
  },
  "schemaVersion": "2.0.0",
  "updatedAt": "2018-05-28T11:04:05.820Z"
}