{
  "contractName": "TestContract",
  "abi": [
    {
      "constant": true,
      "inputs": [],
      "name": "version",
      "outputs": [
        {
          "name": "",
          "type": "uint8"
        }
      ],
      "payable": false,
      "stateMutability": "view",
      "type": "function"
    },
    {
      "inputs": [
        {
          "name": "_demoStorageAddress",
          "type": "address"
        }
      ],
      "payable": false,
      "stateMutability": "nonpayable",
      "type": "constructor"
    },
    {
      "anonymous": false,
      "inputs": [
        {
          "indexed": false,
          "name": "_TestNum1",
          "type": "uint256"
        },
        {
          "indexed": false,
          "name": "_Test1Num1",
          "type": "uint256"
        },
        {
          "indexed": false,
          "name": "created",
          "type": "uint256"
        }
      ],
      "name": "SumNum",
      "type": "event"
    },
    {
      "constant": false,
      "inputs": [
        {
          "name": "_num1",
          "type": "uint256"
        },
        {
          "name": "_num2",
          "type": "uint256"
        }
      ],
      "name": "TwoNumSum",
      "outputs": [],
      "payable": false,
      "stateMutability": "nonpayable",
      "type": "function"
    },
    {
      "constant": false,
      "inputs": [],
      "name": "TwoNumSum2",
      "outputs": [
        {
          "name": "",
          "type": "uint256"
        }
      ],
      "payable": false,
      "stateMutability": "nonpayable",
      "type": "function"
    },
    {
      "constant": false,
      "inputs": [
        {
          "name": "_num",
          "type": "uint256"
        }
      ],
      "name": "setTestNum1",
      "outputs": [],
      "payable": false,
      "stateMutability": "nonpayable",
      "type": "function"
    },
    {
      "constant": true,
      "inputs": [],
      "name": "getTestNum1",
      "outputs": [
        {
          "name": "",
          "type": "uint256"
        }
      ],
      "payable": false,
      "stateMutability": "view",
      "type": "function"
    },
    {
      "constant": true,
      "inputs": [],
      "name": "getTest1Num1",
      "outputs": [
        {
          "name": "",
          "type": "uint256"
        }
      ],
      "payable": false,
      "stateMutability": "view",
      "type": "function"
    },
    {
      "constant": true,
      "inputs": [],
      "name": "getTest1Num2",
      "outputs": [
        {
          "name": "",
          "type": "uint256"
        }
      ],
      "payable": false,
      "stateMutability": "view",
      "type": "function"
    },
    {
      "constant": true,
      "inputs": [],
      "name": "getSum",
      "outputs": [
        {
          "name": "",
          "type": "uint256"
        }
      ],
      "payable": false,
      "stateMutability": "view",
      "type": "function"
    },
    {
      "constant": true,
      "inputs": [],
      "name": "getSum2",
      "outputs": [
        {
          "name": "",
          "type": "uint256"
        }
      ],
      "payable": false,
      "stateMutability": "view",
      "type": "function"
    },
    {
      "constant": false,
      "inputs": [],
      "name": "deleteTestNum1",
      "outputs": [],
      "payable": false,
      "stateMutability": "nonpayable",
      "type": "function"
    }
  ],
  "bytecode": "0x608060405260008060016101000a81548173ffffffffffffffffffffffffffffffffffffffff021916908373ffffffffffffffffffffffffffffffffffffffff16021790555034801561005157600080fd5b50604051602080610e1f833981018060405281019080805190602001909291905050508080600060016101000a81548173ffffffffffffffffffffffffffffffffffffffff021916908373ffffffffffffffffffffffffffffffffffffffff1602179055505060016000806101000a81548160ff021916908360ff16021790555050610d3d806100e26000396000f3006080604052600436106100a4576000357c0100000000000000000000000000000000000000000000000000000000900463ffffffff168063088e3d18146100a957806326c96b55146100d45780632df261aa146100ff57806332522e091461013657806345ea33051461016157806354fd4d5014610178578063569c5f6d146101a95780636fe1aa71146101d45780637440e8f5146101ff578063f8d5638b1461022a575b600080fd5b3480156100b557600080fd5b506100be610257565b6040518082815260200191505060405180910390f35b3480156100e057600080fd5b506100e961027f565b6040518082815260200191505060405180910390f35b34801561010b57600080fd5b50610134600480360381019080803590602001909291908035906020019092919050505061038e565b005b34801561014257600080fd5b5061014b610492565b6040518082815260200191505060405180910390f35b34801561016d57600080fd5b506101766105a1565b005b34801561018457600080fd5b5061018d610689565b604051808260ff1660ff16815260200191505060405180910390f35b3480156101b557600080fd5b506101be61069b565b6040518082815260200191505060405180910390f35b3480156101e057600080fd5b506101e96107aa565b6040518082815260200191505060405180910390f35b34801561020b57600080fd5b506102146108b9565b6040518082815260200191505060405180910390f35b34801561023657600080fd5b50610255600480360381019080803590602001909291905050506109c8565b005b600061027a6102646108b9565b61026c61027f565b610b4990919063ffffffff16565b905090565b60008060019054906101000a900473ffffffffffffffffffffffffffffffffffffffff1673ffffffffffffffffffffffffffffffffffffffff1663bd02d0f560405180807f746573742e6e756d2e3100000000000000000000000000000000000000000000815250600a01905060405180910390206040518263ffffffff167c0100000000000000000000000000000000000000000000000000000000028152600401808260001916600019168152602001915050602060405180830381600087803b15801561034e57600080fd5b505af1158015610362573d6000803e3d6000fd5b505050506040513d602081101561037857600080fd5b8101908080519060200190929190505050905090565b600060019054906101000a900473ffffffffffffffffffffffffffffffffffffffff1673ffffffffffffffffffffffffffffffffffffffff1663e2a4853a60405180807f746573742e74776f6e756d73756d000000000000000000000000000000000000815250600e01905060405180910390206104158486610b4990919063ffffffff16565b6040518363ffffffff167c010000000000000000000000000000000000000000000000000000000002815260040180836000191660001916815260200182815260200192505050600060405180830381600087803b15801561047657600080fd5b505af115801561048a573d6000803e3d6000fd5b505050505050565b60008060019054906101000a900473ffffffffffffffffffffffffffffffffffffffff1673ffffffffffffffffffffffffffffffffffffffff1663bd02d0f560405180807f746573742e74776f6e756d73756d2e3200000000000000000000000000000000815250601001905060405180910390206040518263ffffffff167c0100000000000000000000000000000000000000000000000000000000028152600401808260001916600019168152602001915050602060405180830381600087803b15801561056157600080fd5b505af1158015610575573d6000803e3d6000fd5b505050506040513d602081101561058b57600080fd5b8101908080519060200190929190505050905090565b600060019054906101000a900473ffffffffffffffffffffffffffffffffffffffff1673ffffffffffffffffffffffffffffffffffffffff1663e2b202bf60405180807f746573742e6e756d2e3100000000000000000000000000000000000000000000815250600a01905060405180910390206040518263ffffffff167c0100000000000000000000000000000000000000000000000000000000028152600401808260001916600019168152602001915050600060405180830381600087803b15801561066f57600080fd5b505af1158015610683573d6000803e3d6000fd5b50505050565b6000809054906101000a900460ff1681565b60008060019054906101000a900473ffffffffffffffffffffffffffffffffffffffff1673ffffffffffffffffffffffffffffffffffffffff1663bd02d0f560405180807f746573742e74776f6e756d73756d000000000000000000000000000000000000815250600e01905060405180910390206040518263ffffffff167c0100000000000000000000000000000000000000000000000000000000028152600401808260001916600019168152602001915050602060405180830381600087803b15801561076a57600080fd5b505af115801561077e573d6000803e3d6000fd5b505050506040513d602081101561079457600080fd5b8101908080519060200190929190505050905090565b60008060019054906101000a900473ffffffffffffffffffffffffffffffffffffffff1673ffffffffffffffffffffffffffffffffffffffff1663bd02d0f560405180807f74657374312e6e756d2e32000000000000000000000000000000000000000000815250600b01905060405180910390206040518263ffffffff167c0100000000000000000000000000000000000000000000000000000000028152600401808260001916600019168152602001915050602060405180830381600087803b15801561087957600080fd5b505af115801561088d573d6000803e3d6000fd5b505050506040513d60208110156108a357600080fd5b8101908080519060200190929190505050905090565b60008060019054906101000a900473ffffffffffffffffffffffffffffffffffffffff1673ffffffffffffffffffffffffffffffffffffffff1663bd02d0f560405180807f74657374312e6e756d2e31000000000000000000000000000000000000000000815250600b01905060405180910390206040518263ffffffff167c0100000000000000000000000000000000000000000000000000000000028152600401808260001916600019168152602001915050602060405180830381600087803b15801561098857600080fd5b505af115801561099c573d6000803e3d6000fd5b505050506040513d60208110156109b257600080fd5b8101908080519060200190929190505050905090565b610a076040805190810160405280600581526020017f6f776e657200000000000000000000000000000000000000000000000000000081525033610b67565b80610a4d5750610a4c6040805190810160405280600581526020017f61646d696e00000000000000000000000000000000000000000000000000000081525033610b67565b5b1515610a5857600080fd5b600060019054906101000a900473ffffffffffffffffffffffffffffffffffffffff1673ffffffffffffffffffffffffffffffffffffffff1663e2a4853a60405180807f746573742e6e756d2e3100000000000000000000000000000000000000000000815250600a0190506040518091039020836040518363ffffffff167c010000000000000000000000000000000000000000000000000000000002815260040180836000191660001916815260200182815260200192505050600060405180830381600087803b158015610b2e57600080fd5b505af1158015610b42573d6000803e3d6000fd5b5050505050565b6000808284019050838110151515610b5d57fe5b8091505092915050565b60008060019054906101000a900473ffffffffffffffffffffffffffffffffffffffff1673ffffffffffffffffffffffffffffffffffffffff16637ae1cfca848460405180807f6163636573732e726f6c65000000000000000000000000000000000000000000815250600b0183805190602001908083835b602083101515610c055780518252602082019150602081019050602083039250610be0565b6001836020036101000a0380198251168184511680821785525050505050509050018273ffffffffffffffffffffffffffffffffffffffff1673ffffffffffffffffffffffffffffffffffffffff166c010000000000000000000000000281526014019250505060405180910390206040518263ffffffff167c0100000000000000000000000000000000000000000000000000000000028152600401808260001916600019168152602001915050602060405180830381600087803b158015610cce57600080fd5b505af1158015610ce2573d6000803e3d6000fd5b505050506040513d6020811015610cf857600080fd5b81019080805190602001909291905050509050929150505600a165627a7a7230582047644b68073ab6093414ec078dd1db5946289f651026b3ff05c002633d7f9ae90029",
  "source": "pragma solidity ^0.4.23;\n\nimport \"../lib/SafeMath.sol\";\nimport \"./DemoBase.sol\";\n\ncontract TestContract is DemoBase{\n\n    using SafeMath for uint;\n\n    event SumNum(\n        uint256 _TestNum1,\n        uint256 _Test1Num1,\n        uint256 created\n    );\n    \n    constructor(address _demoStorageAddress) DemoBase(_demoStorageAddress) public {\n        version = 1;\n    }\n\n    function TwoNumSum(uint _num1,uint _num2) public {\n        demoStorage.setUint(keccak256(\"test.twonumsum\"),_num1.add(_num2));\n    }\n\n    function TwoNumSum2() public returns (uint) {\n        return getTestNum1().add(getTest1Num1());\n        // demoStorage.setUint(keccak256(\"test.twonumsum.2\"),getTestNum1().add(14));\n    }\n\n    function setTestNum1(uint _num) public onlySuperUser{\n        demoStorage.setUint(keccak256(\"test.num.1\"),_num);\n    }\n\n    function getTestNum1() public view returns (uint256){\n        return demoStorage.getUint(keccak256(\"test.num.1\"));\n    }\n\n    function getTest1Num1() public view returns (uint256){\n        return demoStorage.getUint(keccak256(\"test1.num.1\"));\n    }\n\n    function getTest1Num2() public view returns (uint256){\n        return demoStorage.getUint(keccak256(\"test1.num.2\"));\n    }\n\n    function getSum() public view returns (uint256){\n        return demoStorage.getUint(keccak256(\"test.twonumsum\"));\n    }\n\n    function getSum2() public view returns (uint256){\n        return demoStorage.getUint(keccak256(\"test.twonumsum.2\"));\n    }\n\n    function deleteTestNum1() public {\n        demoStorage.deleteUint(keccak256(\"test.num.1\"));\n    }\n\n}",
  "sourcePath": "/home/a186r/develop/truffled/demo/contracts/TestContract.sol",
  "compiler": {
    "name": "solc",
    "version": "0.4.23+commit.124ca40d.Emscripten.clang"
  },
  "schemaVersion": "2.0.0",
  "updatedAt": "2018-05-25T10:16:19.788Z"
}