{
  "contractName": "Test1Contract",
  "abi": [
    {
      "constant": true,
      "inputs": [],
      "name": "version",
      "outputs": [
        {
          "name": "",
          "type": "uint8"
        }
      ],
      "payable": false,
      "stateMutability": "view",
      "type": "function"
    },
    {
      "inputs": [
        {
          "name": "_demoStorageAddress",
          "type": "address"
        }
      ],
      "payable": false,
      "stateMutability": "nonpayable",
      "type": "constructor"
    },
    {
      "constant": false,
      "inputs": [
        {
          "name": "_num",
          "type": "uint256"
        }
      ],
      "name": "setTest1Num1",
      "outputs": [],
      "payable": false,
      "stateMutability": "nonpayable",
      "type": "function"
    },
    {
      "constant": false,
      "inputs": [
        {
          "name": "_num",
          "type": "uint256"
        }
      ],
      "name": "setTest1Num2",
      "outputs": [],
      "payable": false,
      "stateMutability": "nonpayable",
      "type": "function"
    }
  ],
  "bytecode": "0x608060405260008060016101000a81548173ffffffffffffffffffffffffffffffffffffffff021916908373ffffffffffffffffffffffffffffffffffffffff16021790555034801561005157600080fd5b506040516020806107f7833981018060405281019080805190602001909291905050508080600060016101000a81548173ffffffffffffffffffffffffffffffffffffffff021916908373ffffffffffffffffffffffffffffffffffffffff1602179055505060016000806101000a81548160ff021916908360ff16021790555050610715806100e26000396000f300608060405260043610610057576000357c0100000000000000000000000000000000000000000000000000000000900463ffffffff16806305e73c121461005c57806351b6b6821461008957806354fd4d50146100b6575b600080fd5b34801561006857600080fd5b50610087600480360381019080803590602001909291905050506100e7565b005b34801561009557600080fd5b506100b4600480360381019080803590602001909291905050506102d4565b005b3480156100c257600080fd5b506100cb6104c1565b604051808260ff1660ff16815260200191505060405180910390f35b6101266040805190810160405280600581526020017f6f776e6572000000000000000000000000000000000000000000000000000000815250336104d3565b8061016c575061016b6040805190810160405280600581526020017f61646d696e000000000000000000000000000000000000000000000000000000815250336104d3565b5b151561017757600080fd5b600060019054906101000a900473ffffffffffffffffffffffffffffffffffffffff1673ffffffffffffffffffffffffffffffffffffffff1663e2a4853a60405160200180807f74657374312e6e756d2e31000000000000000000000000000000000000000000815250600b0190506040516020818303038152906040526040518082805190602001908083835b60208310151561022a5780518252602082019150602081019050602083039250610205565b6001836020036101000a0380198251168184511680821785525050505050509050019150506040518091039020836040518363ffffffff167c010000000000000000000000000000000000000000000000000000000002815260040180836000191660001916815260200182815260200192505050600060405180830381600087803b1580156102b957600080fd5b505af11580156102cd573d6000803e3d6000fd5b5050505050565b6103136040805190810160405280600581526020017f6f776e6572000000000000000000000000000000000000000000000000000000815250336104d3565b8061035957506103586040805190810160405280600581526020017f61646d696e000000000000000000000000000000000000000000000000000000815250336104d3565b5b151561036457600080fd5b600060019054906101000a900473ffffffffffffffffffffffffffffffffffffffff1673ffffffffffffffffffffffffffffffffffffffff1663e2a4853a60405160200180807f74657374312e6e756d2e32000000000000000000000000000000000000000000815250600b0190506040516020818303038152906040526040518082805190602001908083835b60208310151561041757805182526020820191506020810190506020830392506103f2565b6001836020036101000a0380198251168184511680821785525050505050509050019150506040518091039020836040518363ffffffff167c010000000000000000000000000000000000000000000000000000000002815260040180836000191660001916815260200182815260200192505050600060405180830381600087803b1580156104a657600080fd5b505af11580156104ba573d6000803e3d6000fd5b5050505050565b6000809054906101000a900460ff1681565b60008060019054906101000a900473ffffffffffffffffffffffffffffffffffffffff1673ffffffffffffffffffffffffffffffffffffffff16637ae1cfca848460405160200180807f6163636573732e726f6c65000000000000000000000000000000000000000000815250600b0183805190602001908083835b602083101515610574578051825260208201915060208101905060208303925061054f565b6001836020036101000a0380198251168184511680821785525050505050509050018273ffffffffffffffffffffffffffffffffffffffff1673ffffffffffffffffffffffffffffffffffffffff166c01000000000000000000000000028152601401925050506040516020818303038152906040526040518082805190602001908083835b60208310151561061f57805182526020820191506020810190506020830392506105fa565b6001836020036101000a03801982511681845116808217855250505050505090500191505060405180910390206040518263ffffffff167c0100000000000000000000000000000000000000000000000000000000028152600401808260001916600019168152602001915050602060405180830381600087803b1580156106a657600080fd5b505af11580156106ba573d6000803e3d6000fd5b505050506040513d60208110156106d057600080fd5b81019080805190602001909291905050509050929150505600a165627a7a723058200c4dddf5f4cde5967507a36a18fe59abf1f784dc13bfa3b17145b55faeeb7b420029",
  "source": "pragma solidity ^0.4.23;\n\nimport \"../lib/safemath.sol\";\nimport \"./DemoBase.sol\";\n\ncontract Test1Contract is DemoBase{\n    \n    constructor(address _demoStorageAddress) DemoBase(_demoStorageAddress) public {\n        version = 1;\n    }\n\n    function setTest1Num1(uint _num) public onlySuperUser{\n        demoStorage.setUint(keccak256(abi.encodePacked(\"test1.num.1\")),_num);\n    }\n\n    function setTest1Num2(uint _num) public onlySuperUser{\n        demoStorage.setUint(keccak256(abi.encodePacked(\"test1.num.2\")),_num);\n    }\n\n}",
  "sourcePath": "/home/a186r/develop/truffled/scdemo/contracts/Test1Contract.sol",
  "compiler": {
    "name": "solc",
    "version": "0.4.23+commit.124ca40d.Emscripten.clang"
  },
  "schemaVersion": "2.0.0",
  "updatedAt": "2018-06-11T07:15:40.646Z"
}