{
  "contractName": "TestContract",
  "abi": [
    {
      "constant": false,
      "inputs": [
        {
          "name": "owner_",
          "type": "address"
        }
      ],
      "name": "setOwner",
      "outputs": [],
      "payable": false,
      "stateMutability": "nonpayable",
      "type": "function"
    },
    {
      "constant": false,
      "inputs": [
        {
          "name": "src",
          "type": "address"
        },
        {
          "name": "dst",
          "type": "address"
        },
        {
          "name": "sig",
          "type": "bytes32"
        }
      ],
      "name": "forbid",
      "outputs": [],
      "payable": false,
      "stateMutability": "nonpayable",
      "type": "function"
    },
    {
      "constant": true,
      "inputs": [],
      "name": "dsguard",
      "outputs": [
        {
          "name": "",
          "type": "address"
        }
      ],
      "payable": false,
      "stateMutability": "view",
      "type": "function"
    },
    {
      "constant": true,
      "inputs": [],
      "name": "version",
      "outputs": [
        {
          "name": "",
          "type": "uint8"
        }
      ],
      "payable": false,
      "stateMutability": "view",
      "type": "function"
    },
    {
      "constant": false,
      "inputs": [
        {
          "name": "src",
          "type": "bytes32"
        },
        {
          "name": "dst",
          "type": "bytes32"
        },
        {
          "name": "sig",
          "type": "bytes32"
        }
      ],
      "name": "forbid",
      "outputs": [],
      "payable": false,
      "stateMutability": "nonpayable",
      "type": "function"
    },
    {
      "constant": false,
      "inputs": [
        {
          "name": "authority_",
          "type": "address"
        }
      ],
      "name": "setAuthority",
      "outputs": [],
      "payable": false,
      "stateMutability": "nonpayable",
      "type": "function"
    },
    {
      "constant": true,
      "inputs": [],
      "name": "owner",
      "outputs": [
        {
          "name": "",
          "type": "address"
        }
      ],
      "payable": false,
      "stateMutability": "view",
      "type": "function"
    },
    {
      "constant": true,
      "inputs": [],
      "name": "ANY",
      "outputs": [
        {
          "name": "",
          "type": "bytes32"
        }
      ],
      "payable": false,
      "stateMutability": "view",
      "type": "function"
    },
    {
      "constant": true,
      "inputs": [
        {
          "name": "src_",
          "type": "address"
        },
        {
          "name": "dst_",
          "type": "address"
        },
        {
          "name": "sig",
          "type": "bytes4"
        }
      ],
      "name": "canCall",
      "outputs": [
        {
          "name": "",
          "type": "bool"
        }
      ],
      "payable": false,
      "stateMutability": "view",
      "type": "function"
    },
    {
      "constant": true,
      "inputs": [],
      "name": "authority",
      "outputs": [
        {
          "name": "",
          "type": "address"
        }
      ],
      "payable": false,
      "stateMutability": "view",
      "type": "function"
    },
    {
      "constant": false,
      "inputs": [
        {
          "name": "src",
          "type": "address"
        },
        {
          "name": "dst",
          "type": "address"
        },
        {
          "name": "sig",
          "type": "bytes32"
        }
      ],
      "name": "permit",
      "outputs": [],
      "payable": false,
      "stateMutability": "nonpayable",
      "type": "function"
    },
    {
      "constant": false,
      "inputs": [
        {
          "name": "src",
          "type": "bytes32"
        },
        {
          "name": "dst",
          "type": "bytes32"
        },
        {
          "name": "sig",
          "type": "bytes32"
        }
      ],
      "name": "permit",
      "outputs": [],
      "payable": false,
      "stateMutability": "nonpayable",
      "type": "function"
    },
    {
      "inputs": [
        {
          "name": "_demoStorageAddress",
          "type": "address"
        }
      ],
      "payable": false,
      "stateMutability": "nonpayable",
      "type": "constructor"
    },
    {
      "anonymous": false,
      "inputs": [
        {
          "indexed": false,
          "name": "_TestNum1",
          "type": "uint256"
        },
        {
          "indexed": false,
          "name": "_Test1Num1",
          "type": "uint256"
        },
        {
          "indexed": false,
          "name": "created",
          "type": "uint256"
        }
      ],
      "name": "SumNum",
      "type": "event"
    },
    {
      "anonymous": false,
      "inputs": [
        {
          "indexed": true,
          "name": "src",
          "type": "bytes32"
        },
        {
          "indexed": true,
          "name": "dst",
          "type": "bytes32"
        },
        {
          "indexed": true,
          "name": "sig",
          "type": "bytes32"
        }
      ],
      "name": "LogPermit",
      "type": "event"
    },
    {
      "anonymous": false,
      "inputs": [
        {
          "indexed": true,
          "name": "src",
          "type": "bytes32"
        },
        {
          "indexed": true,
          "name": "dst",
          "type": "bytes32"
        },
        {
          "indexed": true,
          "name": "sig",
          "type": "bytes32"
        }
      ],
      "name": "LogForbid",
      "type": "event"
    },
    {
      "anonymous": false,
      "inputs": [
        {
          "indexed": true,
          "name": "authority",
          "type": "address"
        }
      ],
      "name": "LogSetAuthority",
      "type": "event"
    },
    {
      "anonymous": false,
      "inputs": [
        {
          "indexed": true,
          "name": "owner",
          "type": "address"
        }
      ],
      "name": "LogSetOwner",
      "type": "event"
    },
    {
      "constant": false,
      "inputs": [
        {
          "name": "_num1",
          "type": "uint256"
        },
        {
          "name": "_num2",
          "type": "uint256"
        }
      ],
      "name": "TwoNumSum",
      "outputs": [],
      "payable": false,
      "stateMutability": "nonpayable",
      "type": "function"
    },
    {
      "constant": false,
      "inputs": [],
      "name": "TwoNumSum2",
      "outputs": [
        {
          "name": "",
          "type": "uint256"
        }
      ],
      "payable": false,
      "stateMutability": "nonpayable",
      "type": "function"
    },
    {
      "constant": false,
      "inputs": [
        {
          "name": "_num",
          "type": "uint256"
        }
      ],
      "name": "setTestNum1",
      "outputs": [],
      "payable": false,
      "stateMutability": "nonpayable",
      "type": "function"
    },
    {
      "constant": true,
      "inputs": [],
      "name": "getTestNum1",
      "outputs": [
        {
          "name": "",
          "type": "uint256"
        }
      ],
      "payable": false,
      "stateMutability": "view",
      "type": "function"
    },
    {
      "constant": true,
      "inputs": [],
      "name": "getTest1Num1",
      "outputs": [
        {
          "name": "",
          "type": "uint256"
        }
      ],
      "payable": false,
      "stateMutability": "view",
      "type": "function"
    },
    {
      "constant": true,
      "inputs": [],
      "name": "getTest1Num2",
      "outputs": [
        {
          "name": "",
          "type": "uint256"
        }
      ],
      "payable": false,
      "stateMutability": "view",
      "type": "function"
    },
    {
      "constant": true,
      "inputs": [],
      "name": "getSum",
      "outputs": [
        {
          "name": "",
          "type": "uint256"
        }
      ],
      "payable": false,
      "stateMutability": "view",
      "type": "function"
    },
    {
      "constant": true,
      "inputs": [],
      "name": "getSum2",
      "outputs": [
        {
          "name": "",
          "type": "uint256"
        }
      ],
      "payable": false,
      "stateMutability": "view",
      "type": "function"
    },
    {
      "constant": false,
      "inputs": [],
      "name": "deleteTestNum1",
      "outputs": [],
      "payable": false,
      "stateMutability": "nonpayable",
      "type": "function"
    }
  ],
  "bytecode": "0x608060405260008060016101000a81548173ffffffffffffffffffffffffffffffffffffffff021916908373ffffffffffffffffffffffffffffffffffffffff16021790555034801561005157600080fd5b50604051602080612394833981018060405281019080805190602001909291905050508080600060016101000a81548173ffffffffffffffffffffffffffffffffffffffff021916908373ffffffffffffffffffffffffffffffffffffffff1602179055505033600260006101000a81548173ffffffffffffffffffffffffffffffffffffffff021916908373ffffffffffffffffffffffffffffffffffffffff1602179055503373ffffffffffffffffffffffffffffffffffffffff167fce241d7ca1f669fee44b6fc00b8eba2df3bb514eed0f6f668f8f89096e81ed9460405160405180910390a260016000806101000a81548160ff021916908360ff1602179055505061222e806101666000396000f30060806040526004361061011d576000357c0100000000000000000000000000000000000000000000000000000000900463ffffffff168063088e3d181461012257806313af40351461014d57806326c96b55146101905780632bc3217d146101bb5780632df261aa1461022c57806332522e09146102635780633bfa78051461028e57806345ea3305146102e557806354fd4d50146102fc578063569c5f6d1461032d5780636fe1aa71146103585780637440e8f51461038357806379d88d87146103ae5780637a9e5e4b146103fb5780638da5cb5b1461043e578063a8542f6614610495578063b7009613146104c8578063bf7e214f1461056c578063cbeea68c146105c3578063f0217ce514610634578063f8d5638b14610681575b600080fd5b34801561012e57600080fd5b506101376106ae565b6040518082815260200191505060405180910390f35b34801561015957600080fd5b5061018e600480360381019080803573ffffffffffffffffffffffffffffffffffffffff16906020019092919050505061072b565b005b34801561019c57600080fd5b506101a561080d565b6040518082815260200191505060405180910390f35b3480156101c757600080fd5b5061022a600480360381019080803573ffffffffffffffffffffffffffffffffffffffff169060200190929190803573ffffffffffffffffffffffffffffffffffffffff1690602001909291908035600019169060200190929190505050610988565b005b34801561023857600080fd5b5061026160048036038101908080359060200190929190803590602001909291905050506109ca565b005b34801561026f57600080fd5b50610278610b3a565b6040518082815260200191505060405180910390f35b34801561029a57600080fd5b506102a3610cb5565b604051808273ffffffffffffffffffffffffffffffffffffffff1673ffffffffffffffffffffffffffffffffffffffff16815260200191505060405180910390f35b3480156102f157600080fd5b506102fa610cdb565b005b34801561030857600080fd5b50610311610e2f565b604051808260ff1660ff16815260200191505060405180910390f35b34801561033957600080fd5b50610342610e41565b6040518082815260200191505060405180910390f35b34801561036457600080fd5b5061036d610fbc565b6040518082815260200191505060405180910390f35b34801561038f57600080fd5b50610398611137565b6040518082815260200191505060405180910390f35b3480156103ba57600080fd5b506103f96004803603810190808035600019169060200190929190803560001916906020019092919080356000191690602001909291905050506112b2565b005b34801561040757600080fd5b5061043c600480360381019080803573ffffffffffffffffffffffffffffffffffffffff169060200190929190505050611391565b005b34801561044a57600080fd5b50610453611473565b604051808273ffffffffffffffffffffffffffffffffffffffff1673ffffffffffffffffffffffffffffffffffffffff16815260200191505060405180910390f35b3480156104a157600080fd5b506104aa611499565b60405180826000191660001916815260200191505060405180910390f35b3480156104d457600080fd5b50610552600480360381019080803573ffffffffffffffffffffffffffffffffffffffff169060200190929190803573ffffffffffffffffffffffffffffffffffffffff16906020019092919080357bffffffffffffffffffffffffffffffffffffffffffffffffffffffff191690602001909291905050506114c0565b604051808215151515815260200191505060405180910390f35b34801561057857600080fd5b50610581611a21565b604051808273ffffffffffffffffffffffffffffffffffffffff1673ffffffffffffffffffffffffffffffffffffffff16815260200191505060405180910390f35b3480156105cf57600080fd5b50610632600480360381019080803573ffffffffffffffffffffffffffffffffffffffff169060200190929190803573ffffffffffffffffffffffffffffffffffffffff1690602001909291908035600019169060200190929190505050611a47565b005b34801561064057600080fd5b5061067f600480360381019080803560001916906020019092919080356000191690602001909291908035600019169060200190929190505050611a89565b005b34801561068d57600080fd5b506106ac60048036038101908080359060200190929190505050611b68565b005b60007f90012f56ef18a48d75c79e4bfb6b5efa08a1a150e5a99682c6e740f560a3bc616106d961080d565b6106e1611137565b4260405180848152602001838152602001828152602001935050505060405180910390a1610726610710611137565b61071861080d565b611d5590919063ffffffff16565b905090565b610759336000357fffffffff0000000000000000000000000000000000000000000000000000000016611d73565b151561076457600080fd5b80600260006101000a81548173ffffffffffffffffffffffffffffffffffffffff021916908373ffffffffffffffffffffffffffffffffffffffff160217905550600260009054906101000a900473ffffffffffffffffffffffffffffffffffffffff1673ffffffffffffffffffffffffffffffffffffffff167fce241d7ca1f669fee44b6fc00b8eba2df3bb514eed0f6f668f8f89096e81ed9460405160405180910390a250565b60008060019054906101000a900473ffffffffffffffffffffffffffffffffffffffff1673ffffffffffffffffffffffffffffffffffffffff1663bd02d0f560405160200180807f746573742e6e756d2e3100000000000000000000000000000000000000000000815250600a0190506040516020818303038152906040526040518082805190602001908083835b6020831015156108c1578051825260208201915060208101905060208303925061089c565b6001836020036101000a03801982511681845116808217855250505050505090500191505060405180910390206040518263ffffffff167c0100000000000000000000000000000000000000000000000000000000028152600401808260001916600019168152602001915050602060405180830381600087803b15801561094857600080fd5b505af115801561095c573d6000803e3d6000fd5b505050506040513d602081101561097257600080fd5b8101908080519060200190929190505050905090565b6109c58373ffffffffffffffffffffffffffffffffffffffff166001028373ffffffffffffffffffffffffffffffffffffffff16600102836112b2565b505050565b600060019054906101000a900473ffffffffffffffffffffffffffffffffffffffff1673ffffffffffffffffffffffffffffffffffffffff1663e2a4853a60405160200180807f746573742e74776f6e756d73756d000000000000000000000000000000000000815250600e0190506040516020818303038152906040526040518082805190602001908083835b602083101515610a7d5780518252602082019150602081019050602083039250610a58565b6001836020036101000a0380198251168184511680821785525050505050509050019150506040518091039020610abd8486611d5590919063ffffffff16565b6040518363ffffffff167c010000000000000000000000000000000000000000000000000000000002815260040180836000191660001916815260200182815260200192505050600060405180830381600087803b158015610b1e57600080fd5b505af1158015610b32573d6000803e3d6000fd5b505050505050565b60008060019054906101000a900473ffffffffffffffffffffffffffffffffffffffff1673ffffffffffffffffffffffffffffffffffffffff1663bd02d0f560405160200180807f746573742e74776f6e756d73756d2e320000000000000000000000000000000081525060100190506040516020818303038152906040526040518082805190602001908083835b602083101515610bee5780518252602082019150602081019050602083039250610bc9565b6001836020036101000a03801982511681845116808217855250505050505090500191505060405180910390206040518263ffffffff167c0100000000000000000000000000000000000000000000000000000000028152600401808260001916600019168152602001915050602060405180830381600087803b158015610c7557600080fd5b505af1158015610c89573d6000803e3d6000fd5b505050506040513d6020811015610c9f57600080fd5b8101908080519060200190929190505050905090565b600460009054906101000a900473ffffffffffffffffffffffffffffffffffffffff1681565b600060019054906101000a900473ffffffffffffffffffffffffffffffffffffffff1673ffffffffffffffffffffffffffffffffffffffff1663e2b202bf60405160200180807f746573742e6e756d2e3100000000000000000000000000000000000000000000815250600a0190506040516020818303038152906040526040518082805190602001908083835b602083101515610d8e5780518252602082019150602081019050602083039250610d69565b6001836020036101000a03801982511681845116808217855250505050505090500191505060405180910390206040518263ffffffff167c0100000000000000000000000000000000000000000000000000000000028152600401808260001916600019168152602001915050600060405180830381600087803b158015610e1557600080fd5b505af1158015610e29573d6000803e3d6000fd5b50505050565b6000809054906101000a900460ff1681565b60008060019054906101000a900473ffffffffffffffffffffffffffffffffffffffff1673ffffffffffffffffffffffffffffffffffffffff1663bd02d0f560405160200180807f746573742e74776f6e756d73756d000000000000000000000000000000000000815250600e0190506040516020818303038152906040526040518082805190602001908083835b602083101515610ef55780518252602082019150602081019050602083039250610ed0565b6001836020036101000a03801982511681845116808217855250505050505090500191505060405180910390206040518263ffffffff167c0100000000000000000000000000000000000000000000000000000000028152600401808260001916600019168152602001915050602060405180830381600087803b158015610f7c57600080fd5b505af1158015610f90573d6000803e3d6000fd5b505050506040513d6020811015610fa657600080fd5b8101908080519060200190929190505050905090565b60008060019054906101000a900473ffffffffffffffffffffffffffffffffffffffff1673ffffffffffffffffffffffffffffffffffffffff1663bd02d0f560405160200180807f74657374312e6e756d2e32000000000000000000000000000000000000000000815250600b0190506040516020818303038152906040526040518082805190602001908083835b602083101515611070578051825260208201915060208101905060208303925061104b565b6001836020036101000a03801982511681845116808217855250505050505090500191505060405180910390206040518263ffffffff167c0100000000000000000000000000000000000000000000000000000000028152600401808260001916600019168152602001915050602060405180830381600087803b1580156110f757600080fd5b505af115801561110b573d6000803e3d6000fd5b505050506040513d602081101561112157600080fd5b8101908080519060200190929190505050905090565b60008060019054906101000a900473ffffffffffffffffffffffffffffffffffffffff1673ffffffffffffffffffffffffffffffffffffffff1663bd02d0f560405160200180807f74657374312e6e756d2e31000000000000000000000000000000000000000000815250600b0190506040516020818303038152906040526040518082805190602001908083835b6020831015156111eb57805182526020820191506020810190506020830392506111c6565b6001836020036101000a03801982511681845116808217855250505050505090500191505060405180910390206040518263ffffffff167c0100000000000000000000000000000000000000000000000000000000028152600401808260001916600019168152602001915050602060405180830381600087803b15801561127257600080fd5b505af1158015611286573d6000803e3d6000fd5b505050506040513d602081101561129c57600080fd5b8101908080519060200190929190505050905090565b6112e0336000357fffffffff0000000000000000000000000000000000000000000000000000000016611d73565b15156112eb57600080fd5b6000600360008560001916600019168152602001908152602001600020600084600019166000191681526020019081526020016000206000836000191660001916815260200190815260200160002060006101000a81548160ff0219169083151502179055508060001916826000191684600019167f95ba64c95d85e67ac83a0476c4a62ac2cf8ab2d0407545b8c9d79c3eefa6282960405160405180910390a4505050565b6113bf336000357fffffffff0000000000000000000000000000000000000000000000000000000016611d73565b15156113ca57600080fd5b80600160006101000a81548173ffffffffffffffffffffffffffffffffffffffff021916908373ffffffffffffffffffffffffffffffffffffffff160217905550600160009054906101000a900473ffffffffffffffffffffffffffffffffffffffff1673ffffffffffffffffffffffffffffffffffffffff167f1abebea81bfa2637f28358c371278fb15ede7ea8dd28d2e03b112ff6d936ada460405160405180910390a250565b600260009054906101000a900473ffffffffffffffffffffffffffffffffffffffff1681565b7fffffffffffffffffffffffffffffffffffffffffffffffffffffffffffffffff60010281565b60008060008573ffffffffffffffffffffffffffffffffffffffff1660010291508473ffffffffffffffffffffffffffffffffffffffff166001029050600360008360001916600019168152602001908152602001600020600082600019166000191681526020019081526020016000206000857bffffffffffffffffffffffffffffffffffffffffffffffffffffffff191660001916815260200190815260200160002060009054906101000a900460ff16806115f857506003600083600019166000191681526020019081526020016000206000826000191660001916815260200190815260200160002060007fffffffffffffffffffffffffffffffffffffffffffffffffffffffffffffffff6001026000191660001916815260200190815260200160002060009054906101000a900460ff165b80611698575060036000836000191660001916815260200190815260200160002060007fffffffffffffffffffffffffffffffffffffffffffffffffffffffffffffffff600102600019166000191681526020019081526020016000206000857bffffffffffffffffffffffffffffffffffffffffffffffffffffffff191660001916815260200190815260200160002060009054906101000a900460ff165b80611740575060036000836000191660001916815260200190815260200160002060007fffffffffffffffffffffffffffffffffffffffffffffffffffffffffffffffff6001026000191660001916815260200190815260200160002060007fffffffffffffffffffffffffffffffffffffffffffffffffffffffffffffffff6001026000191660001916815260200190815260200160002060009054906101000a900460ff165b806117e05750600360007fffffffffffffffffffffffffffffffffffffffffffffffffffffffffffffffff60010260001916600019168152602001908152602001600020600082600019166000191681526020019081526020016000206000857bffffffffffffffffffffffffffffffffffffffffffffffffffffffff191660001916815260200190815260200160002060009054906101000a900460ff165b806118885750600360007fffffffffffffffffffffffffffffffffffffffffffffffffffffffffffffffff600102600019166000191681526020019081526020016000206000826000191660001916815260200190815260200160002060007fffffffffffffffffffffffffffffffffffffffffffffffffffffffffffffffff6001026000191660001916815260200190815260200160002060009054906101000a900460ff165b8061194b5750600360007fffffffffffffffffffffffffffffffffffffffffffffffffffffffffffffffff6001026000191660001916815260200190815260200160002060007fffffffffffffffffffffffffffffffffffffffffffffffffffffffffffffffff600102600019166000191681526020019081526020016000206000857bffffffffffffffffffffffffffffffffffffffffffffffffffffffff191660001916815260200190815260200160002060009054906101000a900460ff165b80611a165750600360007fffffffffffffffffffffffffffffffffffffffffffffffffffffffffffffffff6001026000191660001916815260200190815260200160002060007fffffffffffffffffffffffffffffffffffffffffffffffffffffffffffffffff6001026000191660001916815260200190815260200160002060007fffffffffffffffffffffffffffffffffffffffffffffffffffffffffffffffff6001026000191660001916815260200190815260200160002060009054906101000a900460ff165b925050509392505050565b600160009054906101000a900473ffffffffffffffffffffffffffffffffffffffff1681565b611a848373ffffffffffffffffffffffffffffffffffffffff166001028373ffffffffffffffffffffffffffffffffffffffff1660010283611a89565b505050565b611ab7336000357fffffffff0000000000000000000000000000000000000000000000000000000016611d73565b1515611ac257600080fd5b6001600360008560001916600019168152602001908152602001600020600084600019166000191681526020019081526020016000206000836000191660001916815260200190815260200160002060006101000a81548160ff0219169083151502179055508060001916826000191684600019167f6f50375045128971c5469d343039ba7b8e30a5b190453737b28bda6f7a30677160405160405180910390a4505050565b611ba76040805190810160405280600581526020017f6f776e657200000000000000000000000000000000000000000000000000000081525033611fec565b80611bed5750611bec6040805190810160405280600581526020017f61646d696e00000000000000000000000000000000000000000000000000000081525033611fec565b5b1515611bf857600080fd5b600060019054906101000a900473ffffffffffffffffffffffffffffffffffffffff1673ffffffffffffffffffffffffffffffffffffffff1663e2a4853a60405160200180807f746573742e6e756d2e3100000000000000000000000000000000000000000000815250600a0190506040516020818303038152906040526040518082805190602001908083835b602083101515611cab5780518252602082019150602081019050602083039250611c86565b6001836020036101000a0380198251168184511680821785525050505050509050019150506040518091039020836040518363ffffffff167c010000000000000000000000000000000000000000000000000000000002815260040180836000191660001916815260200182815260200192505050600060405180830381600087803b158015611d3a57600080fd5b505af1158015611d4e573d6000803e3d6000fd5b5050505050565b6000808284019050838110151515611d6957fe5b8091505092915050565b60003073ffffffffffffffffffffffffffffffffffffffff168373ffffffffffffffffffffffffffffffffffffffff161415611db25760019050611fe6565b600260009054906101000a900473ffffffffffffffffffffffffffffffffffffffff1673ffffffffffffffffffffffffffffffffffffffff168373ffffffffffffffffffffffffffffffffffffffff161415611e115760019050611fe6565b600073ffffffffffffffffffffffffffffffffffffffff16600160009054906101000a900473ffffffffffffffffffffffffffffffffffffffff1673ffffffffffffffffffffffffffffffffffffffff161415611e715760009050611fe6565b600160009054906101000a900473ffffffffffffffffffffffffffffffffffffffff1673ffffffffffffffffffffffffffffffffffffffff1663b70096138430856040518463ffffffff167c0100000000000000000000000000000000000000000000000000000000028152600401808473ffffffffffffffffffffffffffffffffffffffff1673ffffffffffffffffffffffffffffffffffffffff1681526020018373ffffffffffffffffffffffffffffffffffffffff1673ffffffffffffffffffffffffffffffffffffffff168152602001827bffffffffffffffffffffffffffffffffffffffffffffffffffffffff19167bffffffffffffffffffffffffffffffffffffffffffffffffffffffff191681526020019350505050602060405180830381600087803b158015611fa857600080fd5b505af1158015611fbc573d6000803e3d6000fd5b505050506040513d6020811015611fd257600080fd5b810190808051906020019092919050505090505b92915050565b60008060019054906101000a900473ffffffffffffffffffffffffffffffffffffffff1673ffffffffffffffffffffffffffffffffffffffff16637ae1cfca848460405160200180807f6163636573732e726f6c65000000000000000000000000000000000000000000815250600b0183805190602001908083835b60208310151561208d5780518252602082019150602081019050602083039250612068565b6001836020036101000a0380198251168184511680821785525050505050509050018273ffffffffffffffffffffffffffffffffffffffff1673ffffffffffffffffffffffffffffffffffffffff166c01000000000000000000000000028152601401925050506040516020818303038152906040526040518082805190602001908083835b6020831015156121385780518252602082019150602081019050602083039250612113565b6001836020036101000a03801982511681845116808217855250505050505090500191505060405180910390206040518263ffffffff167c0100000000000000000000000000000000000000000000000000000000028152600401808260001916600019168152602001915050602060405180830381600087803b1580156121bf57600080fd5b505af11580156121d3573d6000803e3d6000fd5b505050506040513d60208110156121e957600080fd5b81019080805190602001909291905050509050929150505600a165627a7a72305820a8e25d2676447c6dda843f0de1371c91388728ceeec18d0d2eec72431c7b723c0029",
  "source": "pragma solidity ^0.4.23;\n\nimport \"../lib/safemath.sol\";\nimport \"./DemoBase.sol\";\nimport \"../lib/ds-guard.sol\";\n\ncontract TestContract is DemoBase,DSGuard{\n\n    using SafeMath for uint;\n\n    DSGuard public dsguard;\n\n    event SumNum(\n        uint256 _TestNum1,\n        uint256 _Test1Num1,\n        uint256 created\n    );\n    \n    constructor(address _demoStorageAddress) DemoBase(_demoStorageAddress) public {\n        version = 1;\n    }\n\n\n\n// \n    // dsguard.permit(\n    //     msg.sender,\n    //     demoStorage.getAddress(keccak256(abi.encodePacked(\"contract.name\",\"Test1Contract\")),\n    //     ANY\n    // )\n\n    function TwoNumSum(uint _num1,uint _num2) public {\n        demoStorage.setUint(keccak256(abi.encodePacked(\"test.twonumsum\")),_num1.add(_num2));\n    }\n\n    function TwoNumSum2() public returns (uint) {\n        emit SumNum(getTestNum1(),getTest1Num1(),now);\n        return getTestNum1().add(getTest1Num1());\n        // demoStorage.setUint(keccak256(\"test.twonumsum.2\"),getTestNum1().add(14));\n    }\n\n    function setTestNum1(uint _num) public onlySuperUser{\n        demoStorage.setUint(keccak256(abi.encodePacked(\"test.num.1\")),_num);\n    }\n\n    function getTestNum1() public view returns (uint256){\n        return demoStorage.getUint(keccak256(abi.encodePacked(\"test.num.1\")));\n    }\n\n    function getTest1Num1() public view returns (uint256){\n        return demoStorage.getUint(keccak256(abi.encodePacked(\"test1.num.1\")));\n    }\n\n    function getTest1Num2() public view returns (uint256){\n        return demoStorage.getUint(keccak256(abi.encodePacked(\"test1.num.2\")));\n    }\n\n    function getSum() public view returns (uint256){\n        return demoStorage.getUint(keccak256(abi.encodePacked(\"test.twonumsum\")));\n    }\n\n    function getSum2() public view returns (uint256){\n        return demoStorage.getUint(keccak256(abi.encodePacked(\"test.twonumsum.2\")));\n    }\n\n    function deleteTestNum1() public {\n        demoStorage.deleteUint(keccak256(abi.encodePacked(\"test.num.1\")));\n    }\n\n}\n",
  "sourcePath": "/home/a186r/develop/truffled/scdemo/contracts/TestContract.sol",
  "compiler": {
    "name": "solc",
    "version": "0.4.23+commit.124ca40d.Emscripten.clang"
  },
  "schemaVersion": "2.0.0",
  "updatedAt": "2018-06-11T07:40:54.679Z"
}