{
  "contractName": "TestContract",
  "abi": [
    {
      "constant": false,
      "inputs": [
        {
          "name": "owner_",
          "type": "address"
        }
      ],
      "name": "setOwner",
      "outputs": [],
      "payable": false,
      "stateMutability": "nonpayable",
      "type": "function"
    },
    {
      "constant": false,
      "inputs": [
        {
          "name": "src",
          "type": "address"
        },
        {
          "name": "dst",
          "type": "address"
        },
        {
          "name": "sig",
          "type": "bytes32"
        }
      ],
      "name": "forbid",
      "outputs": [],
      "payable": false,
      "stateMutability": "nonpayable",
      "type": "function"
    },
    {
      "constant": true,
      "inputs": [],
      "name": "dsguard",
      "outputs": [
        {
          "name": "",
          "type": "address"
        }
      ],
      "payable": false,
      "stateMutability": "view",
      "type": "function"
    },
    {
      "constant": true,
      "inputs": [],
      "name": "version",
      "outputs": [
        {
          "name": "",
          "type": "uint8"
        }
      ],
      "payable": false,
      "stateMutability": "view",
      "type": "function"
    },
    {
      "constant": false,
      "inputs": [
        {
          "name": "src",
          "type": "bytes32"
        },
        {
          "name": "dst",
          "type": "bytes32"
        },
        {
          "name": "sig",
          "type": "bytes32"
        }
      ],
      "name": "forbid",
      "outputs": [],
      "payable": false,
      "stateMutability": "nonpayable",
      "type": "function"
    },
    {
      "constant": false,
      "inputs": [
        {
          "name": "authority_",
          "type": "address"
        }
      ],
      "name": "setAuthority",
      "outputs": [],
      "payable": false,
      "stateMutability": "nonpayable",
      "type": "function"
    },
    {
      "constant": true,
      "inputs": [],
      "name": "owner",
      "outputs": [
        {
          "name": "",
          "type": "address"
        }
      ],
      "payable": false,
      "stateMutability": "view",
      "type": "function"
    },
    {
      "constant": true,
      "inputs": [],
      "name": "ANY",
      "outputs": [
        {
          "name": "",
          "type": "bytes32"
        }
      ],
      "payable": false,
      "stateMutability": "view",
      "type": "function"
    },
    {
      "constant": true,
      "inputs": [
        {
          "name": "src_",
          "type": "address"
        },
        {
          "name": "dst_",
          "type": "address"
        },
        {
          "name": "sig",
          "type": "bytes4"
        }
      ],
      "name": "canCall",
      "outputs": [
        {
          "name": "",
          "type": "bool"
        }
      ],
      "payable": false,
      "stateMutability": "view",
      "type": "function"
    },
    {
      "constant": true,
      "inputs": [],
      "name": "authority",
      "outputs": [
        {
          "name": "",
          "type": "address"
        }
      ],
      "payable": false,
      "stateMutability": "view",
      "type": "function"
    },
    {
      "constant": false,
      "inputs": [
        {
          "name": "src",
          "type": "address"
        },
        {
          "name": "dst",
          "type": "address"
        },
        {
          "name": "sig",
          "type": "bytes32"
        }
      ],
      "name": "permit",
      "outputs": [],
      "payable": false,
      "stateMutability": "nonpayable",
      "type": "function"
    },
    {
      "constant": false,
      "inputs": [
        {
          "name": "src",
          "type": "bytes32"
        },
        {
          "name": "dst",
          "type": "bytes32"
        },
        {
          "name": "sig",
          "type": "bytes32"
        }
      ],
      "name": "permit",
      "outputs": [],
      "payable": false,
      "stateMutability": "nonpayable",
      "type": "function"
    },
    {
      "inputs": [
        {
          "name": "_demoStorageAddress",
          "type": "address"
        }
      ],
      "payable": false,
      "stateMutability": "nonpayable",
      "type": "constructor"
    },
    {
      "anonymous": false,
      "inputs": [
        {
          "indexed": false,
          "name": "_TestNum1",
          "type": "uint256"
        },
        {
          "indexed": false,
          "name": "_Test1Num1",
          "type": "uint256"
        },
        {
          "indexed": false,
          "name": "created",
          "type": "uint256"
        }
      ],
      "name": "SumNum",
      "type": "event"
    },
    {
      "anonymous": false,
      "inputs": [
        {
          "indexed": true,
          "name": "src",
          "type": "bytes32"
        },
        {
          "indexed": true,
          "name": "dst",
          "type": "bytes32"
        },
        {
          "indexed": true,
          "name": "sig",
          "type": "bytes32"
        }
      ],
      "name": "LogPermit",
      "type": "event"
    },
    {
      "anonymous": false,
      "inputs": [
        {
          "indexed": true,
          "name": "src",
          "type": "bytes32"
        },
        {
          "indexed": true,
          "name": "dst",
          "type": "bytes32"
        },
        {
          "indexed": true,
          "name": "sig",
          "type": "bytes32"
        }
      ],
      "name": "LogForbid",
      "type": "event"
    },
    {
      "anonymous": false,
      "inputs": [
        {
          "indexed": true,
          "name": "authority",
          "type": "address"
        }
      ],
      "name": "LogSetAuthority",
      "type": "event"
    },
    {
      "anonymous": false,
      "inputs": [
        {
          "indexed": true,
          "name": "owner",
          "type": "address"
        }
      ],
      "name": "LogSetOwner",
      "type": "event"
    },
    {
      "constant": false,
      "inputs": [],
      "name": "setGuard",
      "outputs": [],
      "payable": false,
      "stateMutability": "nonpayable",
      "type": "function"
    },
    {
      "constant": false,
      "inputs": [
        {
          "name": "_num1",
          "type": "uint256"
        },
        {
          "name": "_num2",
          "type": "uint256"
        }
      ],
      "name": "TwoNumSum",
      "outputs": [],
      "payable": false,
      "stateMutability": "nonpayable",
      "type": "function"
    },
    {
      "constant": false,
      "inputs": [],
      "name": "TwoNumSum2",
      "outputs": [
        {
          "name": "",
          "type": "uint256"
        }
      ],
      "payable": false,
      "stateMutability": "nonpayable",
      "type": "function"
    },
    {
      "constant": false,
      "inputs": [
        {
          "name": "_num",
          "type": "uint256"
        }
      ],
      "name": "setTestNum1",
      "outputs": [],
      "payable": false,
      "stateMutability": "nonpayable",
      "type": "function"
    },
    {
      "constant": true,
      "inputs": [],
      "name": "getTestNum1",
      "outputs": [
        {
          "name": "",
          "type": "uint256"
        }
      ],
      "payable": false,
      "stateMutability": "view",
      "type": "function"
    },
    {
      "constant": true,
      "inputs": [],
      "name": "getTest1Num1",
      "outputs": [
        {
          "name": "",
          "type": "uint256"
        }
      ],
      "payable": false,
      "stateMutability": "view",
      "type": "function"
    },
    {
      "constant": true,
      "inputs": [],
      "name": "getTest1Num2",
      "outputs": [
        {
          "name": "",
          "type": "uint256"
        }
      ],
      "payable": false,
      "stateMutability": "view",
      "type": "function"
    },
    {
      "constant": true,
      "inputs": [],
      "name": "getSum",
      "outputs": [
        {
          "name": "",
          "type": "uint256"
        }
      ],
      "payable": false,
      "stateMutability": "view",
      "type": "function"
    },
    {
      "constant": true,
      "inputs": [],
      "name": "getSum2",
      "outputs": [
        {
          "name": "",
          "type": "uint256"
        }
      ],
      "payable": false,
      "stateMutability": "view",
      "type": "function"
    },
    {
      "constant": false,
      "inputs": [],
      "name": "deleteTestNum1",
      "outputs": [],
      "payable": false,
      "stateMutability": "nonpayable",
      "type": "function"
    }
  ],
  "bytecode": "0x608060405260008060016101000a81548173ffffffffffffffffffffffffffffffffffffffff021916908373ffffffffffffffffffffffffffffffffffffffff16021790555034801561005157600080fd5b506040516020806122e8833981018060405281019080805190602001909291905050508080600060016101000a81548173ffffffffffffffffffffffffffffffffffffffff021916908373ffffffffffffffffffffffffffffffffffffffff1602179055505033600260006101000a81548173ffffffffffffffffffffffffffffffffffffffff021916908373ffffffffffffffffffffffffffffffffffffffff1602179055503373ffffffffffffffffffffffffffffffffffffffff167fce241d7ca1f669fee44b6fc00b8eba2df3bb514eed0f6f668f8f89096e81ed9460405160405180910390a260016000806101000a81548160ff021916908360ff16021790555050612182806101666000396000f300608060405260043610610128576000357c0100000000000000000000000000000000000000000000000000000000900463ffffffff168063088e3d181461012d57806313af40351461015857806326c96b551461019b5780632bc3217d146101c65780632df261aa1461023757806332522e091461026e5780633bfa78051461029957806345ea3305146102f057806354fd4d5014610307578063569c5f6d146103385780636fe1aa71146103635780637440e8f51461038e57806379d88d87146103b95780637a9e5e4b146104065780638da5cb5b1461044957806396ca3e37146104a0578063a8542f66146104b7578063b7009613146104ea578063bf7e214f1461058e578063cbeea68c146105e5578063f0217ce514610656578063f8d5638b146106a3575b600080fd5b34801561013957600080fd5b506101426106d0565b6040518082815260200191505060405180910390f35b34801561016457600080fd5b50610199600480360381019080803573ffffffffffffffffffffffffffffffffffffffff16906020019092919050505061074d565b005b3480156101a757600080fd5b506101b061082f565b6040518082815260200191505060405180910390f35b3480156101d257600080fd5b50610235600480360381019080803573ffffffffffffffffffffffffffffffffffffffff169060200190929190803573ffffffffffffffffffffffffffffffffffffffff169060200190929190803560001916906020019092919050505061093e565b005b34801561024357600080fd5b5061026c6004803603810190808035906020019092919080359060200190929190505050610980565b005b34801561027a57600080fd5b50610283610a84565b6040518082815260200191505060405180910390f35b3480156102a557600080fd5b506102ae610b93565b604051808273ffffffffffffffffffffffffffffffffffffffff1673ffffffffffffffffffffffffffffffffffffffff16815260200191505060405180910390f35b3480156102fc57600080fd5b50610305610bb9565b005b34801561031357600080fd5b5061031c610ca1565b604051808260ff1660ff16815260200191505060405180910390f35b34801561034457600080fd5b5061034d610cb3565b6040518082815260200191505060405180910390f35b34801561036f57600080fd5b50610378610dc2565b6040518082815260200191505060405180910390f35b34801561039a57600080fd5b506103a3610ed1565b6040518082815260200191505060405180910390f35b3480156103c557600080fd5b50610404600480360381019080803560001916906020019092919080356000191690602001909291908035600019169060200190929190505050610fe0565b005b34801561041257600080fd5b50610447600480360381019080803573ffffffffffffffffffffffffffffffffffffffff1690602001909291905050506110bf565b005b34801561045557600080fd5b5061045e6111a1565b604051808273ffffffffffffffffffffffffffffffffffffffff1673ffffffffffffffffffffffffffffffffffffffff16815260200191505060405180910390f35b3480156104ac57600080fd5b506104b56111c7565b005b3480156104c357600080fd5b506104cc6114c5565b60405180826000191660001916815260200191505060405180910390f35b3480156104f657600080fd5b50610574600480360381019080803573ffffffffffffffffffffffffffffffffffffffff169060200190929190803573ffffffffffffffffffffffffffffffffffffffff16906020019092919080357bffffffffffffffffffffffffffffffffffffffffffffffffffffffff191690602001909291905050506114ec565b604051808215151515815260200191505060405180910390f35b34801561059a57600080fd5b506105a3611a4d565b604051808273ffffffffffffffffffffffffffffffffffffffff1673ffffffffffffffffffffffffffffffffffffffff16815260200191505060405180910390f35b3480156105f157600080fd5b50610654600480360381019080803573ffffffffffffffffffffffffffffffffffffffff169060200190929190803573ffffffffffffffffffffffffffffffffffffffff1690602001909291908035600019169060200190929190505050611a73565b005b34801561066257600080fd5b506106a1600480360381019080803560001916906020019092919080356000191690602001909291908035600019169060200190929190505050611ab5565b005b3480156106af57600080fd5b506106ce60048036038101908080359060200190929190505050611b94565b005b60007f90012f56ef18a48d75c79e4bfb6b5efa08a1a150e5a99682c6e740f560a3bc616106fb61082f565b610703610ed1565b4260405180848152602001838152602001828152602001935050505060405180910390a1610748610732610ed1565b61073a61082f565b611d1590919063ffffffff16565b905090565b61077b336000357fffffffff0000000000000000000000000000000000000000000000000000000016611d33565b151561078657600080fd5b80600260006101000a81548173ffffffffffffffffffffffffffffffffffffffff021916908373ffffffffffffffffffffffffffffffffffffffff160217905550600260009054906101000a900473ffffffffffffffffffffffffffffffffffffffff1673ffffffffffffffffffffffffffffffffffffffff167fce241d7ca1f669fee44b6fc00b8eba2df3bb514eed0f6f668f8f89096e81ed9460405160405180910390a250565b60008060019054906101000a900473ffffffffffffffffffffffffffffffffffffffff1673ffffffffffffffffffffffffffffffffffffffff1663bd02d0f560405180807f746573742e6e756d2e3100000000000000000000000000000000000000000000815250600a01905060405180910390206040518263ffffffff167c0100000000000000000000000000000000000000000000000000000000028152600401808260001916600019168152602001915050602060405180830381600087803b1580156108fe57600080fd5b505af1158015610912573d6000803e3d6000fd5b505050506040513d602081101561092857600080fd5b8101908080519060200190929190505050905090565b61097b8373ffffffffffffffffffffffffffffffffffffffff166001028373ffffffffffffffffffffffffffffffffffffffff1660010283610fe0565b505050565b600060019054906101000a900473ffffffffffffffffffffffffffffffffffffffff1673ffffffffffffffffffffffffffffffffffffffff1663e2a4853a60405180807f746573742e74776f6e756d73756d000000000000000000000000000000000000815250600e0190506040518091039020610a078486611d1590919063ffffffff16565b6040518363ffffffff167c010000000000000000000000000000000000000000000000000000000002815260040180836000191660001916815260200182815260200192505050600060405180830381600087803b158015610a6857600080fd5b505af1158015610a7c573d6000803e3d6000fd5b505050505050565b60008060019054906101000a900473ffffffffffffffffffffffffffffffffffffffff1673ffffffffffffffffffffffffffffffffffffffff1663bd02d0f560405180807f746573742e74776f6e756d73756d2e3200000000000000000000000000000000815250601001905060405180910390206040518263ffffffff167c0100000000000000000000000000000000000000000000000000000000028152600401808260001916600019168152602001915050602060405180830381600087803b158015610b5357600080fd5b505af1158015610b67573d6000803e3d6000fd5b505050506040513d6020811015610b7d57600080fd5b8101908080519060200190929190505050905090565b600460009054906101000a900473ffffffffffffffffffffffffffffffffffffffff1681565b600060019054906101000a900473ffffffffffffffffffffffffffffffffffffffff1673ffffffffffffffffffffffffffffffffffffffff1663e2b202bf60405180807f746573742e6e756d2e3100000000000000000000000000000000000000000000815250600a01905060405180910390206040518263ffffffff167c0100000000000000000000000000000000000000000000000000000000028152600401808260001916600019168152602001915050600060405180830381600087803b158015610c8757600080fd5b505af1158015610c9b573d6000803e3d6000fd5b50505050565b6000809054906101000a900460ff1681565b60008060019054906101000a900473ffffffffffffffffffffffffffffffffffffffff1673ffffffffffffffffffffffffffffffffffffffff1663bd02d0f560405180807f746573742e74776f6e756d73756d000000000000000000000000000000000000815250600e01905060405180910390206040518263ffffffff167c0100000000000000000000000000000000000000000000000000000000028152600401808260001916600019168152602001915050602060405180830381600087803b158015610d8257600080fd5b505af1158015610d96573d6000803e3d6000fd5b505050506040513d6020811015610dac57600080fd5b8101908080519060200190929190505050905090565b60008060019054906101000a900473ffffffffffffffffffffffffffffffffffffffff1673ffffffffffffffffffffffffffffffffffffffff1663bd02d0f560405180807f74657374312e6e756d2e32000000000000000000000000000000000000000000815250600b01905060405180910390206040518263ffffffff167c0100000000000000000000000000000000000000000000000000000000028152600401808260001916600019168152602001915050602060405180830381600087803b158015610e9157600080fd5b505af1158015610ea5573d6000803e3d6000fd5b505050506040513d6020811015610ebb57600080fd5b8101908080519060200190929190505050905090565b60008060019054906101000a900473ffffffffffffffffffffffffffffffffffffffff1673ffffffffffffffffffffffffffffffffffffffff1663bd02d0f560405180807f74657374312e6e756d2e31000000000000000000000000000000000000000000815250600b01905060405180910390206040518263ffffffff167c0100000000000000000000000000000000000000000000000000000000028152600401808260001916600019168152602001915050602060405180830381600087803b158015610fa057600080fd5b505af1158015610fb4573d6000803e3d6000fd5b505050506040513d6020811015610fca57600080fd5b8101908080519060200190929190505050905090565b61100e336000357fffffffff0000000000000000000000000000000000000000000000000000000016611d33565b151561101957600080fd5b6000600360008560001916600019168152602001908152602001600020600084600019166000191681526020019081526020016000206000836000191660001916815260200190815260200160002060006101000a81548160ff0219169083151502179055508060001916826000191684600019167f95ba64c95d85e67ac83a0476c4a62ac2cf8ab2d0407545b8c9d79c3eefa6282960405160405180910390a4505050565b6110ed336000357fffffffff0000000000000000000000000000000000000000000000000000000016611d33565b15156110f857600080fd5b80600160006101000a81548173ffffffffffffffffffffffffffffffffffffffff021916908373ffffffffffffffffffffffffffffffffffffffff160217905550600160009054906101000a900473ffffffffffffffffffffffffffffffffffffffff1673ffffffffffffffffffffffffffffffffffffffff167f1abebea81bfa2637f28358c371278fb15ede7ea8dd28d2e03b112ff6d936ada460405160405180910390a250565b600260009054906101000a900473ffffffffffffffffffffffffffffffffffffffff1681565b6112066040805190810160405280600581526020017f6f776e657200000000000000000000000000000000000000000000000000000081525033611fac565b8061124c575061124b6040805190810160405280600581526020017f61646d696e00000000000000000000000000000000000000000000000000000081525033611fac565b5b151561125757600080fd5b600460009054906101000a900473ffffffffffffffffffffffffffffffffffffffff1673ffffffffffffffffffffffffffffffffffffffff1663cbeea68c33600060019054906101000a900473ffffffffffffffffffffffffffffffffffffffff1673ffffffffffffffffffffffffffffffffffffffff166321f8a72160405180807f636f6e74726163742e6e616d6500000000000000000000000000000000000000815250600d01807f5465737431436f6e747261637400000000000000000000000000000000000000815250600d01905060405180910390206040518263ffffffff167c0100000000000000000000000000000000000000000000000000000000028152600401808260001916600019168152602001915050602060405180830381600087803b15801561138c57600080fd5b505af11580156113a0573d6000803e3d6000fd5b505050506040513d60208110156113b657600080fd5b81019080805190602001909291905050507fffffffffffffffffffffffffffffffffffffffffffffffffffffffffffffffff6001026040518463ffffffff167c0100000000000000000000000000000000000000000000000000000000028152600401808473ffffffffffffffffffffffffffffffffffffffff1673ffffffffffffffffffffffffffffffffffffffff1681526020018373ffffffffffffffffffffffffffffffffffffffff1673ffffffffffffffffffffffffffffffffffffffff16815260200182600019166000191681526020019350505050600060405180830381600087803b1580156114ab57600080fd5b505af11580156114bf573d6000803e3d6000fd5b50505050565b7fffffffffffffffffffffffffffffffffffffffffffffffffffffffffffffffff60010281565b60008060008573ffffffffffffffffffffffffffffffffffffffff1660010291508473ffffffffffffffffffffffffffffffffffffffff166001029050600360008360001916600019168152602001908152602001600020600082600019166000191681526020019081526020016000206000857bffffffffffffffffffffffffffffffffffffffffffffffffffffffff191660001916815260200190815260200160002060009054906101000a900460ff168061162457506003600083600019166000191681526020019081526020016000206000826000191660001916815260200190815260200160002060007fffffffffffffffffffffffffffffffffffffffffffffffffffffffffffffffff6001026000191660001916815260200190815260200160002060009054906101000a900460ff165b806116c4575060036000836000191660001916815260200190815260200160002060007fffffffffffffffffffffffffffffffffffffffffffffffffffffffffffffffff600102600019166000191681526020019081526020016000206000857bffffffffffffffffffffffffffffffffffffffffffffffffffffffff191660001916815260200190815260200160002060009054906101000a900460ff165b8061176c575060036000836000191660001916815260200190815260200160002060007fffffffffffffffffffffffffffffffffffffffffffffffffffffffffffffffff6001026000191660001916815260200190815260200160002060007fffffffffffffffffffffffffffffffffffffffffffffffffffffffffffffffff6001026000191660001916815260200190815260200160002060009054906101000a900460ff165b8061180c5750600360007fffffffffffffffffffffffffffffffffffffffffffffffffffffffffffffffff60010260001916600019168152602001908152602001600020600082600019166000191681526020019081526020016000206000857bffffffffffffffffffffffffffffffffffffffffffffffffffffffff191660001916815260200190815260200160002060009054906101000a900460ff165b806118b45750600360007fffffffffffffffffffffffffffffffffffffffffffffffffffffffffffffffff600102600019166000191681526020019081526020016000206000826000191660001916815260200190815260200160002060007fffffffffffffffffffffffffffffffffffffffffffffffffffffffffffffffff6001026000191660001916815260200190815260200160002060009054906101000a900460ff165b806119775750600360007fffffffffffffffffffffffffffffffffffffffffffffffffffffffffffffffff6001026000191660001916815260200190815260200160002060007fffffffffffffffffffffffffffffffffffffffffffffffffffffffffffffffff600102600019166000191681526020019081526020016000206000857bffffffffffffffffffffffffffffffffffffffffffffffffffffffff191660001916815260200190815260200160002060009054906101000a900460ff165b80611a425750600360007fffffffffffffffffffffffffffffffffffffffffffffffffffffffffffffffff6001026000191660001916815260200190815260200160002060007fffffffffffffffffffffffffffffffffffffffffffffffffffffffffffffffff6001026000191660001916815260200190815260200160002060007fffffffffffffffffffffffffffffffffffffffffffffffffffffffffffffffff6001026000191660001916815260200190815260200160002060009054906101000a900460ff165b925050509392505050565b600160009054906101000a900473ffffffffffffffffffffffffffffffffffffffff1681565b611ab08373ffffffffffffffffffffffffffffffffffffffff166001028373ffffffffffffffffffffffffffffffffffffffff1660010283611ab5565b505050565b611ae3336000357fffffffff0000000000000000000000000000000000000000000000000000000016611d33565b1515611aee57600080fd5b6001600360008560001916600019168152602001908152602001600020600084600019166000191681526020019081526020016000206000836000191660001916815260200190815260200160002060006101000a81548160ff0219169083151502179055508060001916826000191684600019167f6f50375045128971c5469d343039ba7b8e30a5b190453737b28bda6f7a30677160405160405180910390a4505050565b611bd36040805190810160405280600581526020017f6f776e657200000000000000000000000000000000000000000000000000000081525033611fac565b80611c195750611c186040805190810160405280600581526020017f61646d696e00000000000000000000000000000000000000000000000000000081525033611fac565b5b1515611c2457600080fd5b600060019054906101000a900473ffffffffffffffffffffffffffffffffffffffff1673ffffffffffffffffffffffffffffffffffffffff1663e2a4853a60405180807f746573742e6e756d2e3100000000000000000000000000000000000000000000815250600a0190506040518091039020836040518363ffffffff167c010000000000000000000000000000000000000000000000000000000002815260040180836000191660001916815260200182815260200192505050600060405180830381600087803b158015611cfa57600080fd5b505af1158015611d0e573d6000803e3d6000fd5b5050505050565b6000808284019050838110151515611d2957fe5b8091505092915050565b60003073ffffffffffffffffffffffffffffffffffffffff168373ffffffffffffffffffffffffffffffffffffffff161415611d725760019050611fa6565b600260009054906101000a900473ffffffffffffffffffffffffffffffffffffffff1673ffffffffffffffffffffffffffffffffffffffff168373ffffffffffffffffffffffffffffffffffffffff161415611dd15760019050611fa6565b600073ffffffffffffffffffffffffffffffffffffffff16600160009054906101000a900473ffffffffffffffffffffffffffffffffffffffff1673ffffffffffffffffffffffffffffffffffffffff161415611e315760009050611fa6565b600160009054906101000a900473ffffffffffffffffffffffffffffffffffffffff1673ffffffffffffffffffffffffffffffffffffffff1663b70096138430856040518463ffffffff167c0100000000000000000000000000000000000000000000000000000000028152600401808473ffffffffffffffffffffffffffffffffffffffff1673ffffffffffffffffffffffffffffffffffffffff1681526020018373ffffffffffffffffffffffffffffffffffffffff1673ffffffffffffffffffffffffffffffffffffffff168152602001827bffffffffffffffffffffffffffffffffffffffffffffffffffffffff19167bffffffffffffffffffffffffffffffffffffffffffffffffffffffff191681526020019350505050602060405180830381600087803b158015611f6857600080fd5b505af1158015611f7c573d6000803e3d6000fd5b505050506040513d6020811015611f9257600080fd5b810190808051906020019092919050505090505b92915050565b60008060019054906101000a900473ffffffffffffffffffffffffffffffffffffffff1673ffffffffffffffffffffffffffffffffffffffff16637ae1cfca848460405180807f6163636573732e726f6c65000000000000000000000000000000000000000000815250600b0183805190602001908083835b60208310151561204a5780518252602082019150602081019050602083039250612025565b6001836020036101000a0380198251168184511680821785525050505050509050018273ffffffffffffffffffffffffffffffffffffffff1673ffffffffffffffffffffffffffffffffffffffff166c010000000000000000000000000281526014019250505060405180910390206040518263ffffffff167c0100000000000000000000000000000000000000000000000000000000028152600401808260001916600019168152602001915050602060405180830381600087803b15801561211357600080fd5b505af1158015612127573d6000803e3d6000fd5b505050506040513d602081101561213d57600080fd5b81019080805190602001909291905050509050929150505600a165627a7a72305820d911f5ce980fa3ce576ec244927a5c552e8e1d834f94313b36ed333a8ab83d170029",
  "source": "pragma solidity ^0.4.23;\n\nimport \"../lib/SafeMath.sol\";\nimport \"./DemoBase.sol\";\nimport \"../lib/ds-guard.sol\";\n\ncontract TestContract is DemoBase,DSGuard{\n\n    using SafeMath for uint;\n\n    DSGuard public dsguard;\n\n    event SumNum(\n        uint256 _TestNum1,\n        uint256 _Test1Num1,\n        uint256 created\n    );\n    \n    constructor(address _demoStorageAddress) DemoBase(_demoStorageAddress) public {\n        version = 1;\n    }\n\n    function setGuard() public onlySuperUser{\n        dsguard.permit(\n            msg.sender,\n            demoStorage.getAddress(keccak256(\"contract.name\",\"Test1Contract\")),\n            ANY\n        );\n    }\n\n    function TwoNumSum(uint _num1,uint _num2) public {\n        demoStorage.setUint(keccak256(\"test.twonumsum\"),_num1.add(_num2));\n    }\n\n    function TwoNumSum2() public returns (uint) {\n        emit SumNum(getTestNum1(),getTest1Num1(),now);\n        return getTestNum1().add(getTest1Num1());\n        // demoStorage.setUint(keccak256(\"test.twonumsum.2\"),getTestNum1().add(14));\n    }\n\n    function setTestNum1(uint _num) public onlySuperUser{\n        demoStorage.setUint(keccak256(\"test.num.1\"),_num);\n    }\n\n    function getTestNum1() public view returns (uint256){\n        return demoStorage.getUint(keccak256(\"test.num.1\"));\n    }\n\n    function getTest1Num1() public view returns (uint256){\n        return demoStorage.getUint(keccak256(\"test1.num.1\"));\n    }\n\n    function getTest1Num2() public view returns (uint256){\n        return demoStorage.getUint(keccak256(\"test1.num.2\"));\n    }\n\n    function getSum() public view returns (uint256){\n        return demoStorage.getUint(keccak256(\"test.twonumsum\"));\n    }\n\n    function getSum2() public view returns (uint256){\n        return demoStorage.getUint(keccak256(\"test.twonumsum.2\"));\n    }\n\n    function deleteTestNum1() public {\n        demoStorage.deleteUint(keccak256(\"test.num.1\"));\n    }\n\n}",
  "sourcePath": "/home/a186r/develop/truffled/scdemo/contracts/TestContract.sol",
  "compiler": {
    "name": "solc",
    "version": "0.4.23+commit.124ca40d.Emscripten.clang"
  },
  "schemaVersion": "2.0.0",
  "updatedAt": "2018-05-29T03:27:21.755Z"
}