{
  "contractName": "ValidatorSet",
  "abi": [
    {
      "constant": true,
      "inputs": [],
      "name": "version",
      "outputs": [
        {
          "name": "",
          "type": "uint8"
        }
      ],
      "payable": false,
      "stateMutability": "view",
      "type": "function"
    },
    {
      "inputs": [
        {
          "name": "_demoStorageAddress",
          "type": "address"
        }
      ],
      "payable": false,
      "stateMutability": "nonpayable",
      "type": "constructor"
    },
    {
      "anonymous": false,
      "inputs": [
        {
          "indexed": true,
          "name": "_validatorAddress",
          "type": "address"
        },
        {
          "indexed": false,
          "name": "created",
          "type": "uint256"
        }
      ],
      "name": "ValidatorAdded",
      "type": "event"
    },
    {
      "anonymous": false,
      "inputs": [
        {
          "indexed": true,
          "name": "_validatorAddress",
          "type": "address"
        },
        {
          "indexed": false,
          "name": "created",
          "type": "uint256"
        }
      ],
      "name": "ValidatorRemoved",
      "type": "event"
    },
    {
      "anonymous": false,
      "inputs": [
        {
          "indexed": true,
          "name": "reporter",
          "type": "address"
        },
        {
          "indexed": true,
          "name": "reported",
          "type": "address"
        },
        {
          "indexed": true,
          "name": "malicious",
          "type": "bool"
        }
      ],
      "name": "Report",
      "type": "event"
    },
    {
      "anonymous": false,
      "inputs": [
        {
          "indexed": false,
          "name": "currentSet",
          "type": "address[]"
        }
      ],
      "name": "ChangeFinalized",
      "type": "event"
    },
    {
      "anonymous": false,
      "inputs": [
        {
          "indexed": true,
          "name": "_parent_hash",
          "type": "bytes32"
        },
        {
          "indexed": false,
          "name": "_new_set",
          "type": "address[]"
        }
      ],
      "name": "InitiateChange",
      "type": "event"
    },
    {
      "constant": false,
      "inputs": [
        {
          "name": "_initial",
          "type": "address[]"
        }
      ],
      "name": "initialValidators",
      "outputs": [],
      "payable": false,
      "stateMutability": "nonpayable",
      "type": "function"
    },
    {
      "constant": true,
      "inputs": [],
      "name": "getValidators",
      "outputs": [
        {
          "name": "",
          "type": "address[]"
        }
      ],
      "payable": false,
      "stateMutability": "view",
      "type": "function"
    },
    {
      "constant": true,
      "inputs": [],
      "name": "getPending",
      "outputs": [
        {
          "name": "",
          "type": "address[]"
        }
      ],
      "payable": false,
      "stateMutability": "view",
      "type": "function"
    },
    {
      "constant": false,
      "inputs": [],
      "name": "finalizeChange",
      "outputs": [],
      "payable": false,
      "stateMutability": "nonpayable",
      "type": "function"
    },
    {
      "constant": false,
      "inputs": [
        {
          "name": "_validator",
          "type": "address"
        }
      ],
      "name": "addValidator",
      "outputs": [],
      "payable": false,
      "stateMutability": "nonpayable",
      "type": "function"
    },
    {
      "constant": false,
      "inputs": [
        {
          "name": "_validator",
          "type": "address"
        }
      ],
      "name": "removeValidator",
      "outputs": [],
      "payable": false,
      "stateMutability": "nonpayable",
      "type": "function"
    },
    {
      "constant": false,
      "inputs": [
        {
          "name": "_validator",
          "type": "address"
        },
        {
          "name": "_blockNumber",
          "type": "uint256"
        },
        {
          "name": "",
          "type": "bytes"
        }
      ],
      "name": "reportMalicious",
      "outputs": [],
      "payable": false,
      "stateMutability": "nonpayable",
      "type": "function"
    },
    {
      "constant": false,
      "inputs": [
        {
          "name": "_validator",
          "type": "address"
        },
        {
          "name": "_blockNumber",
          "type": "uint256"
        }
      ],
      "name": "reportBenign",
      "outputs": [],
      "payable": false,
      "stateMutability": "nonpayable",
      "type": "function"
    },
    {
      "constant": true,
      "inputs": [
        {
          "name": "_someAddress",
          "type": "address"
        }
      ],
      "name": "getIsIn",
      "outputs": [
        {
          "name": "",
          "type": "bool"
        }
      ],
      "payable": false,
      "stateMutability": "view",
      "type": "function"
    },
    {
      "constant": true,
      "inputs": [
        {
          "name": "_someAddress",
          "type": "address"
        }
      ],
      "name": "getIndex",
      "outputs": [
        {
          "name": "",
          "type": "uint256"
        }
      ],
      "payable": false,
      "stateMutability": "view",
      "type": "function"
    },
    {
      "constant": true,
      "inputs": [],
      "name": "getFinalized",
      "outputs": [
        {
          "name": "",
          "type": "bool"
        }
      ],
      "payable": false,
      "stateMutability": "view",
      "type": "function"
    },
    {
      "constant": true,
      "inputs": [],
      "name": "getRecentBlocks",
      "outputs": [
        {
          "name": "",
          "type": "uint256"
        }
      ],
      "payable": false,
      "stateMutability": "view",
      "type": "function"
    },
    {
      "constant": true,
      "inputs": [],
      "name": "getSystemAddress",
      "outputs": [
        {
          "name": "",
          "type": "address"
        }
      ],
      "payable": false,
      "stateMutability": "view",
      "type": "function"
    },
    {
      "constant": false,
      "inputs": [
        {
          "name": "_someAddress",
          "type": "address"
        },
        {
          "name": "_enable",
          "type": "bool"
        }
      ],
      "name": "setIsIn",
      "outputs": [],
      "payable": false,
      "stateMutability": "nonpayable",
      "type": "function"
    },
    {
      "constant": false,
      "inputs": [
        {
          "name": "_someAddress",
          "type": "address"
        },
        {
          "name": "index",
          "type": "uint256"
        }
      ],
      "name": "setIndex",
      "outputs": [],
      "payable": false,
      "stateMutability": "nonpayable",
      "type": "function"
    },
    {
      "constant": false,
      "inputs": [
        {
          "name": "_enabled",
          "type": "bool"
        }
      ],
      "name": "setFinalized",
      "outputs": [],
      "payable": false,
      "stateMutability": "nonpayable",
      "type": "function"
    },
    {
      "constant": false,
      "inputs": [
        {
          "name": "_recentBlocks",
          "type": "uint256"
        }
      ],
      "name": "setRecentBlocks",
      "outputs": [],
      "payable": false,
      "stateMutability": "nonpayable",
      "type": "function"
    },
    {
      "constant": false,
      "inputs": [
        {
          "name": "_systemAddress",
          "type": "address"
        }
      ],
      "name": "setSystemAddress",
      "outputs": [],
      "payable": false,
      "stateMutability": "nonpayable",
      "type": "function"
    }
  ],
  "bytecode": "0x608060405260008060016101000a81548173ffffffffffffffffffffffffffffffffffffffff021916908373ffffffffffffffffffffffffffffffffffffffff16021790555034801561005157600080fd5b506040516020806120b1833981018060405281019080805190602001909291905050508080600060016101000a81548173ffffffffffffffffffffffffffffffffffffffff021916908373ffffffffffffffffffffffffffffffffffffffff1602179055505060016000806101000a81548160ff021916908360ff16021790555050611fcf806100e26000396000f300608060405260043610610107576000357c0100000000000000000000000000000000000000000000000000000000900463ffffffff168063062101971461010c57806311ae9ed21461014f57806320b27291146101bb57806340a141ff146101ea5780634d238c8e1461022d57806354fd4d5014610270578063562a0351146102a15780635caf5a6a146102cc5780636b28a5e41461031957806375286211146103485780637fb56a0a1461035f5780638c90ac07146103ba5780638dd3848f146103e7578063b31610db1461043e578063b7ab4db514610495578063c10acfc114610501578063c476dd4014610567578063d69f13bb146105fa578063d8ef33e814610647575b600080fd5b34801561011857600080fd5b5061014d600480360381019080803573ffffffffffffffffffffffffffffffffffffffff169060200190929190505050610696565b005b34801561015b57600080fd5b50610164610843565b6040518080602001828103825283818151815260200191508051906020019060200280838360005b838110156101a757808201518184015260208101905061018c565b505050509050019250505060405180910390f35b3480156101c757600080fd5b506101e86004803603810190808035151590602001909291905050506108d1565b005b3480156101f657600080fd5b5061022b600480360381019080803573ffffffffffffffffffffffffffffffffffffffff169060200190929190505050610a56565b005b34801561023957600080fd5b5061026e600480360381019080803573ffffffffffffffffffffffffffffffffffffffff169060200190929190505050610c08565b005b34801561027c57600080fd5b50610285610d35565b604051808260ff1660ff16815260200191505060405180910390f35b3480156102ad57600080fd5b506102b6610d47565b6040518082815260200191505060405180910390f35b3480156102d857600080fd5b50610317600480360381019080803573ffffffffffffffffffffffffffffffffffffffff16906020019092919080359060200190929190505050610e56565b005b34801561032557600080fd5b5061032e61101b565b604051808215151515815260200191505060405180910390f35b34801561035457600080fd5b5061035d61112a565b005b34801561036b57600080fd5b506103a0600480360381019080803573ffffffffffffffffffffffffffffffffffffffff169060200190929190505050611219565b604051808215151515815260200191505060405180910390f35b3480156103c657600080fd5b506103e56004803603810190808035906020019092919050505061136d565b005b3480156103f357600080fd5b506103fc6114ee565b604051808273ffffffffffffffffffffffffffffffffffffffff1673ffffffffffffffffffffffffffffffffffffffff16815260200191505060405180910390f35b34801561044a57600080fd5b5061047f600480360381019080803573ffffffffffffffffffffffffffffffffffffffff1690602001909291905050506115fd565b6040518082815260200191505060405180910390f35b3480156104a157600080fd5b506104aa611751565b6040518080602001828103825283818151815260200191508051906020019060200280838360005b838110156104ed5780820151818401526020810190506104d2565b505050509050019250505060405180910390f35b34801561050d57600080fd5b50610565600480360381019080803590602001908201803590602001908080602002602001604051908101604052809392919081815260200183836020028082843782019150505050505091929192905050506117df565b005b34801561057357600080fd5b506105f8600480360381019080803573ffffffffffffffffffffffffffffffffffffffff16906020019092919080359060200190929190803590602001908201803590602001908080601f0160208091040260200160405190810160405280939291908181526020018383808284378201915050505050509192919290505050611870565b005b34801561060657600080fd5b50610645600480360381019080803573ffffffffffffffffffffffffffffffffffffffff1690602001909291908035906020019092919050505061192c565b005b34801561065357600080fd5b50610694600480360381019080803573ffffffffffffffffffffffffffffffffffffffff1690602001909291908035151590602001909291905050506119f8565b005b6106d56040805190810160405280600581526020017f6f776e657200000000000000000000000000000000000000000000000000000081525033611bc1565b8061071b575061071a6040805190810160405280600581526020017f61646d696e00000000000000000000000000000000000000000000000000000081525033611bc1565b5b151561072657600080fd5b600060019054906101000a900473ffffffffffffffffffffffffffffffffffffffff1673ffffffffffffffffffffffffffffffffffffffff1663ca446dd960405180807f766f6c696461746f727365742e73797374656d2e616464726573730000000000815250601b0190506040518091039020836040518363ffffffff167c01000000000000000000000000000000000000000000000000000000000281526004018083600019166000191681526020018273ffffffffffffffffffffffffffffffffffffffff1673ffffffffffffffffffffffffffffffffffffffff16815260200192505050600060405180830381600087803b15801561082857600080fd5b505af115801561083c573d6000803e3d6000fd5b5050505050565b606060028054806020026020016040519081016040528092919081815260200182805480156108c757602002820191906000526020600020905b8160009054906101000a900473ffffffffffffffffffffffffffffffffffffffff1673ffffffffffffffffffffffffffffffffffffffff168152602001906001019080831161087d575b5050505050905090565b6109106040805190810160405280600581526020017f6f776e657200000000000000000000000000000000000000000000000000000081525033611bc1565b8061095657506109556040805190810160405280600581526020017f61646d696e00000000000000000000000000000000000000000000000000000081525033611bc1565b5b151561096157600080fd5b600060019054906101000a900473ffffffffffffffffffffffffffffffffffffffff1673ffffffffffffffffffffffffffffffffffffffff1663abfdcced60405180807f766f6c696461746f727365742e66696e616c697a65640000000000000000000081525060160190506040518091039020836040518363ffffffff167c01000000000000000000000000000000000000000000000000000000000281526004018083600019166000191681526020018215151515815260200192505050600060405180830381600087803b158015610a3b57600080fd5b505af1158015610a4f573d6000803e3d6000fd5b5050505050565b610a956040805190810160405280600581526020017f6f776e657200000000000000000000000000000000000000000000000000000081525033611bc1565b80610adb5750610ada6040805190810160405280600581526020017f61646d696e00000000000000000000000000000000000000000000000000000081525033611bc1565b5b1515610ae657600080fd5b80610af081611219565b15610c04576002600160028054905003815481101515610b0c57fe5b9060005260206000200160009054906101000a900473ffffffffffffffffffffffffffffffffffffffff166002610b42846115fd565b815481101515610b4e57fe5b9060005260206000200160006101000a81548173ffffffffffffffffffffffffffffffffffffffff021916908373ffffffffffffffffffffffffffffffffffffffff1602179055506002600160028054905003815481101515610bad57fe5b9060005260206000200160006101000a81549073ffffffffffffffffffffffffffffffffffffffff02191690556002805480919060019003610bef9190611e33565b50610bfb8260006119f8565b610c03611d6b565b5b5050565b610c476040805190810160405280600581526020017f6f776e657200000000000000000000000000000000000000000000000000000081525033611bc1565b80610c8d5750610c8c6040805190810160405280600581526020017f61646d696e00000000000000000000000000000000000000000000000000000081525033611bc1565b5b1515610c9857600080fd5b80610ca281611219565b1515610d3157610cb38260016119f8565b610cc282600280549050610e56565b60028290806001815401808255809150509060018203906000526020600020016000909192909190916101000a81548173ffffffffffffffffffffffffffffffffffffffff021916908373ffffffffffffffffffffffffffffffffffffffff16021790555050610d30611d6b565b5b5050565b6000809054906101000a900460ff1681565b60008060019054906101000a900473ffffffffffffffffffffffffffffffffffffffff1673ffffffffffffffffffffffffffffffffffffffff1663bd02d0f560405180807f766f6c696461746f727365742e726563656e742e626c6f636b73000000000000815250601a01905060405180910390206040518263ffffffff167c0100000000000000000000000000000000000000000000000000000000028152600401808260001916600019168152602001915050602060405180830381600087803b158015610e1657600080fd5b505af1158015610e2a573d6000803e3d6000fd5b505050506040513d6020811015610e4057600080fd5b8101908080519060200190929190505050905090565b610e956040805190810160405280600581526020017f6f776e657200000000000000000000000000000000000000000000000000000081525033611bc1565b80610edb5750610eda6040805190810160405280600581526020017f61646d696e00000000000000000000000000000000000000000000000000000081525033611bc1565b5b1515610ee657600080fd5b600060019054906101000a900473ffffffffffffffffffffffffffffffffffffffff1673ffffffffffffffffffffffffffffffffffffffff1663e2a4853a8360405180807f70656e64696e672e7374617475732e696e6465780000000000000000000000008152506014018273ffffffffffffffffffffffffffffffffffffffff1673ffffffffffffffffffffffffffffffffffffffff166c010000000000000000000000000281526014019150506040518091039020836040518363ffffffff167c010000000000000000000000000000000000000000000000000000000002815260040180836000191660001916815260200182815260200192505050600060405180830381600087803b158015610fff57600080fd5b505af1158015611013573d6000803e3d6000fd5b505050505050565b60008060019054906101000a900473ffffffffffffffffffffffffffffffffffffffff1673ffffffffffffffffffffffffffffffffffffffff16637ae1cfca60405180807f766f6c696461746f727365742e66696e616c697a656400000000000000000000815250601601905060405180910390206040518263ffffffff167c0100000000000000000000000000000000000000000000000000000000028152600401808260001916600019168152602001915050602060405180830381600087803b1580156110ea57600080fd5b505af11580156110fe573d6000803e3d6000fd5b505050506040513d602081101561111457600080fd5b8101908080519060200190929190505050905090565b6111326114ee565b73ffffffffffffffffffffffffffffffffffffffff163373ffffffffffffffffffffffffffffffffffffffff16141580611170575061116f61101b565b5b151561117b57600080fd5b6002600190805461118d929190611e5f565b5061119860016108d1565b7f8564cd629b15f47dc310d45bcbfc9bcf5420b0d51bf0659a16c67f91d27632536111c1611751565b6040518080602001828103825283818151815260200191508051906020019060200280838360005b838110156112045780820151818401526020810190506111e9565b505050509050019250505060405180910390a1565b60008060019054906101000a900473ffffffffffffffffffffffffffffffffffffffff1673ffffffffffffffffffffffffffffffffffffffff16637ae1cfca8360405180807f70656e64696e672e7374617475732e69732e696e0000000000000000000000008152506014018273ffffffffffffffffffffffffffffffffffffffff1673ffffffffffffffffffffffffffffffffffffffff166c0100000000000000000000000002815260140191505060405180910390206040518263ffffffff167c0100000000000000000000000000000000000000000000000000000000028152600401808260001916600019168152602001915050602060405180830381600087803b15801561132b57600080fd5b505af115801561133f573d6000803e3d6000fd5b505050506040513d602081101561135557600080fd5b81019080805190602001909291905050509050919050565b6113ac6040805190810160405280600581526020017f6f776e657200000000000000000000000000000000000000000000000000000081525033611bc1565b806113f257506113f16040805190810160405280600581526020017f61646d696e00000000000000000000000000000000000000000000000000000081525033611bc1565b5b15156113fd57600080fd5b600060019054906101000a900473ffffffffffffffffffffffffffffffffffffffff1673ffffffffffffffffffffffffffffffffffffffff1663e2a4853a60405180807f766f6c696461746f727365742e726563656e742e626c6f636b73000000000000815250601a0190506040518091039020836040518363ffffffff167c010000000000000000000000000000000000000000000000000000000002815260040180836000191660001916815260200182815260200192505050600060405180830381600087803b1580156114d357600080fd5b505af11580156114e7573d6000803e3d6000fd5b5050505050565b60008060019054906101000a900473ffffffffffffffffffffffffffffffffffffffff1673ffffffffffffffffffffffffffffffffffffffff166321f8a72160405180807f766f6c696461746f727365742e73797374656d2e616464726573730000000000815250601b01905060405180910390206040518263ffffffff167c0100000000000000000000000000000000000000000000000000000000028152600401808260001916600019168152602001915050602060405180830381600087803b1580156115bd57600080fd5b505af11580156115d1573d6000803e3d6000fd5b505050506040513d60208110156115e757600080fd5b8101908080519060200190929190505050905090565b60008060019054906101000a900473ffffffffffffffffffffffffffffffffffffffff1673ffffffffffffffffffffffffffffffffffffffff1663bd02d0f58360405180807f70656e64696e672e7374617475732e696e6465780000000000000000000000008152506014018273ffffffffffffffffffffffffffffffffffffffff1673ffffffffffffffffffffffffffffffffffffffff166c0100000000000000000000000002815260140191505060405180910390206040518263ffffffff167c0100000000000000000000000000000000000000000000000000000000028152600401808260001916600019168152602001915050602060405180830381600087803b15801561170f57600080fd5b505af1158015611723573d6000803e3d6000fd5b505050506040513d602081101561173957600080fd5b81019080805190602001909291905050509050919050565b606060018054806020026020016040519081016040528092919081815260200182805480156117d557602002820191906000526020600020905b8160009054906101000a900473ffffffffffffffffffffffffffffffffffffffff1673ffffffffffffffffffffffffffffffffffffffff168152602001906001019080831161178b575b5050505050905090565b600081600290805190602001906117f7929190611eb1565b50600090505b60018251038110156118595761182b828281518110151561181a57fe5b9060200190602002015160016119f8565b61184c828281518110151561183c57fe5b9060200190602002015182610e56565b80806001019150506117fd565b6002600190805461186b929190611e5f565b505050565b6118af6040805190810160405280600581526020017f6f776e657200000000000000000000000000000000000000000000000000000081525033611e13565b816118b8610d47565b810143111515156118c857600080fd5b600115158473ffffffffffffffffffffffffffffffffffffffff163373ffffffffffffffffffffffffffffffffffffffff167f32c78b6140c46745a46e88cd883707d70dbd2f06d13dd76fe5f499c01290da4f60405160405180910390a450505050565b61196b6040805190810160405280600581526020017f6f776e657200000000000000000000000000000000000000000000000000000081525033611e13565b8161197581611219565b156119f35781611983610d47565b8101431115151561199357600080fd5b600015158473ffffffffffffffffffffffffffffffffffffffff163373ffffffffffffffffffffffffffffffffffffffff167f32c78b6140c46745a46e88cd883707d70dbd2f06d13dd76fe5f499c01290da4f60405160405180910390a4505b505050565b611a376040805190810160405280600581526020017f6f776e657200000000000000000000000000000000000000000000000000000081525033611bc1565b80611a7d5750611a7c6040805190810160405280600581526020017f61646d696e00000000000000000000000000000000000000000000000000000081525033611bc1565b5b1515611a8857600080fd5b600060019054906101000a900473ffffffffffffffffffffffffffffffffffffffff1673ffffffffffffffffffffffffffffffffffffffff1663abfdcced8360405180807f70656e64696e672e7374617475732e69732e696e0000000000000000000000008152506014018273ffffffffffffffffffffffffffffffffffffffff1673ffffffffffffffffffffffffffffffffffffffff166c010000000000000000000000000281526014019150506040518091039020836040518363ffffffff167c01000000000000000000000000000000000000000000000000000000000281526004018083600019166000191681526020018215151515815260200192505050600060405180830381600087803b158015611ba557600080fd5b505af1158015611bb9573d6000803e3d6000fd5b505050505050565b60008060019054906101000a900473ffffffffffffffffffffffffffffffffffffffff1673ffffffffffffffffffffffffffffffffffffffff16637ae1cfca848460405180807f6163636573732e726f6c65000000000000000000000000000000000000000000815250600b0183805190602001908083835b602083101515611c5f5780518252602082019150602081019050602083039250611c3a565b6001836020036101000a0380198251168184511680821785525050505050509050018273ffffffffffffffffffffffffffffffffffffffff1673ffffffffffffffffffffffffffffffffffffffff166c010000000000000000000000000281526014019250505060405180910390206040518263ffffffff167c0100000000000000000000000000000000000000000000000000000000028152600401808260001916600019168152602001915050602060405180830381600087803b158015611d2857600080fd5b505af1158015611d3c573d6000803e3d6000fd5b505050506040513d6020811015611d5257600080fd5b8101908080519060200190929190505050905092915050565b611d7361101b565b151515611d7f57600080fd5b611d8960006108d1565b6001430340600019167f55252fa6eee4741b4e24a74a70e9c11fd2c2281df8d6ea13126ff845f7825c89611dbb610843565b6040518080602001828103825283818151815260200191508051906020019060200280838360005b83811015611dfe578082015181840152602081019050611de3565b505050509050019250505060405180910390a2565b60011515611e218383611bc1565b1515141515611e2f57600080fd5b5050565b815481835581811115611e5a57818360005260206000209182019101611e599190611f3b565b5b505050565b828054828255906000526020600020908101928215611ea05760005260206000209182015b82811115611e9f578254825591600101919060010190611e84565b5b509050611ead9190611f60565b5090565b828054828255906000526020600020908101928215611f2a579160200282015b82811115611f295782518260006101000a81548173ffffffffffffffffffffffffffffffffffffffff021916908373ffffffffffffffffffffffffffffffffffffffff16021790555091602001919060010190611ed1565b5b509050611f379190611f60565b5090565b611f5d91905b80821115611f59576000816000905550600101611f41565b5090565b90565b611fa091905b80821115611f9c57600081816101000a81549073ffffffffffffffffffffffffffffffffffffffff021916905550600101611f66565b5090565b905600a165627a7a723058206c8c6872e9704b8fe7ade98a58e587a11dd7e683c247e659c45e5130c72421bb0029",
  "source": "// \npragma solidity ^0.4.23;\n\nimport \"./DemoStorage.sol\";\nimport \"../interface/ValidatorSetInterface.sol\";\n\n// v1.0 superuser\n// v2.0 \n\ncontract ValidatorSet is ValidatorSetInterface{\n\n    event ValidatorAdded(\n        address indexed _validatorAddress,\n        uint256 created\n    );\n\n    event ValidatorRemoved(\n        address indexed _validatorAddress,\n        uint256 created\n    );\n\n\n    event Report(\n        address indexed reporter, \n        address indexed reported, \n        bool indexed malicious\n    );\n\n    event ChangeFinalized(\n        address[] currentSet\n    );\n\n    modifier onlySystemAndNotFinalized() {\n        require(msg.sender != getSystemAddress() || getFinalized());\n        _;\n    }\n\n    modifier whenFinalized(){\n        require(!getFinalized());\n        _;\n    }\n\n    modifier isValidator(address _someone){\n        if(getIsIn(_someone)){\n            _;\n        }\n    }\n\n    modifier isPending(address _someone){\n        if(getIsIn(_someone)){\n            _;\n        }\n    }\n\n    modifier isNotPending(address _someone){\n        if(!getIsIn(_someone)){\n            _;\n        }\n    }\n\n    modifier isRecent(uint256 _blockNumber){\n        require(block.number <= _blockNumber + getRecentBlocks());\n        _;\n    }\n\n    constructor (address _demoStorageAddress) DemoBase(_demoStorageAddress) public {\n        version = 1;\n    }\n\n    address[] validators;\n    address[] pending;\n\n    function initialValidators(address[] _initial) public {\n        // address[] storage pending = new address[](demoStorage.getUint(keccak256(\"as\")));\n        pending = _initial;\n        for(uint i = 0;i < _initial.length -1 ; i++){\n            setIsIn(_initial[i],true);\n            setIndex(_initial[i],i);\n        }\n        validators = pending;\n    }\n\n    function getValidators() public view returns(address[]){\n        return validators;\n    }\n\n    function getPending() public view returns(address[]){\n        return pending;\n    }\n\n    function finalizeChange() public onlySystemAndNotFinalized{\n        validators = pending;\n        setFinalized(true);\n        emit ChangeFinalized(getValidators());\n    }\n\n\n    // \n    function addValidator(address _validator) public onlySuperUser isNotPending(_validator){\n        setIsIn(_validator,true);\n        setIndex(_validator,pending.length);\n        pending.push(_validator);\n        initiateChange();\n    }\n\n    function removeValidator(address _validator) public onlySuperUser isPending(_validator){\n        pending[getIndex(_validator)] = pending[pending.length - 1];\n        delete pending[pending.length - 1];\n        pending.length--;\n        // Reset address status.\n        // delete pendingStatus[_validator].index;\n        //TODO: delete getIndex(_validator);\n        setIsIn(_validator,false);\n        // pendingStatus[_validator].isIn = false;\n        initiateChange();\n    }\n\n    // Called when a validator should be removed.\n    function reportMalicious(address _validator, uint _blockNumber, bytes /* _proof */) public onlyOwner isRecent(_blockNumber) {\n        emit Report(msg.sender, _validator, true);\n    }\n\n\t// Report that a validator has misbehaved in a benign way.\n    function reportBenign(address _validator, uint _blockNumber) public onlyOwner isValidator(_validator) isRecent(_blockNumber) {\n        emit Report(msg.sender, _validator, false);\n    }\n\n    // Log desire to change the current list.\n    function initiateChange() private whenFinalized {\n        setFinalized(false);\n        // solium-disable-next-line security/no-block-members\n        emit InitiateChange(blockhash(block.number - 1), getPending());\n    }\n\n\n    // getter\n    function getIsIn(address _someAddress) public view returns(bool){\n        return demoStorage.getBool(keccak256(\"pending.status.is.in\",_someAddress));\n    }\n\n    function getIndex(address _someAddress) public view returns(uint256){\n        return demoStorage.getUint(keccak256(\"pending.status.index\",_someAddress));\n    }\n\n    function getFinalized() public view returns (bool){\n        return demoStorage.getBool(keccak256(\"volidatorset.finalized\"));\n    }\n\n    function getRecentBlocks() public view returns (uint256){\n        return demoStorage.getUint(keccak256(\"volidatorset.recent.blocks\"));\n    }\n\n    function getSystemAddress() public view returns (address) {\n        return demoStorage.getAddress(keccak256(\"volidatorset.system.address\"));\n    }\n\n    // setter\n    function setIsIn(address _someAddress,bool _enable) public onlySuperUser{\n        demoStorage.setBool(keccak256(\"pending.status.is.in\",_someAddress),_enable);\n    }\n\n    function setIndex(address _someAddress,uint256 index) public onlySuperUser{\n        demoStorage.setUint(keccak256(\"pending.status.index\",_someAddress),index);\n    }\n\n    function setFinalized(bool _enabled) public onlySuperUser{\n        demoStorage.setBool(keccak256(\"volidatorset.finalized\"),_enabled);\n    }\n\n    function setRecentBlocks(uint256 _recentBlocks) public onlySuperUser{\n        demoStorage.setUint(keccak256(\"volidatorset.recent.blocks\"),_recentBlocks);\n    }\n\n    function setSystemAddress(address _systemAddress)public onlySuperUser{\n        demoStorage.setAddress(keccak256(\"volidatorset.system.address\"),_systemAddress);\n    }\n}",
  "sourcePath": "/home/a186r/develop/truffled/scdemo/contracts/ValidatorSetback.sol",
  "compiler": {
    "name": "solc",
    "version": "0.4.23+commit.124ca40d.Emscripten.clang"
  },
  "schemaVersion": "2.0.0",
  "updatedAt": "2018-06-01T08:25:32.084Z"
}