{
  "contractName": "ValidatorSet",
  "abi": [
    {
      "constant": true,
      "inputs": [],
      "name": "version",
      "outputs": [
        {
          "name": "",
          "type": "uint8"
        }
      ],
      "payable": false,
      "stateMutability": "view",
      "type": "function"
    },
    {
      "inputs": [
        {
          "name": "_demoStorageAddress",
          "type": "address"
        }
      ],
      "payable": false,
      "stateMutability": "nonpayable",
      "type": "constructor"
    },
    {
      "anonymous": false,
      "inputs": [
        {
          "indexed": true,
          "name": "_validatorAddress",
          "type": "address"
        },
        {
          "indexed": false,
          "name": "created",
          "type": "uint256"
        }
      ],
      "name": "ValidatorAdded",
      "type": "event"
    },
    {
      "anonymous": false,
      "inputs": [
        {
          "indexed": true,
          "name": "_validatorAddress",
          "type": "address"
        },
        {
          "indexed": false,
          "name": "created",
          "type": "uint256"
        }
      ],
      "name": "ValidatorRemoved",
      "type": "event"
    },
    {
      "anonymous": false,
      "inputs": [
        {
          "indexed": true,
          "name": "reporter",
          "type": "address"
        },
        {
          "indexed": true,
          "name": "reported",
          "type": "address"
        },
        {
          "indexed": true,
          "name": "malicious",
          "type": "bool"
        }
      ],
      "name": "Report",
      "type": "event"
    },
    {
      "anonymous": false,
      "inputs": [
        {
          "indexed": false,
          "name": "currentSet",
          "type": "address[]"
        }
      ],
      "name": "ChangeFinalized",
      "type": "event"
    },
    {
      "anonymous": false,
      "inputs": [
        {
          "indexed": true,
          "name": "_parent_hash",
          "type": "bytes32"
        },
        {
          "indexed": false,
          "name": "_new_set",
          "type": "address[]"
        }
      ],
      "name": "InitiateChange",
      "type": "event"
    },
    {
      "constant": false,
      "inputs": [
        {
          "name": "_initial",
          "type": "address[]"
        }
      ],
      "name": "initialValidators",
      "outputs": [],
      "payable": false,
      "stateMutability": "nonpayable",
      "type": "function"
    },
    {
      "constant": true,
      "inputs": [],
      "name": "getValidators",
      "outputs": [
        {
          "name": "",
          "type": "address[]"
        }
      ],
      "payable": false,
      "stateMutability": "view",
      "type": "function"
    },
    {
      "constant": true,
      "inputs": [],
      "name": "getPending",
      "outputs": [
        {
          "name": "",
          "type": "address[]"
        }
      ],
      "payable": false,
      "stateMutability": "view",
      "type": "function"
    },
    {
      "constant": false,
      "inputs": [],
      "name": "finalizeChange",
      "outputs": [],
      "payable": false,
      "stateMutability": "nonpayable",
      "type": "function"
    },
    {
      "constant": false,
      "inputs": [
        {
          "name": "_validator",
          "type": "address"
        }
      ],
      "name": "addValidator",
      "outputs": [],
      "payable": false,
      "stateMutability": "nonpayable",
      "type": "function"
    },
    {
      "constant": false,
      "inputs": [
        {
          "name": "_validator",
          "type": "address"
        }
      ],
      "name": "removeValidator",
      "outputs": [],
      "payable": false,
      "stateMutability": "nonpayable",
      "type": "function"
    },
    {
      "constant": false,
      "inputs": [
        {
          "name": "_validator",
          "type": "address"
        },
        {
          "name": "_blockNumber",
          "type": "uint256"
        },
        {
          "name": "",
          "type": "bytes"
        }
      ],
      "name": "reportMalicious",
      "outputs": [],
      "payable": false,
      "stateMutability": "nonpayable",
      "type": "function"
    },
    {
      "constant": false,
      "inputs": [
        {
          "name": "_validator",
          "type": "address"
        },
        {
          "name": "_blockNumber",
          "type": "uint256"
        }
      ],
      "name": "reportBenign",
      "outputs": [],
      "payable": false,
      "stateMutability": "nonpayable",
      "type": "function"
    },
    {
      "constant": true,
      "inputs": [
        {
          "name": "_someAddress",
          "type": "address"
        }
      ],
      "name": "getIsIn",
      "outputs": [
        {
          "name": "",
          "type": "bool"
        }
      ],
      "payable": false,
      "stateMutability": "view",
      "type": "function"
    },
    {
      "constant": true,
      "inputs": [
        {
          "name": "_someAddress",
          "type": "address"
        }
      ],
      "name": "getIndex",
      "outputs": [
        {
          "name": "",
          "type": "uint256"
        }
      ],
      "payable": false,
      "stateMutability": "view",
      "type": "function"
    },
    {
      "constant": true,
      "inputs": [],
      "name": "getFinalized",
      "outputs": [
        {
          "name": "",
          "type": "bool"
        }
      ],
      "payable": false,
      "stateMutability": "view",
      "type": "function"
    },
    {
      "constant": true,
      "inputs": [],
      "name": "getRecentBlocks",
      "outputs": [
        {
          "name": "",
          "type": "uint256"
        }
      ],
      "payable": false,
      "stateMutability": "view",
      "type": "function"
    },
    {
      "constant": true,
      "inputs": [],
      "name": "getSystemAddress",
      "outputs": [
        {
          "name": "",
          "type": "address"
        }
      ],
      "payable": false,
      "stateMutability": "view",
      "type": "function"
    },
    {
      "constant": false,
      "inputs": [
        {
          "name": "_someAddress",
          "type": "address"
        },
        {
          "name": "_enable",
          "type": "bool"
        }
      ],
      "name": "setIsIn",
      "outputs": [],
      "payable": false,
      "stateMutability": "nonpayable",
      "type": "function"
    },
    {
      "constant": false,
      "inputs": [
        {
          "name": "_someAddress",
          "type": "address"
        },
        {
          "name": "index",
          "type": "uint256"
        }
      ],
      "name": "setIndex",
      "outputs": [],
      "payable": false,
      "stateMutability": "nonpayable",
      "type": "function"
    },
    {
      "constant": false,
      "inputs": [
        {
          "name": "_enabled",
          "type": "bool"
        }
      ],
      "name": "setFinalized",
      "outputs": [],
      "payable": false,
      "stateMutability": "nonpayable",
      "type": "function"
    },
    {
      "constant": false,
      "inputs": [
        {
          "name": "_recentBlocks",
          "type": "uint256"
        }
      ],
      "name": "setRecentBlocks",
      "outputs": [],
      "payable": false,
      "stateMutability": "nonpayable",
      "type": "function"
    },
    {
      "constant": false,
      "inputs": [
        {
          "name": "_systemAddress",
          "type": "address"
        }
      ],
      "name": "setSystemAddress",
      "outputs": [],
      "payable": false,
      "stateMutability": "nonpayable",
      "type": "function"
    }
  ],
  "bytecode": "0x608060405260008060016101000a81548173ffffffffffffffffffffffffffffffffffffffff021916908373ffffffffffffffffffffffffffffffffffffffff16021790555034801561005157600080fd5b50604051602080612555833981018060405281019080805190602001909291905050508080600060016101000a81548173ffffffffffffffffffffffffffffffffffffffff021916908373ffffffffffffffffffffffffffffffffffffffff1602179055505060016000806101000a81548160ff021916908360ff16021790555050612473806100e26000396000f300608060405260043610610107576000357c0100000000000000000000000000000000000000000000000000000000900463ffffffff168063062101971461010c57806311ae9ed21461014f57806320b27291146101bb57806340a141ff146101ea5780634d238c8e1461022d57806354fd4d5014610270578063562a0351146102a15780635caf5a6a146102cc5780636b28a5e41461031957806375286211146103485780637fb56a0a1461035f5780638c90ac07146103ba5780638dd3848f146103e7578063b31610db1461043e578063b7ab4db514610495578063c10acfc114610501578063c476dd4014610567578063d69f13bb146105fa578063d8ef33e814610647575b600080fd5b34801561011857600080fd5b5061014d600480360381019080803573ffffffffffffffffffffffffffffffffffffffff169060200190929190505050610696565b005b34801561015b57600080fd5b506101646108af565b6040518080602001828103825283818151815260200191508051906020019060200280838360005b838110156101a757808201518184015260208101905061018c565b505050509050019250505060405180910390f35b3480156101c757600080fd5b506101e860048036038101908080351515906020019092919050505061093d565b005b3480156101f657600080fd5b5061022b600480360381019080803573ffffffffffffffffffffffffffffffffffffffff169060200190929190505050610b2e565b005b34801561023957600080fd5b5061026e600480360381019080803573ffffffffffffffffffffffffffffffffffffffff169060200190929190505050610ce0565b005b34801561027c57600080fd5b50610285610e0d565b604051808260ff1660ff16815260200191505060405180910390f35b3480156102ad57600080fd5b506102b6610e1f565b6040518082815260200191505060405180910390f35b3480156102d857600080fd5b50610317600480360381019080803573ffffffffffffffffffffffffffffffffffffffff16906020019092919080359060200190929190505050610f9a565b005b34801561032557600080fd5b5061032e6111cb565b604051808215151515815260200191505060405180910390f35b34801561035457600080fd5b5061035d611346565b005b34801561036b57600080fd5b506103a0600480360381019080803573ffffffffffffffffffffffffffffffffffffffff169060200190929190505050611435565b604051808215151515815260200191505060405180910390f35b3480156103c657600080fd5b506103e5600480360381019080803590602001909291905050506115f5565b005b3480156103f357600080fd5b506103fc6117e2565b604051808273ffffffffffffffffffffffffffffffffffffffff1673ffffffffffffffffffffffffffffffffffffffff16815260200191505060405180910390f35b34801561044a57600080fd5b5061047f600480360381019080803573ffffffffffffffffffffffffffffffffffffffff16906020019092919050505061195d565b6040518082815260200191505060405180910390f35b3480156104a157600080fd5b506104aa611b1d565b6040518080602001828103825283818151815260200191508051906020019060200280838360005b838110156104ed5780820151818401526020810190506104d2565b505050509050019250505060405180910390f35b34801561050d57600080fd5b5061056560048036038101908080359060200190820180359060200190808060200260200160405190810160405280939291908181526020018383602002808284378201915050505050509192919290505050611bab565b005b34801561057357600080fd5b506105f8600480360381019080803573ffffffffffffffffffffffffffffffffffffffff16906020019092919080359060200190929190803590602001908201803590602001908080601f0160208091040260200160405190810160405280939291908181526020018383808284378201915050505050509192919290505050611c3c565b005b34801561060657600080fd5b50610645600480360381019080803573ffffffffffffffffffffffffffffffffffffffff16906020019092919080359060200190929190505050611cf8565b005b34801561065357600080fd5b50610694600480360381019080803573ffffffffffffffffffffffffffffffffffffffff169060200190929190803515159060200190929190505050611dc4565b005b6106d56040805190810160405280600581526020017f6f776e657200000000000000000000000000000000000000000000000000000081525033611ff9565b8061071b575061071a6040805190810160405280600581526020017f61646d696e00000000000000000000000000000000000000000000000000000081525033611ff9565b5b151561072657600080fd5b600060019054906101000a900473ffffffffffffffffffffffffffffffffffffffff1673ffffffffffffffffffffffffffffffffffffffff1663ca446dd960405160200180807f766f6c696461746f727365742e73797374656d2e616464726573730000000000815250601b0190506040516020818303038152906040526040518082805190602001908083835b6020831015156107d957805182526020820191506020810190506020830392506107b4565b6001836020036101000a0380198251168184511680821785525050505050509050019150506040518091039020836040518363ffffffff167c01000000000000000000000000000000000000000000000000000000000281526004018083600019166000191681526020018273ffffffffffffffffffffffffffffffffffffffff1673ffffffffffffffffffffffffffffffffffffffff16815260200192505050600060405180830381600087803b15801561089457600080fd5b505af11580156108a8573d6000803e3d6000fd5b5050505050565b6060600280548060200260200160405190810160405280929190818152602001828054801561093357602002820191906000526020600020905b8160009054906101000a900473ffffffffffffffffffffffffffffffffffffffff1673ffffffffffffffffffffffffffffffffffffffff16815260200190600101908083116108e9575b5050505050905090565b61097c6040805190810160405280600581526020017f6f776e657200000000000000000000000000000000000000000000000000000081525033611ff9565b806109c257506109c16040805190810160405280600581526020017f61646d696e00000000000000000000000000000000000000000000000000000081525033611ff9565b5b15156109cd57600080fd5b600060019054906101000a900473ffffffffffffffffffffffffffffffffffffffff1673ffffffffffffffffffffffffffffffffffffffff1663abfdcced60405160200180807f766f6c696461746f727365742e66696e616c697a65640000000000000000000081525060160190506040516020818303038152906040526040518082805190602001908083835b602083101515610a805780518252602082019150602081019050602083039250610a5b565b6001836020036101000a0380198251168184511680821785525050505050509050019150506040518091039020836040518363ffffffff167c01000000000000000000000000000000000000000000000000000000000281526004018083600019166000191681526020018215151515815260200192505050600060405180830381600087803b158015610b1357600080fd5b505af1158015610b27573d6000803e3d6000fd5b5050505050565b610b6d6040805190810160405280600581526020017f6f776e657200000000000000000000000000000000000000000000000000000081525033611ff9565b80610bb35750610bb26040805190810160405280600581526020017f61646d696e00000000000000000000000000000000000000000000000000000081525033611ff9565b5b1515610bbe57600080fd5b80610bc881611435565b15610cdc576002600160028054905003815481101515610be457fe5b9060005260206000200160009054906101000a900473ffffffffffffffffffffffffffffffffffffffff166002610c1a8461195d565b815481101515610c2657fe5b9060005260206000200160006101000a81548173ffffffffffffffffffffffffffffffffffffffff021916908373ffffffffffffffffffffffffffffffffffffffff1602179055506002600160028054905003815481101515610c8557fe5b9060005260206000200160006101000a81549073ffffffffffffffffffffffffffffffffffffffff02191690556002805480919060019003610cc791906122d7565b50610cd3826000611dc4565b610cdb61220f565b5b5050565b610d1f6040805190810160405280600581526020017f6f776e657200000000000000000000000000000000000000000000000000000081525033611ff9565b80610d655750610d646040805190810160405280600581526020017f61646d696e00000000000000000000000000000000000000000000000000000081525033611ff9565b5b1515610d7057600080fd5b80610d7a81611435565b1515610e0957610d8b826001611dc4565b610d9a82600280549050610f9a565b60028290806001815401808255809150509060018203906000526020600020016000909192909190916101000a81548173ffffffffffffffffffffffffffffffffffffffff021916908373ffffffffffffffffffffffffffffffffffffffff16021790555050610e0861220f565b5b5050565b6000809054906101000a900460ff1681565b60008060019054906101000a900473ffffffffffffffffffffffffffffffffffffffff1673ffffffffffffffffffffffffffffffffffffffff1663bd02d0f560405160200180807f766f6c696461746f727365742e726563656e742e626c6f636b73000000000000815250601a0190506040516020818303038152906040526040518082805190602001908083835b602083101515610ed35780518252602082019150602081019050602083039250610eae565b6001836020036101000a03801982511681845116808217855250505050505090500191505060405180910390206040518263ffffffff167c0100000000000000000000000000000000000000000000000000000000028152600401808260001916600019168152602001915050602060405180830381600087803b158015610f5a57600080fd5b505af1158015610f6e573d6000803e3d6000fd5b505050506040513d6020811015610f8457600080fd5b8101908080519060200190929190505050905090565b610fd96040805190810160405280600581526020017f6f776e657200000000000000000000000000000000000000000000000000000081525033611ff9565b8061101f575061101e6040805190810160405280600581526020017f61646d696e00000000000000000000000000000000000000000000000000000081525033611ff9565b5b151561102a57600080fd5b600060019054906101000a900473ffffffffffffffffffffffffffffffffffffffff1673ffffffffffffffffffffffffffffffffffffffff1663e2a4853a8360405160200180807f70656e64696e672e7374617475732e696e6465780000000000000000000000008152506014018273ffffffffffffffffffffffffffffffffffffffff1673ffffffffffffffffffffffffffffffffffffffff166c010000000000000000000000000281526014019150506040516020818303038152906040526040518082805190602001908083835b60208310151561112057805182526020820191506020810190506020830392506110fb565b6001836020036101000a0380198251168184511680821785525050505050509050019150506040518091039020836040518363ffffffff167c010000000000000000000000000000000000000000000000000000000002815260040180836000191660001916815260200182815260200192505050600060405180830381600087803b1580156111af57600080fd5b505af11580156111c3573d6000803e3d6000fd5b505050505050565b60008060019054906101000a900473ffffffffffffffffffffffffffffffffffffffff1673ffffffffffffffffffffffffffffffffffffffff16637ae1cfca60405160200180807f766f6c696461746f727365742e66696e616c697a65640000000000000000000081525060160190506040516020818303038152906040526040518082805190602001908083835b60208310151561127f578051825260208201915060208101905060208303925061125a565b6001836020036101000a03801982511681845116808217855250505050505090500191505060405180910390206040518263ffffffff167c0100000000000000000000000000000000000000000000000000000000028152600401808260001916600019168152602001915050602060405180830381600087803b15801561130657600080fd5b505af115801561131a573d6000803e3d6000fd5b505050506040513d602081101561133057600080fd5b8101908080519060200190929190505050905090565b61134e6117e2565b73ffffffffffffffffffffffffffffffffffffffff163373ffffffffffffffffffffffffffffffffffffffff1614158061138c575061138b6111cb565b5b151561139757600080fd5b600260019080546113a9929190612303565b506113b4600161093d565b7f8564cd629b15f47dc310d45bcbfc9bcf5420b0d51bf0659a16c67f91d27632536113dd611b1d565b6040518080602001828103825283818151815260200191508051906020019060200280838360005b83811015611420578082015181840152602081019050611405565b505050509050019250505060405180910390a1565b60008060019054906101000a900473ffffffffffffffffffffffffffffffffffffffff1673ffffffffffffffffffffffffffffffffffffffff16637ae1cfca8360405160200180807f70656e64696e672e7374617475732e69732e696e0000000000000000000000008152506014018273ffffffffffffffffffffffffffffffffffffffff1673ffffffffffffffffffffffffffffffffffffffff166c010000000000000000000000000281526014019150506040516020818303038152906040526040518082805190602001908083835b60208310151561152c5780518252602082019150602081019050602083039250611507565b6001836020036101000a03801982511681845116808217855250505050505090500191505060405180910390206040518263ffffffff167c0100000000000000000000000000000000000000000000000000000000028152600401808260001916600019168152602001915050602060405180830381600087803b1580156115b357600080fd5b505af11580156115c7573d6000803e3d6000fd5b505050506040513d60208110156115dd57600080fd5b81019080805190602001909291905050509050919050565b6116346040805190810160405280600581526020017f6f776e657200000000000000000000000000000000000000000000000000000081525033611ff9565b8061167a57506116796040805190810160405280600581526020017f61646d696e00000000000000000000000000000000000000000000000000000081525033611ff9565b5b151561168557600080fd5b600060019054906101000a900473ffffffffffffffffffffffffffffffffffffffff1673ffffffffffffffffffffffffffffffffffffffff1663e2a4853a60405160200180807f766f6c696461746f727365742e726563656e742e626c6f636b73000000000000815250601a0190506040516020818303038152906040526040518082805190602001908083835b6020831015156117385780518252602082019150602081019050602083039250611713565b6001836020036101000a0380198251168184511680821785525050505050509050019150506040518091039020836040518363ffffffff167c010000000000000000000000000000000000000000000000000000000002815260040180836000191660001916815260200182815260200192505050600060405180830381600087803b1580156117c757600080fd5b505af11580156117db573d6000803e3d6000fd5b5050505050565b60008060019054906101000a900473ffffffffffffffffffffffffffffffffffffffff1673ffffffffffffffffffffffffffffffffffffffff166321f8a72160405160200180807f766f6c696461746f727365742e73797374656d2e616464726573730000000000815250601b0190506040516020818303038152906040526040518082805190602001908083835b6020831015156118965780518252602082019150602081019050602083039250611871565b6001836020036101000a03801982511681845116808217855250505050505090500191505060405180910390206040518263ffffffff167c0100000000000000000000000000000000000000000000000000000000028152600401808260001916600019168152602001915050602060405180830381600087803b15801561191d57600080fd5b505af1158015611931573d6000803e3d6000fd5b505050506040513d602081101561194757600080fd5b8101908080519060200190929190505050905090565b60008060019054906101000a900473ffffffffffffffffffffffffffffffffffffffff1673ffffffffffffffffffffffffffffffffffffffff1663bd02d0f58360405160200180807f70656e64696e672e7374617475732e696e6465780000000000000000000000008152506014018273ffffffffffffffffffffffffffffffffffffffff1673ffffffffffffffffffffffffffffffffffffffff166c010000000000000000000000000281526014019150506040516020818303038152906040526040518082805190602001908083835b602083101515611a545780518252602082019150602081019050602083039250611a2f565b6001836020036101000a03801982511681845116808217855250505050505090500191505060405180910390206040518263ffffffff167c0100000000000000000000000000000000000000000000000000000000028152600401808260001916600019168152602001915050602060405180830381600087803b158015611adb57600080fd5b505af1158015611aef573d6000803e3d6000fd5b505050506040513d6020811015611b0557600080fd5b81019080805190602001909291905050509050919050565b60606001805480602002602001604051908101604052809291908181526020018280548015611ba157602002820191906000526020600020905b8160009054906101000a900473ffffffffffffffffffffffffffffffffffffffff1673ffffffffffffffffffffffffffffffffffffffff1681526020019060010190808311611b57575b5050505050905090565b60008160029080519060200190611bc3929190612355565b50600090505b6001825103811015611c2557611bf78282815181101515611be657fe5b906020019060200201516001611dc4565b611c188282815181101515611c0857fe5b9060200190602002015182610f9a565b8080600101915050611bc9565b60026001908054611c37929190612303565b505050565b611c7b6040805190810160405280600581526020017f6f776e6572000000000000000000000000000000000000000000000000000000815250336122b7565b81611c84610e1f565b81014311151515611c9457600080fd5b600115158473ffffffffffffffffffffffffffffffffffffffff163373ffffffffffffffffffffffffffffffffffffffff167f32c78b6140c46745a46e88cd883707d70dbd2f06d13dd76fe5f499c01290da4f60405160405180910390a450505050565b611d376040805190810160405280600581526020017f6f776e6572000000000000000000000000000000000000000000000000000000815250336122b7565b81611d4181611435565b15611dbf5781611d4f610e1f565b81014311151515611d5f57600080fd5b600015158473ffffffffffffffffffffffffffffffffffffffff163373ffffffffffffffffffffffffffffffffffffffff167f32c78b6140c46745a46e88cd883707d70dbd2f06d13dd76fe5f499c01290da4f60405160405180910390a4505b505050565b611e036040805190810160405280600581526020017f6f776e657200000000000000000000000000000000000000000000000000000081525033611ff9565b80611e495750611e486040805190810160405280600581526020017f61646d696e00000000000000000000000000000000000000000000000000000081525033611ff9565b5b1515611e5457600080fd5b600060019054906101000a900473ffffffffffffffffffffffffffffffffffffffff1673ffffffffffffffffffffffffffffffffffffffff1663abfdcced8360405160200180807f70656e64696e672e7374617475732e69732e696e0000000000000000000000008152506014018273ffffffffffffffffffffffffffffffffffffffff1673ffffffffffffffffffffffffffffffffffffffff166c010000000000000000000000000281526014019150506040516020818303038152906040526040518082805190602001908083835b602083101515611f4a5780518252602082019150602081019050602083039250611f25565b6001836020036101000a0380198251168184511680821785525050505050509050019150506040518091039020836040518363ffffffff167c01000000000000000000000000000000000000000000000000000000000281526004018083600019166000191681526020018215151515815260200192505050600060405180830381600087803b158015611fdd57600080fd5b505af1158015611ff1573d6000803e3d6000fd5b505050505050565b60008060019054906101000a900473ffffffffffffffffffffffffffffffffffffffff1673ffffffffffffffffffffffffffffffffffffffff16637ae1cfca848460405160200180807f6163636573732e726f6c65000000000000000000000000000000000000000000815250600b0183805190602001908083835b60208310151561209a5780518252602082019150602081019050602083039250612075565b6001836020036101000a0380198251168184511680821785525050505050509050018273ffffffffffffffffffffffffffffffffffffffff1673ffffffffffffffffffffffffffffffffffffffff166c01000000000000000000000000028152601401925050506040516020818303038152906040526040518082805190602001908083835b6020831015156121455780518252602082019150602081019050602083039250612120565b6001836020036101000a03801982511681845116808217855250505050505090500191505060405180910390206040518263ffffffff167c0100000000000000000000000000000000000000000000000000000000028152600401808260001916600019168152602001915050602060405180830381600087803b1580156121cc57600080fd5b505af11580156121e0573d6000803e3d6000fd5b505050506040513d60208110156121f657600080fd5b8101908080519060200190929190505050905092915050565b6122176111cb565b15151561222357600080fd5b61222d600061093d565b6001430340600019167f55252fa6eee4741b4e24a74a70e9c11fd2c2281df8d6ea13126ff845f7825c8961225f6108af565b6040518080602001828103825283818151815260200191508051906020019060200280838360005b838110156122a2578082015181840152602081019050612287565b505050509050019250505060405180910390a2565b600115156122c58383611ff9565b15151415156122d357600080fd5b5050565b8154818355818111156122fe578183600052602060002091820191016122fd91906123df565b5b505050565b8280548282559060005260206000209081019282156123445760005260206000209182015b82811115612343578254825591600101919060010190612328565b5b5090506123519190612404565b5090565b8280548282559060005260206000209081019282156123ce579160200282015b828111156123cd5782518260006101000a81548173ffffffffffffffffffffffffffffffffffffffff021916908373ffffffffffffffffffffffffffffffffffffffff16021790555091602001919060010190612375565b5b5090506123db9190612404565b5090565b61240191905b808211156123fd5760008160009055506001016123e5565b5090565b90565b61244491905b8082111561244057600081816101000a81549073ffffffffffffffffffffffffffffffffffffffff02191690555060010161240a565b5090565b905600a165627a7a7230582039fcfa410a5788555735300b5c92d90369ffc976370869364b9e97d302d27a030029",
  "source": "pragma solidity ^0.4.23;\n\nimport \"../interface/ValidatorSetInterface.sol\";\n\ncontract ValidatorSet is ValidatorSetInterface{\n\n    event ValidatorAdded(\n        address indexed _validatorAddress,\n        uint256 created\n    );\n\n    event ValidatorRemoved(\n        address indexed _validatorAddress,\n        uint256 created\n    );\n\n\n    event Report(\n        address indexed reporter, \n        address indexed reported, \n        bool indexed malicious\n    );\n\n    event ChangeFinalized(\n        address[] currentSet\n    );\n\n    modifier onlySystemAndNotFinalized() {\n        require(msg.sender != getSystemAddress() || getFinalized());\n        _;\n    }\n\n    modifier whenFinalized(){\n        require(!getFinalized());\n        _;\n    }\n\n    modifier isValidator(address _someone){\n        if(getIsIn(_someone)){\n            _;\n        }\n    }\n\n    modifier isPending(address _someone){\n        if(getIsIn(_someone)){\n            _;\n        }\n    }\n\n    modifier isNotPending(address _someone){\n        if(!getIsIn(_someone)){\n            _;\n        }\n    }\n\n    modifier isRecent(uint256 _blockNumber){\n        require(block.number <= _blockNumber + getRecentBlocks());\n        _;\n    }\n\n    constructor (address _demoStorageAddress) DemoBase(_demoStorageAddress) public {\n        version = 1;\n    }\n\n    address[] validators;\n    address[] pending;\n\n        // 0x00Bd138aBD70e2F00903268F3Db08f2D25677C9e,\n        // 0x00Aa39d30F0D20FF03a22cCfc30B7EfbFca597C2,\n        // 0xd70db13e77dd64e7b3d53f2442912c26a68eaa7f\n\n    function initialValidators(address[] _initial) public {\n        // address[] storage pending = new address[](demoStorage.getUint(keccak256(\"as\")));\n        pending = _initial;\n        for(uint i = 0;i < _initial.length -1 ; i++){\n            setIsIn(_initial[i],true);\n            setIndex(_initial[i],i);\n        }\n        validators = pending;\n    }\n\n    function getValidators() public view returns(address[]){\n        return validators;\n    }\n\n    function getPending() public view returns(address[]){\n        return pending;\n    }\n\n    function finalizeChange() public onlySystemAndNotFinalized{\n        validators = pending;\n        setFinalized(true);\n        emit ChangeFinalized(getValidators());\n    }\n\n\n    // \n    function addValidator(address _validator) public onlySuperUser isNotPending(_validator){\n        setIsIn(_validator,true);\n        setIndex(_validator,pending.length);\n        pending.push(_validator);\n        initiateChange();\n    }\n\n    function removeValidator(address _validator) public onlySuperUser isPending(_validator){\n        pending[getIndex(_validator)] = pending[pending.length - 1];\n        delete pending[pending.length - 1];\n        pending.length--;\n        // Reset address status.\n        // delete pendingStatus[_validator].index;\n        //TODO: delete getIndex(_validator);\n        setIsIn(_validator,false);\n        // pendingStatus[_validator].isIn = false;\n        initiateChange();\n    }\n\n    // Called when a validator should be removed.\n    function reportMalicious(address _validator, uint _blockNumber, bytes /* _proof */) public onlyOwner isRecent(_blockNumber) {\n        emit Report(msg.sender, _validator, true);\n    }\n\n\t// Report that a validator has misbehaved in a benign way.\n    function reportBenign(address _validator, uint _blockNumber) public onlyOwner isValidator(_validator) isRecent(_blockNumber) {\n        emit Report(msg.sender, _validator, false);\n    }\n\n    // Log desire to change the current list.\n    function initiateChange() private whenFinalized {\n        setFinalized(false);\n        // solium-disable-next-line security/no-block-members\n        emit InitiateChange(blockhash(block.number - 1), getPending());\n    }\n\n\n    // getter\n    function getIsIn(address _someAddress) public view returns(bool){\n        return demoStorage.getBool(keccak256(abi.encodePacked(\"pending.status.is.in\",_someAddress)));\n    }\n\n    function getIndex(address _someAddress) public view returns(uint256){\n        return demoStorage.getUint(keccak256(abi.encodePacked(\"pending.status.index\",_someAddress)));\n    }\n\n    function getFinalized() public view returns (bool){\n        return demoStorage.getBool(keccak256(abi.encodePacked(\"volidatorset.finalized\")));\n    }\n\n    function getRecentBlocks() public view returns (uint256){\n        return demoStorage.getUint(keccak256(abi.encodePacked(\"volidatorset.recent.blocks\")));\n    }\n\n    function getSystemAddress() public view returns (address) {\n        return demoStorage.getAddress(keccak256(abi.encodePacked(\"volidatorset.system.address\")));\n    }\n\n    // setter\n    function setIsIn(address _someAddress,bool _enable) public onlySuperUser{\n        demoStorage.setBool(keccak256(abi.encodePacked(\"pending.status.is.in\",_someAddress)),_enable);\n    }\n\n    function setIndex(address _someAddress,uint256 index) public onlySuperUser{\n        demoStorage.setUint(keccak256(abi.encodePacked(\"pending.status.index\",_someAddress)),index);\n    }\n\n    function setFinalized(bool _enabled) public onlySuperUser{\n        demoStorage.setBool(keccak256(abi.encodePacked(\"volidatorset.finalized\")),_enabled);\n    }\n\n    function setRecentBlocks(uint256 _recentBlocks) public onlySuperUser{\n        demoStorage.setUint(keccak256(abi.encodePacked(\"volidatorset.recent.blocks\")),_recentBlocks);\n    }\n\n    function setSystemAddress(address _systemAddress)public onlySuperUser{\n        demoStorage.setAddress(keccak256(abi.encodePacked(\"volidatorset.system.address\")),_systemAddress);\n    }\n}",
  "sourcePath": "/home/a186r/develop/truffled/scdemo/contracts/VolidatorSet.sol",
  "compiler": {
    "name": "solc",
    "version": "0.4.23+commit.124ca40d.Emscripten.clang"
  },
  "schemaVersion": "2.0.0",
  "updatedAt": "2018-06-11T09:02:13.431Z"
}